{
	"Homework 7/Lecture 7/BirthdayPayouts.sol": {
		"BirthdayPayout": {
			"abi": [
				{
					"inputs": [],
					"stateMutability": "nonpayable",
					"type": "constructor"
				},
				{
					"anonymous": false,
					"inputs": [
						{
							"indexed": false,
							"internalType": "string",
							"name": "name",
							"type": "string"
						},
						{
							"indexed": false,
							"internalType": "address",
							"name": "account",
							"type": "address"
						}
					],
					"name": "HappyBirthday",
					"type": "event"
				},
				{
					"anonymous": false,
					"inputs": [
						{
							"indexed": false,
							"internalType": "address",
							"name": "account",
							"type": "address"
						},
						{
							"indexed": false,
							"internalType": "string",
							"name": "name",
							"type": "string"
						}
					],
					"name": "NewTeammate",
					"type": "event"
				},
				{
					"inputs": [
						{
							"internalType": "address",
							"name": "account",
							"type": "address"
						},
						{
							"internalType": "string",
							"name": "name",
							"type": "string"
						},
						{
							"internalType": "uint256",
							"name": "salary",
							"type": "uint256"
						},
						{
							"internalType": "uint256",
							"name": "birthday",
							"type": "uint256"
						}
					],
					"name": "addTeammate",
					"outputs": [],
					"stateMutability": "nonpayable",
					"type": "function"
				},
				{
					"inputs": [
						{
							"internalType": "uint256",
							"name": "index",
							"type": "uint256"
						}
					],
					"name": "checkBirthday",
					"outputs": [
						{
							"internalType": "bool",
							"name": "",
							"type": "bool"
						}
					],
					"stateMutability": "view",
					"type": "function"
				},
				{
					"inputs": [],
					"name": "deposit",
					"outputs": [],
					"stateMutability": "payable",
					"type": "function"
				},
				{
					"inputs": [],
					"name": "findBirthday",
					"outputs": [],
					"stateMutability": "nonpayable",
					"type": "function"
				},
				{
					"inputs": [
						{
							"internalType": "uint256",
							"name": "timestamp",
							"type": "uint256"
						}
					],
					"name": "getDate",
					"outputs": [
						{
							"internalType": "uint256",
							"name": "year",
							"type": "uint256"
						},
						{
							"internalType": "uint256",
							"name": "month",
							"type": "uint256"
						},
						{
							"internalType": "uint256",
							"name": "day",
							"type": "uint256"
						}
					],
					"stateMutability": "view",
					"type": "function"
				},
				{
					"inputs": [],
					"name": "getTeam",
					"outputs": [
						{
							"components": [
								{
									"internalType": "string",
									"name": "name",
									"type": "string"
								},
								{
									"internalType": "address",
									"name": "account",
									"type": "address"
								},
								{
									"internalType": "uint256",
									"name": "salary",
									"type": "uint256"
								},
								{
									"internalType": "uint256",
									"name": "birthday",
									"type": "uint256"
								}
							],
							"internalType": "struct BirthdayPayout.Teammate[]",
							"name": "",
							"type": "tuple[]"
						}
					],
					"stateMutability": "view",
					"type": "function"
				},
				{
					"inputs": [
						{
							"internalType": "uint256",
							"name": "index",
							"type": "uint256"
						}
					],
					"name": "getTeammate",
					"outputs": [
						{
							"components": [
								{
									"internalType": "string",
									"name": "name",
									"type": "string"
								},
								{
									"internalType": "address",
									"name": "account",
									"type": "address"
								},
								{
									"internalType": "uint256",
									"name": "salary",
									"type": "uint256"
								},
								{
									"internalType": "uint256",
									"name": "birthday",
									"type": "uint256"
								}
							],
							"internalType": "struct BirthdayPayout.Teammate",
							"name": "",
							"type": "tuple"
						}
					],
					"stateMutability": "view",
					"type": "function"
				},
				{
					"inputs": [],
					"name": "getTeammatesNumber",
					"outputs": [
						{
							"internalType": "uint256",
							"name": "",
							"type": "uint256"
						}
					],
					"stateMutability": "view",
					"type": "function"
				},
				{
					"inputs": [
						{
							"internalType": "uint256",
							"name": "index",
							"type": "uint256"
						}
					],
					"name": "sendToTeammate",
					"outputs": [],
					"stateMutability": "nonpayable",
					"type": "function"
				}
			],
			"devdoc": {
				"kind": "dev",
				"methods": {},
				"version": 1
			},
			"evm": {
				"assembly": "    /* \"Homework 7/Lecture 7/BirthdayPayouts.sol\":103:2975  contract BirthdayPayout {... */\n  mstore(0x40, 0x80)\n    /* \"Homework 7/Lecture 7/BirthdayPayouts.sol\":401:474  constructor() {... */\n  callvalue\n  dup1\n  iszero\n  tag_1\n  jumpi\n  0x00\n  dup1\n  revert\ntag_1:\n  pop\n    /* \"Homework 7/Lecture 7/BirthdayPayouts.sol\":425:438  _name = \"max\" */\n  mload(0x40)\n  dup1\n  0x40\n  add\n  0x40\n  mstore\n  dup1\n  0x03\n  dup2\n  mstore\n  0x20\n  add\n  0x6d61780000000000000000000000000000000000000000000000000000000000\n  dup2\n  mstore\n  pop\n    /* \"Homework 7/Lecture 7/BirthdayPayouts.sol\":425:430  _name */\n  0x00\n    /* \"Homework 7/Lecture 7/BirthdayPayouts.sol\":425:438  _name = \"max\" */\n  swap1\n  dup2\n  tag_4\n  swap2\n  swap1\n  tag_5\n  jump\t// in\ntag_4:\n  pop\n    /* \"Homework 7/Lecture 7/BirthdayPayouts.sol\":457:467  msg.sender */\n  caller\n    /* \"Homework 7/Lecture 7/BirthdayPayouts.sol\":448:454  _owner */\n  0x01\n  0x00\n    /* \"Homework 7/Lecture 7/BirthdayPayouts.sol\":448:467  _owner = msg.sender */\n  0x0100\n  exp\n  dup2\n  sload\n  dup2\n  0xffffffffffffffffffffffffffffffffffffffff\n  mul\n  not\n  and\n  swap1\n  dup4\n  0xffffffffffffffffffffffffffffffffffffffff\n  and\n  mul\n  or\n  swap1\n  sstore\n  pop\n    /* \"Homework 7/Lecture 7/BirthdayPayouts.sol\":103:2975  contract BirthdayPayout {... */\n  jump(tag_6)\n    /* \"#utility.yul\":7:106   */\ntag_7:\n    /* \"#utility.yul\":59:65   */\n  0x00\n    /* \"#utility.yul\":93:98   */\n  dup2\n    /* \"#utility.yul\":87:99   */\n  mload\n    /* \"#utility.yul\":77:99   */\n  swap1\n  pop\n    /* \"#utility.yul\":7:106   */\n  swap2\n  swap1\n  pop\n  jump\t// out\n    /* \"#utility.yul\":112:292   */\ntag_8:\n    /* \"#utility.yul\":160:237   */\n  0x4e487b7100000000000000000000000000000000000000000000000000000000\n    /* \"#utility.yul\":157:158   */\n  0x00\n    /* \"#utility.yul\":150:238   */\n  mstore\n    /* \"#utility.yul\":257:261   */\n  0x41\n    /* \"#utility.yul\":254:255   */\n  0x04\n    /* \"#utility.yul\":247:262   */\n  mstore\n    /* \"#utility.yul\":281:285   */\n  0x24\n    /* \"#utility.yul\":278:279   */\n  0x00\n    /* \"#utility.yul\":271:286   */\n  revert\n    /* \"#utility.yul\":298:478   */\ntag_9:\n    /* \"#utility.yul\":346:423   */\n  0x4e487b7100000000000000000000000000000000000000000000000000000000\n    /* \"#utility.yul\":343:344   */\n  0x00\n    /* \"#utility.yul\":336:424   */\n  mstore\n    /* \"#utility.yul\":443:447   */\n  0x22\n    /* \"#utility.yul\":440:441   */\n  0x04\n    /* \"#utility.yul\":433:448   */\n  mstore\n    /* \"#utility.yul\":467:471   */\n  0x24\n    /* \"#utility.yul\":464:465   */\n  0x00\n    /* \"#utility.yul\":457:472   */\n  revert\n    /* \"#utility.yul\":484:804   */\ntag_10:\n    /* \"#utility.yul\":528:534   */\n  0x00\n    /* \"#utility.yul\":565:566   */\n  0x02\n    /* \"#utility.yul\":559:563   */\n  dup3\n    /* \"#utility.yul\":555:567   */\n  div\n    /* \"#utility.yul\":545:567   */\n  swap1\n  pop\n    /* \"#utility.yul\":612:613   */\n  0x01\n    /* \"#utility.yul\":606:610   */\n  dup3\n    /* \"#utility.yul\":602:614   */\n  and\n    /* \"#utility.yul\":633:651   */\n  dup1\n    /* \"#utility.yul\":623:704   */\n  tag_32\n  jumpi\n    /* \"#utility.yul\":689:693   */\n  0x7f\n    /* \"#utility.yul\":681:687   */\n  dup3\n    /* \"#utility.yul\":677:694   */\n  and\n    /* \"#utility.yul\":667:694   */\n  swap2\n  pop\n    /* \"#utility.yul\":623:704   */\ntag_32:\n    /* \"#utility.yul\":751:753   */\n  0x20\n    /* \"#utility.yul\":743:749   */\n  dup3\n    /* \"#utility.yul\":740:754   */\n  lt\n    /* \"#utility.yul\":720:738   */\n  dup2\n    /* \"#utility.yul\":717:755   */\n  sub\n    /* \"#utility.yul\":714:798   */\n  tag_33\n  jumpi\n    /* \"#utility.yul\":770:788   */\n  tag_34\n  tag_9\n  jump\t// in\ntag_34:\n    /* \"#utility.yul\":714:798   */\ntag_33:\n    /* \"#utility.yul\":535:804   */\n  pop\n    /* \"#utility.yul\":484:804   */\n  swap2\n  swap1\n  pop\n  jump\t// out\n    /* \"#utility.yul\":810:951   */\ntag_11:\n    /* \"#utility.yul\":859:863   */\n  0x00\n    /* \"#utility.yul\":882:885   */\n  dup2\n    /* \"#utility.yul\":874:885   */\n  swap1\n  pop\n    /* \"#utility.yul\":905:908   */\n  dup2\n    /* \"#utility.yul\":902:903   */\n  0x00\n    /* \"#utility.yul\":895:909   */\n  mstore\n    /* \"#utility.yul\":939:943   */\n  0x20\n    /* \"#utility.yul\":936:937   */\n  0x00\n    /* \"#utility.yul\":926:944   */\n  keccak256\n    /* \"#utility.yul\":918:944   */\n  swap1\n  pop\n    /* \"#utility.yul\":810:951   */\n  swap2\n  swap1\n  pop\n  jump\t// out\n    /* \"#utility.yul\":957:1050   */\ntag_12:\n    /* \"#utility.yul\":994:1000   */\n  0x00\n    /* \"#utility.yul\":1041:1043   */\n  0x20\n    /* \"#utility.yul\":1036:1038   */\n  0x1f\n    /* \"#utility.yul\":1029:1034   */\n  dup4\n    /* \"#utility.yul\":1025:1039   */\n  add\n    /* \"#utility.yul\":1021:1044   */\n  div\n    /* \"#utility.yul\":1011:1044   */\n  swap1\n  pop\n    /* \"#utility.yul\":957:1050   */\n  swap2\n  swap1\n  pop\n  jump\t// out\n    /* \"#utility.yul\":1056:1163   */\ntag_13:\n    /* \"#utility.yul\":1100:1108   */\n  0x00\n    /* \"#utility.yul\":1150:1155   */\n  dup3\n    /* \"#utility.yul\":1144:1148   */\n  dup3\n    /* \"#utility.yul\":1140:1156   */\n  shl\n    /* \"#utility.yul\":1119:1156   */\n  swap1\n  pop\n    /* \"#utility.yul\":1056:1163   */\n  swap3\n  swap2\n  pop\n  pop\n  jump\t// out\n    /* \"#utility.yul\":1169:1562   */\ntag_14:\n    /* \"#utility.yul\":1238:1244   */\n  0x00\n    /* \"#utility.yul\":1288:1289   */\n  0x08\n    /* \"#utility.yul\":1276:1286   */\n  dup4\n    /* \"#utility.yul\":1272:1290   */\n  mul\n    /* \"#utility.yul\":1311:1408   */\n  tag_39\n    /* \"#utility.yul\":1341:1407   */\n  0xffffffffffffffffffffffffffffffffffffffffffffffffffffffffffffffff\n    /* \"#utility.yul\":1330:1339   */\n  dup3\n    /* \"#utility.yul\":1311:1408   */\n  tag_13\n  jump\t// in\ntag_39:\n    /* \"#utility.yul\":1429:1468   */\n  tag_40\n    /* \"#utility.yul\":1459:1467   */\n  dup7\n    /* \"#utility.yul\":1448:1457   */\n  dup4\n    /* \"#utility.yul\":1429:1468   */\n  tag_13\n  jump\t// in\ntag_40:\n    /* \"#utility.yul\":1417:1468   */\n  swap6\n  pop\n    /* \"#utility.yul\":1501:1505   */\n  dup1\n    /* \"#utility.yul\":1497:1506   */\n  not\n    /* \"#utility.yul\":1490:1495   */\n  dup5\n    /* \"#utility.yul\":1486:1507   */\n  and\n    /* \"#utility.yul\":1477:1507   */\n  swap4\n  pop\n    /* \"#utility.yul\":1550:1554   */\n  dup1\n    /* \"#utility.yul\":1540:1548   */\n  dup7\n    /* \"#utility.yul\":1536:1555   */\n  and\n    /* \"#utility.yul\":1529:1534   */\n  dup5\n    /* \"#utility.yul\":1526:1556   */\n  or\n    /* \"#utility.yul\":1516:1556   */\n  swap3\n  pop\n    /* \"#utility.yul\":1245:1562   */\n  pop\n  pop\n    /* \"#utility.yul\":1169:1562   */\n  swap4\n  swap3\n  pop\n  pop\n  pop\n  jump\t// out\n    /* \"#utility.yul\":1568:1645   */\ntag_15:\n    /* \"#utility.yul\":1605:1612   */\n  0x00\n    /* \"#utility.yul\":1634:1639   */\n  dup2\n    /* \"#utility.yul\":1623:1639   */\n  swap1\n  pop\n    /* \"#utility.yul\":1568:1645   */\n  swap2\n  swap1\n  pop\n  jump\t// out\n    /* \"#utility.yul\":1651:1711   */\ntag_16:\n    /* \"#utility.yul\":1679:1682   */\n  0x00\n    /* \"#utility.yul\":1700:1705   */\n  dup2\n    /* \"#utility.yul\":1693:1705   */\n  swap1\n  pop\n    /* \"#utility.yul\":1651:1711   */\n  swap2\n  swap1\n  pop\n  jump\t// out\n    /* \"#utility.yul\":1717:1859   */\ntag_17:\n    /* \"#utility.yul\":1767:1776   */\n  0x00\n    /* \"#utility.yul\":1800:1853   */\n  tag_44\n    /* \"#utility.yul\":1818:1852   */\n  tag_45\n    /* \"#utility.yul\":1827:1851   */\n  tag_46\n    /* \"#utility.yul\":1845:1850   */\n  dup5\n    /* \"#utility.yul\":1827:1851   */\n  tag_15\n  jump\t// in\ntag_46:\n    /* \"#utility.yul\":1818:1852   */\n  tag_16\n  jump\t// in\ntag_45:\n    /* \"#utility.yul\":1800:1853   */\n  tag_15\n  jump\t// in\ntag_44:\n    /* \"#utility.yul\":1787:1853   */\n  swap1\n  pop\n    /* \"#utility.yul\":1717:1859   */\n  swap2\n  swap1\n  pop\n  jump\t// out\n    /* \"#utility.yul\":1865:1940   */\ntag_18:\n    /* \"#utility.yul\":1908:1911   */\n  0x00\n    /* \"#utility.yul\":1929:1934   */\n  dup2\n    /* \"#utility.yul\":1922:1934   */\n  swap1\n  pop\n    /* \"#utility.yul\":1865:1940   */\n  swap2\n  swap1\n  pop\n  jump\t// out\n    /* \"#utility.yul\":1946:2215   */\ntag_19:\n    /* \"#utility.yul\":2056:2095   */\n  tag_49\n    /* \"#utility.yul\":2087:2094   */\n  dup4\n    /* \"#utility.yul\":2056:2095   */\n  tag_17\n  jump\t// in\ntag_49:\n    /* \"#utility.yul\":2117:2208   */\n  tag_50\n    /* \"#utility.yul\":2166:2207   */\n  tag_51\n    /* \"#utility.yul\":2190:2206   */\n  dup3\n    /* \"#utility.yul\":2166:2207   */\n  tag_18\n  jump\t// in\ntag_51:\n    /* \"#utility.yul\":2158:2164   */\n  dup5\n    /* \"#utility.yul\":2151:2155   */\n  dup5\n    /* \"#utility.yul\":2145:2156   */\n  sload\n    /* \"#utility.yul\":2117:2208   */\n  tag_14\n  jump\t// in\ntag_50:\n    /* \"#utility.yul\":2111:2115   */\n  dup3\n    /* \"#utility.yul\":2104:2209   */\n  sstore\n    /* \"#utility.yul\":2022:2215   */\n  pop\n    /* \"#utility.yul\":1946:2215   */\n  pop\n  pop\n  pop\n  jump\t// out\n    /* \"#utility.yul\":2221:2294   */\ntag_20:\n    /* \"#utility.yul\":2266:2269   */\n  0x00\n    /* \"#utility.yul\":2221:2294   */\n  swap1\n  jump\t// out\n    /* \"#utility.yul\":2300:2489   */\ntag_21:\n    /* \"#utility.yul\":2377:2409   */\n  tag_54\n  tag_20\n  jump\t// in\ntag_54:\n    /* \"#utility.yul\":2418:2483   */\n  tag_55\n    /* \"#utility.yul\":2476:2482   */\n  dup2\n    /* \"#utility.yul\":2468:2474   */\n  dup5\n    /* \"#utility.yul\":2462:2466   */\n  dup5\n    /* \"#utility.yul\":2418:2483   */\n  tag_19\n  jump\t// in\ntag_55:\n    /* \"#utility.yul\":2353:2489   */\n  pop\n    /* \"#utility.yul\":2300:2489   */\n  pop\n  pop\n  jump\t// out\n    /* \"#utility.yul\":2495:2681   */\ntag_22:\n    /* \"#utility.yul\":2555:2675   */\ntag_57:\n    /* \"#utility.yul\":2572:2575   */\n  dup2\n    /* \"#utility.yul\":2565:2570   */\n  dup2\n    /* \"#utility.yul\":2562:2576   */\n  lt\n    /* \"#utility.yul\":2555:2675   */\n  iszero\n  tag_59\n  jumpi\n    /* \"#utility.yul\":2626:2665   */\n  tag_60\n    /* \"#utility.yul\":2663:2664   */\n  0x00\n    /* \"#utility.yul\":2656:2661   */\n  dup3\n    /* \"#utility.yul\":2626:2665   */\n  tag_21\n  jump\t// in\ntag_60:\n    /* \"#utility.yul\":2599:2600   */\n  0x01\n    /* \"#utility.yul\":2592:2597   */\n  dup2\n    /* \"#utility.yul\":2588:2601   */\n  add\n    /* \"#utility.yul\":2579:2601   */\n  swap1\n  pop\n    /* \"#utility.yul\":2555:2675   */\n  jump(tag_57)\ntag_59:\n    /* \"#utility.yul\":2495:2681   */\n  pop\n  pop\n  jump\t// out\n    /* \"#utility.yul\":2687:3230   */\ntag_23:\n    /* \"#utility.yul\":2788:2790   */\n  0x1f\n    /* \"#utility.yul\":2783:2786   */\n  dup3\n    /* \"#utility.yul\":2780:2791   */\n  gt\n    /* \"#utility.yul\":2777:3223   */\n  iszero\n  tag_62\n  jumpi\n    /* \"#utility.yul\":2822:2860   */\n  tag_63\n    /* \"#utility.yul\":2854:2859   */\n  dup2\n    /* \"#utility.yul\":2822:2860   */\n  tag_11\n  jump\t// in\ntag_63:\n    /* \"#utility.yul\":2906:2935   */\n  tag_64\n    /* \"#utility.yul\":2924:2934   */\n  dup5\n    /* \"#utility.yul\":2906:2935   */\n  tag_12\n  jump\t// in\ntag_64:\n    /* \"#utility.yul\":2896:2904   */\n  dup2\n    /* \"#utility.yul\":2892:2936   */\n  add\n    /* \"#utility.yul\":3089:3091   */\n  0x20\n    /* \"#utility.yul\":3077:3087   */\n  dup6\n    /* \"#utility.yul\":3074:3092   */\n  lt\n    /* \"#utility.yul\":3071:3120   */\n  iszero\n  tag_65\n  jumpi\n    /* \"#utility.yul\":3110:3118   */\n  dup2\n    /* \"#utility.yul\":3095:3118   */\n  swap1\n  pop\n    /* \"#utility.yul\":3071:3120   */\ntag_65:\n    /* \"#utility.yul\":3133:3213   */\n  tag_66\n    /* \"#utility.yul\":3189:3211   */\n  tag_67\n    /* \"#utility.yul\":3207:3210   */\n  dup6\n    /* \"#utility.yul\":3189:3211   */\n  tag_12\n  jump\t// in\ntag_67:\n    /* \"#utility.yul\":3179:3187   */\n  dup4\n    /* \"#utility.yul\":3175:3212   */\n  add\n    /* \"#utility.yul\":3162:3173   */\n  dup3\n    /* \"#utility.yul\":3133:3213   */\n  tag_22\n  jump\t// in\ntag_66:\n    /* \"#utility.yul\":2792:3223   */\n  pop\n  pop\n    /* \"#utility.yul\":2777:3223   */\ntag_62:\n    /* \"#utility.yul\":2687:3230   */\n  pop\n  pop\n  pop\n  jump\t// out\n    /* \"#utility.yul\":3236:3353   */\ntag_24:\n    /* \"#utility.yul\":3290:3298   */\n  0x00\n    /* \"#utility.yul\":3340:3345   */\n  dup3\n    /* \"#utility.yul\":3334:3338   */\n  dup3\n    /* \"#utility.yul\":3330:3346   */\n  shr\n    /* \"#utility.yul\":3309:3346   */\n  swap1\n  pop\n    /* \"#utility.yul\":3236:3353   */\n  swap3\n  swap2\n  pop\n  pop\n  jump\t// out\n    /* \"#utility.yul\":3359:3528   */\ntag_25:\n    /* \"#utility.yul\":3403:3409   */\n  0x00\n    /* \"#utility.yul\":3436:3487   */\n  tag_70\n    /* \"#utility.yul\":3484:3485   */\n  0x00\n    /* \"#utility.yul\":3480:3486   */\n  not\n    /* \"#utility.yul\":3472:3477   */\n  dup5\n    /* \"#utility.yul\":3469:3470   */\n  0x08\n    /* \"#utility.yul\":3465:3478   */\n  mul\n    /* \"#utility.yul\":3436:3487   */\n  tag_24\n  jump\t// in\ntag_70:\n    /* \"#utility.yul\":3432:3488   */\n  not\n    /* \"#utility.yul\":3517:3521   */\n  dup1\n    /* \"#utility.yul\":3511:3515   */\n  dup4\n    /* \"#utility.yul\":3507:3522   */\n  and\n    /* \"#utility.yul\":3497:3522   */\n  swap2\n  pop\n    /* \"#utility.yul\":3410:3528   */\n  pop\n    /* \"#utility.yul\":3359:3528   */\n  swap3\n  swap2\n  pop\n  pop\n  jump\t// out\n    /* \"#utility.yul\":3533:3828   */\ntag_26:\n    /* \"#utility.yul\":3609:3613   */\n  0x00\n    /* \"#utility.yul\":3755:3784   */\n  tag_72\n    /* \"#utility.yul\":3780:3783   */\n  dup4\n    /* \"#utility.yul\":3774:3778   */\n  dup4\n    /* \"#utility.yul\":3755:3784   */\n  tag_25\n  jump\t// in\ntag_72:\n    /* \"#utility.yul\":3747:3784   */\n  swap2\n  pop\n    /* \"#utility.yul\":3817:3820   */\n  dup3\n    /* \"#utility.yul\":3814:3815   */\n  0x02\n    /* \"#utility.yul\":3810:3821   */\n  mul\n    /* \"#utility.yul\":3804:3808   */\n  dup3\n    /* \"#utility.yul\":3801:3822   */\n  or\n    /* \"#utility.yul\":3793:3822   */\n  swap1\n  pop\n    /* \"#utility.yul\":3533:3828   */\n  swap3\n  swap2\n  pop\n  pop\n  jump\t// out\n    /* \"#utility.yul\":3833:5228   */\ntag_5:\n    /* \"#utility.yul\":3950:3987   */\n  tag_74\n    /* \"#utility.yul\":3983:3986   */\n  dup3\n    /* \"#utility.yul\":3950:3987   */\n  tag_7\n  jump\t// in\ntag_74:\n    /* \"#utility.yul\":4052:4070   */\n  0xffffffffffffffff\n    /* \"#utility.yul\":4044:4050   */\n  dup2\n    /* \"#utility.yul\":4041:4071   */\n  gt\n    /* \"#utility.yul\":4038:4094   */\n  iszero\n  tag_75\n  jumpi\n    /* \"#utility.yul\":4074:4092   */\n  tag_76\n  tag_8\n  jump\t// in\ntag_76:\n    /* \"#utility.yul\":4038:4094   */\ntag_75:\n    /* \"#utility.yul\":4118:4156   */\n  tag_77\n    /* \"#utility.yul\":4150:4154   */\n  dup3\n    /* \"#utility.yul\":4144:4155   */\n  sload\n    /* \"#utility.yul\":4118:4156   */\n  tag_10\n  jump\t// in\ntag_77:\n    /* \"#utility.yul\":4203:4270   */\n  tag_78\n    /* \"#utility.yul\":4263:4269   */\n  dup3\n    /* \"#utility.yul\":4255:4261   */\n  dup3\n    /* \"#utility.yul\":4249:4253   */\n  dup6\n    /* \"#utility.yul\":4203:4270   */\n  tag_23\n  jump\t// in\ntag_78:\n    /* \"#utility.yul\":4297:4298   */\n  0x00\n    /* \"#utility.yul\":4321:4325   */\n  0x20\n    /* \"#utility.yul\":4308:4325   */\n  swap1\n  pop\n    /* \"#utility.yul\":4353:4355   */\n  0x1f\n    /* \"#utility.yul\":4345:4351   */\n  dup4\n    /* \"#utility.yul\":4342:4356   */\n  gt\n    /* \"#utility.yul\":4370:4371   */\n  0x01\n    /* \"#utility.yul\":4365:4983   */\n  dup2\n  eq\n  tag_80\n  jumpi\n    /* \"#utility.yul\":5027:5028   */\n  0x00\n    /* \"#utility.yul\":5044:5050   */\n  dup5\n    /* \"#utility.yul\":5041:5118   */\n  iszero\n  tag_81\n  jumpi\n    /* \"#utility.yul\":5093:5102   */\n  dup3\n    /* \"#utility.yul\":5088:5091   */\n  dup8\n    /* \"#utility.yul\":5084:5103   */\n  add\n    /* \"#utility.yul\":5078:5104   */\n  mload\n    /* \"#utility.yul\":5069:5104   */\n  swap1\n  pop\n    /* \"#utility.yul\":5041:5118   */\ntag_81:\n    /* \"#utility.yul\":5144:5211   */\n  tag_82\n    /* \"#utility.yul\":5204:5210   */\n  dup6\n    /* \"#utility.yul\":5197:5202   */\n  dup3\n    /* \"#utility.yul\":5144:5211   */\n  tag_26\n  jump\t// in\ntag_82:\n    /* \"#utility.yul\":5138:5142   */\n  dup7\n    /* \"#utility.yul\":5131:5212   */\n  sstore\n    /* \"#utility.yul\":5000:5222   */\n  pop\n    /* \"#utility.yul\":4335:5222   */\n  jump(tag_79)\n    /* \"#utility.yul\":4365:4983   */\ntag_80:\n    /* \"#utility.yul\":4417:4421   */\n  0x1f\n    /* \"#utility.yul\":4413:4422   */\n  not\n    /* \"#utility.yul\":4405:4411   */\n  dup5\n    /* \"#utility.yul\":4401:4423   */\n  and\n    /* \"#utility.yul\":4451:4488   */\n  tag_83\n    /* \"#utility.yul\":4483:4487   */\n  dup7\n    /* \"#utility.yul\":4451:4488   */\n  tag_11\n  jump\t// in\ntag_83:\n    /* \"#utility.yul\":4510:4511   */\n  0x00\n    /* \"#utility.yul\":4524:4732   */\ntag_84:\n    /* \"#utility.yul\":4538:4545   */\n  dup3\n    /* \"#utility.yul\":4535:4536   */\n  dup2\n    /* \"#utility.yul\":4532:4546   */\n  lt\n    /* \"#utility.yul\":4524:4732   */\n  iszero\n  tag_86\n  jumpi\n    /* \"#utility.yul\":4617:4626   */\n  dup5\n    /* \"#utility.yul\":4612:4615   */\n  dup10\n    /* \"#utility.yul\":4608:4627   */\n  add\n    /* \"#utility.yul\":4602:4628   */\n  mload\n    /* \"#utility.yul\":4594:4600   */\n  dup3\n    /* \"#utility.yul\":4587:4629   */\n  sstore\n    /* \"#utility.yul\":4668:4669   */\n  0x01\n    /* \"#utility.yul\":4660:4666   */\n  dup3\n    /* \"#utility.yul\":4656:4670   */\n  add\n    /* \"#utility.yul\":4646:4670   */\n  swap2\n  pop\n    /* \"#utility.yul\":4715:4717   */\n  0x20\n    /* \"#utility.yul\":4704:4713   */\n  dup6\n    /* \"#utility.yul\":4700:4718   */\n  add\n    /* \"#utility.yul\":4687:4718   */\n  swap5\n  pop\n    /* \"#utility.yul\":4561:4565   */\n  0x20\n    /* \"#utility.yul\":4558:4559   */\n  dup2\n    /* \"#utility.yul\":4554:4566   */\n  add\n    /* \"#utility.yul\":4549:4566   */\n  swap1\n  pop\n    /* \"#utility.yul\":4524:4732   */\n  jump(tag_84)\ntag_86:\n    /* \"#utility.yul\":4760:4766   */\n  dup7\n    /* \"#utility.yul\":4751:4758   */\n  dup4\n    /* \"#utility.yul\":4748:4767   */\n  lt\n    /* \"#utility.yul\":4745:4924   */\n  iszero\n  tag_87\n  jumpi\n    /* \"#utility.yul\":4818:4827   */\n  dup5\n    /* \"#utility.yul\":4813:4816   */\n  dup10\n    /* \"#utility.yul\":4809:4828   */\n  add\n    /* \"#utility.yul\":4803:4829   */\n  mload\n    /* \"#utility.yul\":4861:4909   */\n  tag_88\n    /* \"#utility.yul\":4903:4907   */\n  0x1f\n    /* \"#utility.yul\":4895:4901   */\n  dup10\n    /* \"#utility.yul\":4891:4908   */\n  and\n    /* \"#utility.yul\":4880:4889   */\n  dup3\n    /* \"#utility.yul\":4861:4909   */\n  tag_25\n  jump\t// in\ntag_88:\n    /* \"#utility.yul\":4853:4859   */\n  dup4\n    /* \"#utility.yul\":4846:4910   */\n  sstore\n    /* \"#utility.yul\":4768:4924   */\n  pop\n    /* \"#utility.yul\":4745:4924   */\ntag_87:\n    /* \"#utility.yul\":4970:4971   */\n  0x01\n    /* \"#utility.yul\":4966:4967   */\n  0x02\n    /* \"#utility.yul\":4958:4964   */\n  dup9\n    /* \"#utility.yul\":4954:4968   */\n  mul\n    /* \"#utility.yul\":4950:4972   */\n  add\n    /* \"#utility.yul\":4944:4948   */\n  dup9\n    /* \"#utility.yul\":4937:4973   */\n  sstore\n    /* \"#utility.yul\":4372:4983   */\n  pop\n  pop\n  pop\n    /* \"#utility.yul\":4335:5222   */\ntag_79:\n  pop\n    /* \"#utility.yul\":3925:5228   */\n  pop\n  pop\n  pop\n    /* \"#utility.yul\":3833:5228   */\n  pop\n  pop\n  jump\t// out\n    /* \"Homework 7/Lecture 7/BirthdayPayouts.sol\":103:2975  contract BirthdayPayout {... */\ntag_6:\n  dataSize(sub_0)\n  dup1\n  dataOffset(sub_0)\n  0x00\n  codecopy\n  0x00\n  return\nstop\n\nsub_0: assembly {\n        /* \"Homework 7/Lecture 7/BirthdayPayouts.sol\":103:2975  contract BirthdayPayout {... */\n      mstore(0x40, 0x80)\n      jumpi(tag_1, lt(calldatasize, 0x04))\n      shr(0xe0, calldataload(0x00))\n      dup1\n      0xb9e1189e\n      gt\n      tag_11\n      jumpi\n      dup1\n      0xb9e1189e\n      eq\n      tag_6\n      jumpi\n      dup1\n      0xd0e30db0\n      eq\n      tag_7\n      jumpi\n      dup1\n      0xe03cf9dc\n      eq\n      tag_8\n      jumpi\n      dup1\n      0xe792ec4f\n      eq\n      tag_9\n      jumpi\n      dup1\n      0xeed2157c\n      eq\n      tag_10\n      jumpi\n      jump(tag_1)\n    tag_11:\n      dup1\n      0x2b57298b\n      eq\n      tag_2\n      jumpi\n      dup1\n      0x5bd2d868\n      eq\n      tag_3\n      jumpi\n      dup1\n      0x8bce6edd\n      eq\n      tag_4\n      jumpi\n      dup1\n      0xb0641934\n      eq\n      tag_5\n      jumpi\n    tag_1:\n      0x00\n      dup1\n      revert\n        /* \"Homework 7/Lecture 7/BirthdayPayouts.sol\":1386:1575  function getDate(uint256 timestamp) view public returns(uint256 year, uint256 month, uint256 day){... */\n    tag_2:\n      callvalue\n      dup1\n      iszero\n      tag_12\n      jumpi\n      0x00\n      dup1\n      revert\n    tag_12:\n      pop\n      tag_13\n      0x04\n      dup1\n      calldatasize\n      sub\n      dup2\n      add\n      swap1\n      tag_14\n      swap2\n      swap1\n      tag_15\n      jump\t// in\n    tag_14:\n      tag_16\n      jump\t// in\n    tag_13:\n      mload(0x40)\n      tag_17\n      swap4\n      swap3\n      swap2\n      swap1\n      tag_18\n      jump\t// in\n    tag_17:\n      mload(0x40)\n      dup1\n      swap2\n      sub\n      swap1\n      return\n        /* \"Homework 7/Lecture 7/BirthdayPayouts.sol\":824:1208  function findBirthday() public onlyOwner {... */\n    tag_3:\n      callvalue\n      dup1\n      iszero\n      tag_19\n      jumpi\n      0x00\n      dup1\n      revert\n    tag_19:\n      pop\n      tag_20\n      tag_21\n      jump\t// in\n    tag_20:\n      stop\n        /* \"Homework 7/Lecture 7/BirthdayPayouts.sol\":2348:2440  function getTeam() view public returns(Teammate[] memory){... */\n    tag_4:\n      callvalue\n      dup1\n      iszero\n      tag_22\n      jumpi\n      0x00\n      dup1\n      revert\n    tag_22:\n      pop\n      tag_23\n      tag_24\n      jump\t// in\n    tag_23:\n      mload(0x40)\n      tag_25\n      swap2\n      swap1\n      tag_26\n      jump\t// in\n    tag_25:\n      mload(0x40)\n      dup1\n      swap2\n      sub\n      swap1\n      return\n        /* \"Homework 7/Lecture 7/BirthdayPayouts.sol\":480:818  function addTeammate(address account, string memory name, uint256 salary, uint256 birthday) public onlyOwner {... */\n    tag_5:\n      callvalue\n      dup1\n      iszero\n      tag_27\n      jumpi\n      0x00\n      dup1\n      revert\n    tag_27:\n      pop\n      tag_28\n      0x04\n      dup1\n      calldatasize\n      sub\n      dup2\n      add\n      swap1\n      tag_29\n      swap2\n      swap1\n      tag_30\n      jump\t// in\n    tag_29:\n      tag_31\n      jump\t// in\n    tag_28:\n      stop\n        /* \"Homework 7/Lecture 7/BirthdayPayouts.sol\":1581:2223  function checkBirthday(uint256 index) view public returns(bool){... */\n    tag_6:\n      callvalue\n      dup1\n      iszero\n      tag_32\n      jumpi\n      0x00\n      dup1\n      revert\n    tag_32:\n      pop\n      tag_33\n      0x04\n      dup1\n      calldatasize\n      sub\n      dup2\n      add\n      swap1\n      tag_34\n      swap2\n      swap1\n      tag_15\n      jump\t// in\n    tag_34:\n      tag_35\n      jump\t// in\n    tag_33:\n      mload(0x40)\n      tag_36\n      swap2\n      swap1\n      tag_37\n      jump\t// in\n    tag_36:\n      mload(0x40)\n      dup1\n      swap2\n      sub\n      swap1\n      return\n        /* \"Homework 7/Lecture 7/BirthdayPayouts.sol\":2698:2739  function deposit() public payable{... */\n    tag_7:\n      tag_38\n      tag_39\n      jump\t// in\n    tag_38:\n      stop\n        /* \"Homework 7/Lecture 7/BirthdayPayouts.sol\":2551:2692  function sendToTeammate(uint256 index) public onlyOwner{... */\n    tag_8:\n      callvalue\n      dup1\n      iszero\n      tag_40\n      jumpi\n      0x00\n      dup1\n      revert\n    tag_40:\n      pop\n      tag_41\n      0x04\n      dup1\n      calldatasize\n      sub\n      dup2\n      add\n      swap1\n      tag_42\n      swap2\n      swap1\n      tag_15\n      jump\t// in\n    tag_42:\n      tag_43\n      jump\t// in\n    tag_41:\n      stop\n        /* \"Homework 7/Lecture 7/BirthdayPayouts.sol\":2229:2342  function getTeammate(uint256 index) view public returns(Teammate memory){... */\n    tag_9:\n      callvalue\n      dup1\n      iszero\n      tag_44\n      jumpi\n      0x00\n      dup1\n      revert\n    tag_44:\n      pop\n      tag_45\n      0x04\n      dup1\n      calldatasize\n      sub\n      dup2\n      add\n      swap1\n      tag_46\n      swap2\n      swap1\n      tag_15\n      jump\t// in\n    tag_46:\n      tag_47\n      jump\t// in\n    tag_45:\n      mload(0x40)\n      tag_48\n      swap2\n      swap1\n      tag_49\n      jump\t// in\n    tag_48:\n      mload(0x40)\n      dup1\n      swap2\n      sub\n      swap1\n      return\n        /* \"Homework 7/Lecture 7/BirthdayPayouts.sol\":2446:2545  function getTeammatesNumber() view public returns(uint256){... */\n    tag_10:\n      callvalue\n      dup1\n      iszero\n      tag_50\n      jumpi\n      0x00\n      dup1\n      revert\n    tag_50:\n      pop\n      tag_51\n      tag_52\n      jump\t// in\n    tag_51:\n      mload(0x40)\n      tag_53\n      swap2\n      swap1\n      tag_54\n      jump\t// in\n    tag_53:\n      mload(0x40)\n      dup1\n      swap2\n      sub\n      swap1\n      return\n        /* \"Homework 7/Lecture 7/BirthdayPayouts.sol\":1386:1575  function getDate(uint256 timestamp) view public returns(uint256 year, uint256 month, uint256 day){... */\n    tag_16:\n        /* \"Homework 7/Lecture 7/BirthdayPayouts.sol\":1442:1454  uint256 year */\n      0x00\n        /* \"Homework 7/Lecture 7/BirthdayPayouts.sol\":1456:1469  uint256 month */\n      dup1\n        /* \"Homework 7/Lecture 7/BirthdayPayouts.sol\":1471:1482  uint256 day */\n      0x00\n        /* \"Homework 7/Lecture 7/BirthdayPayouts.sol\":1514:1568  BokkyPooBahsDateTimeLibrary.timestampToDate(timestamp) */\n      tag_56\n        /* \"Homework 7/Lecture 7/BirthdayPayouts.sol\":1558:1567  timestamp */\n      dup5\n        /* \"Homework 7/Lecture 7/BirthdayPayouts.sol\":1514:1557  BokkyPooBahsDateTimeLibrary.timestampToDate */\n      tag_57\n        /* \"Homework 7/Lecture 7/BirthdayPayouts.sol\":1514:1568  BokkyPooBahsDateTimeLibrary.timestampToDate(timestamp) */\n      jump\t// in\n    tag_56:\n        /* \"Homework 7/Lecture 7/BirthdayPayouts.sol\":1493:1568  (year, month, day) = BokkyPooBahsDateTimeLibrary.timestampToDate(timestamp) */\n      dup1\n      swap4\n      pop\n      dup2\n      swap5\n      pop\n      dup3\n      swap6\n      pop\n      pop\n      pop\n      pop\n        /* \"Homework 7/Lecture 7/BirthdayPayouts.sol\":1386:1575  function getDate(uint256 timestamp) view public returns(uint256 year, uint256 month, uint256 day){... */\n      swap2\n      swap4\n      swap1\n      swap3\n      pop\n      jump\t// out\n        /* \"Homework 7/Lecture 7/BirthdayPayouts.sol\":824:1208  function findBirthday() public onlyOwner {... */\n    tag_21:\n        /* \"Homework 7/Lecture 7/BirthdayPayouts.sol\":2797:2803  _owner */\n      0x01\n      0x00\n      swap1\n      sload\n      swap1\n      0x0100\n      exp\n      swap1\n      div\n      0xffffffffffffffffffffffffffffffffffffffff\n      and\n        /* \"Homework 7/Lecture 7/BirthdayPayouts.sol\":2783:2803  msg.sender == _owner */\n      0xffffffffffffffffffffffffffffffffffffffff\n      and\n        /* \"Homework 7/Lecture 7/BirthdayPayouts.sol\":2783:2793  msg.sender */\n      caller\n        /* \"Homework 7/Lecture 7/BirthdayPayouts.sol\":2783:2803  msg.sender == _owner */\n      0xffffffffffffffffffffffffffffffffffffffff\n      and\n      eq\n        /* \"Homework 7/Lecture 7/BirthdayPayouts.sol\":2775:2846  require(msg.sender == _owner, \"Sender should be the owner of contract\") */\n      tag_59\n      jumpi\n      mload(0x40)\n      0x08c379a000000000000000000000000000000000000000000000000000000000\n      dup2\n      mstore\n      0x04\n      add\n      tag_60\n      swap1\n      tag_61\n      jump\t// in\n    tag_60:\n      mload(0x40)\n      dup1\n      swap2\n      sub\n      swap1\n      revert\n    tag_59:\n        /* \"Homework 7/Lecture 7/BirthdayPayouts.sol\":906:907  0 */\n      0x00\n        /* \"Homework 7/Lecture 7/BirthdayPayouts.sol\":883:903  getTeammatesNumber() */\n      tag_63\n        /* \"Homework 7/Lecture 7/BirthdayPayouts.sol\":883:901  getTeammatesNumber */\n      tag_52\n        /* \"Homework 7/Lecture 7/BirthdayPayouts.sol\":883:903  getTeammatesNumber() */\n      jump\t// in\n    tag_63:\n        /* \"Homework 7/Lecture 7/BirthdayPayouts.sol\":883:907  getTeammatesNumber() > 0 */\n      gt\n        /* \"Homework 7/Lecture 7/BirthdayPayouts.sol\":875:940  require(getTeammatesNumber() > 0, \"No teammates in the database\") */\n      tag_64\n      jumpi\n      mload(0x40)\n      0x08c379a000000000000000000000000000000000000000000000000000000000\n      dup2\n      mstore\n      0x04\n      add\n      tag_65\n      swap1\n      tag_66\n      jump\t// in\n    tag_65:\n      mload(0x40)\n      dup1\n      swap2\n      sub\n      swap1\n      revert\n    tag_64:\n        /* \"Homework 7/Lecture 7/BirthdayPayouts.sol\":956:965  uint256 i */\n      0x00\n        /* \"Homework 7/Lecture 7/BirthdayPayouts.sol\":951:1202  for (uint256 i = 0; i < getTeammatesNumber(); i++) {... */\n    tag_67:\n        /* \"Homework 7/Lecture 7/BirthdayPayouts.sol\":975:995  getTeammatesNumber() */\n      tag_70\n        /* \"Homework 7/Lecture 7/BirthdayPayouts.sol\":975:993  getTeammatesNumber */\n      tag_52\n        /* \"Homework 7/Lecture 7/BirthdayPayouts.sol\":975:995  getTeammatesNumber() */\n      jump\t// in\n    tag_70:\n        /* \"Homework 7/Lecture 7/BirthdayPayouts.sol\":971:972  i */\n      dup2\n        /* \"Homework 7/Lecture 7/BirthdayPayouts.sol\":971:995  i < getTeammatesNumber() */\n      lt\n        /* \"Homework 7/Lecture 7/BirthdayPayouts.sol\":951:1202  for (uint256 i = 0; i < getTeammatesNumber(); i++) {... */\n      iszero\n      tag_68\n      jumpi\n        /* \"Homework 7/Lecture 7/BirthdayPayouts.sol\":1020:1036  checkBirthday(i) */\n      tag_71\n        /* \"Homework 7/Lecture 7/BirthdayPayouts.sol\":1034:1035  i */\n      dup2\n        /* \"Homework 7/Lecture 7/BirthdayPayouts.sol\":1020:1033  checkBirthday */\n      tag_35\n        /* \"Homework 7/Lecture 7/BirthdayPayouts.sol\":1020:1036  checkBirthday(i) */\n      jump\t// in\n    tag_71:\n        /* \"Homework 7/Lecture 7/BirthdayPayouts.sol\":1020:1078  checkBirthday(i) && !_receivedGifts[_teammates[i].account] */\n      dup1\n      iszero\n      tag_72\n      jumpi\n      pop\n        /* \"Homework 7/Lecture 7/BirthdayPayouts.sol\":1041:1055  _receivedGifts */\n      0x03\n        /* \"Homework 7/Lecture 7/BirthdayPayouts.sol\":1041:1078  _receivedGifts[_teammates[i].account] */\n      0x00\n        /* \"Homework 7/Lecture 7/BirthdayPayouts.sol\":1056:1066  _teammates */\n      0x02\n        /* \"Homework 7/Lecture 7/BirthdayPayouts.sol\":1067:1068  i */\n      dup4\n        /* \"Homework 7/Lecture 7/BirthdayPayouts.sol\":1056:1069  _teammates[i] */\n      dup2\n      sload\n      dup2\n      lt\n      tag_73\n      jumpi\n      tag_74\n      tag_75\n      jump\t// in\n    tag_74:\n    tag_73:\n      swap1\n      0x00\n      mstore\n      keccak256(0x00, 0x20)\n      swap1\n      0x04\n      mul\n      add\n        /* \"Homework 7/Lecture 7/BirthdayPayouts.sol\":1056:1077  _teammates[i].account */\n      0x01\n      add\n      0x00\n      swap1\n      sload\n      swap1\n      0x0100\n      exp\n      swap1\n      div\n      0xffffffffffffffffffffffffffffffffffffffff\n      and\n        /* \"Homework 7/Lecture 7/BirthdayPayouts.sol\":1041:1078  _receivedGifts[_teammates[i].account] */\n      0xffffffffffffffffffffffffffffffffffffffff\n      and\n      0xffffffffffffffffffffffffffffffffffffffff\n      and\n      dup2\n      mstore\n      0x20\n      add\n      swap1\n      dup2\n      mstore\n      0x20\n      add\n      0x00\n      keccak256\n      0x00\n      swap1\n      sload\n      swap1\n      0x0100\n      exp\n      swap1\n      div\n      0xff\n      and\n        /* \"Homework 7/Lecture 7/BirthdayPayouts.sol\":1040:1078  !_receivedGifts[_teammates[i].account] */\n      iszero\n        /* \"Homework 7/Lecture 7/BirthdayPayouts.sol\":1020:1078  checkBirthday(i) && !_receivedGifts[_teammates[i].account] */\n    tag_72:\n        /* \"Homework 7/Lecture 7/BirthdayPayouts.sol\":1016:1192  if (checkBirthday(i) && !_receivedGifts[_teammates[i].account]) {... */\n      iszero\n      tag_77\n      jumpi\n        /* \"Homework 7/Lecture 7/BirthdayPayouts.sol\":1098:1115  birthdayPayout(i) */\n      tag_78\n        /* \"Homework 7/Lecture 7/BirthdayPayouts.sol\":1113:1114  i */\n      dup2\n        /* \"Homework 7/Lecture 7/BirthdayPayouts.sol\":1098:1112  birthdayPayout */\n      tag_79\n        /* \"Homework 7/Lecture 7/BirthdayPayouts.sol\":1098:1115  birthdayPayout(i) */\n      jump\t// in\n    tag_78:\n        /* \"Homework 7/Lecture 7/BirthdayPayouts.sol\":1173:1177  true */\n      0x01\n        /* \"Homework 7/Lecture 7/BirthdayPayouts.sol\":1133:1147  _receivedGifts */\n      0x03\n        /* \"Homework 7/Lecture 7/BirthdayPayouts.sol\":1133:1170  _receivedGifts[_teammates[i].account] */\n      0x00\n        /* \"Homework 7/Lecture 7/BirthdayPayouts.sol\":1148:1158  _teammates */\n      0x02\n        /* \"Homework 7/Lecture 7/BirthdayPayouts.sol\":1159:1160  i */\n      dup5\n        /* \"Homework 7/Lecture 7/BirthdayPayouts.sol\":1148:1161  _teammates[i] */\n      dup2\n      sload\n      dup2\n      lt\n      tag_80\n      jumpi\n      tag_81\n      tag_75\n      jump\t// in\n    tag_81:\n    tag_80:\n      swap1\n      0x00\n      mstore\n      keccak256(0x00, 0x20)\n      swap1\n      0x04\n      mul\n      add\n        /* \"Homework 7/Lecture 7/BirthdayPayouts.sol\":1148:1169  _teammates[i].account */\n      0x01\n      add\n      0x00\n      swap1\n      sload\n      swap1\n      0x0100\n      exp\n      swap1\n      div\n      0xffffffffffffffffffffffffffffffffffffffff\n      and\n        /* \"Homework 7/Lecture 7/BirthdayPayouts.sol\":1133:1170  _receivedGifts[_teammates[i].account] */\n      0xffffffffffffffffffffffffffffffffffffffff\n      and\n      0xffffffffffffffffffffffffffffffffffffffff\n      and\n      dup2\n      mstore\n      0x20\n      add\n      swap1\n      dup2\n      mstore\n      0x20\n      add\n      0x00\n      keccak256\n      0x00\n        /* \"Homework 7/Lecture 7/BirthdayPayouts.sol\":1133:1177  _receivedGifts[_teammates[i].account] = true */\n      0x0100\n      exp\n      dup2\n      sload\n      dup2\n      0xff\n      mul\n      not\n      and\n      swap1\n      dup4\n      iszero\n      iszero\n      mul\n      or\n      swap1\n      sstore\n      pop\n        /* \"Homework 7/Lecture 7/BirthdayPayouts.sol\":1016:1192  if (checkBirthday(i) && !_receivedGifts[_teammates[i].account]) {... */\n    tag_77:\n        /* \"Homework 7/Lecture 7/BirthdayPayouts.sol\":997:1000  i++ */\n      dup1\n      dup1\n      tag_83\n      swap1\n      tag_84\n      jump\t// in\n    tag_83:\n      swap2\n      pop\n      pop\n        /* \"Homework 7/Lecture 7/BirthdayPayouts.sol\":951:1202  for (uint256 i = 0; i < getTeammatesNumber(); i++) {... */\n      jump(tag_67)\n    tag_68:\n      pop\n        /* \"Homework 7/Lecture 7/BirthdayPayouts.sol\":824:1208  function findBirthday() public onlyOwner {... */\n      jump\t// out\n        /* \"Homework 7/Lecture 7/BirthdayPayouts.sol\":2348:2440  function getTeam() view public returns(Teammate[] memory){... */\n    tag_24:\n        /* \"Homework 7/Lecture 7/BirthdayPayouts.sol\":2387:2404  Teammate[] memory */\n      0x60\n        /* \"Homework 7/Lecture 7/BirthdayPayouts.sol\":2423:2433  _teammates */\n      0x02\n        /* \"Homework 7/Lecture 7/BirthdayPayouts.sol\":2415:2433  return  _teammates */\n      dup1\n      sload\n      dup1\n      0x20\n      mul\n      0x20\n      add\n      mload(0x40)\n      swap1\n      dup2\n      add\n      0x40\n      mstore\n      dup1\n      swap3\n      swap2\n      swap1\n      dup2\n      dup2\n      mstore\n      0x20\n      add\n      0x00\n      swap1\n    tag_86:\n      dup3\n      dup3\n      lt\n      iszero\n      tag_87\n      jumpi\n      dup4\n      dup3\n      swap1\n      0x00\n      mstore\n      keccak256(0x00, 0x20)\n      swap1\n      0x04\n      mul\n      add\n      mload(0x40)\n      dup1\n      0x80\n      add\n      0x40\n      mstore\n      swap1\n      dup2\n      0x00\n      dup3\n      add\n      dup1\n      sload\n      tag_89\n      swap1\n      tag_90\n      jump\t// in\n    tag_89:\n      dup1\n      0x1f\n      add\n      0x20\n      dup1\n      swap2\n      div\n      mul\n      0x20\n      add\n      mload(0x40)\n      swap1\n      dup2\n      add\n      0x40\n      mstore\n      dup1\n      swap3\n      swap2\n      swap1\n      dup2\n      dup2\n      mstore\n      0x20\n      add\n      dup3\n      dup1\n      sload\n      tag_91\n      swap1\n      tag_90\n      jump\t// in\n    tag_91:\n      dup1\n      iszero\n      tag_92\n      jumpi\n      dup1\n      0x1f\n      lt\n      tag_93\n      jumpi\n      0x0100\n      dup1\n      dup4\n      sload\n      div\n      mul\n      dup4\n      mstore\n      swap2\n      0x20\n      add\n      swap2\n      jump(tag_92)\n    tag_93:\n      dup3\n      add\n      swap2\n      swap1\n      0x00\n      mstore\n      keccak256(0x00, 0x20)\n      swap1\n    tag_94:\n      dup2\n      sload\n      dup2\n      mstore\n      swap1\n      0x01\n      add\n      swap1\n      0x20\n      add\n      dup1\n      dup4\n      gt\n      tag_94\n      jumpi\n      dup3\n      swap1\n      sub\n      0x1f\n      and\n      dup3\n      add\n      swap2\n    tag_92:\n      pop\n      pop\n      pop\n      pop\n      pop\n      dup2\n      mstore\n      0x20\n      add\n      0x01\n      dup3\n      add\n      0x00\n      swap1\n      sload\n      swap1\n      0x0100\n      exp\n      swap1\n      div\n      0xffffffffffffffffffffffffffffffffffffffff\n      and\n      0xffffffffffffffffffffffffffffffffffffffff\n      and\n      0xffffffffffffffffffffffffffffffffffffffff\n      and\n      dup2\n      mstore\n      0x20\n      add\n      0x02\n      dup3\n      add\n      sload\n      dup2\n      mstore\n      0x20\n      add\n      0x03\n      dup3\n      add\n      sload\n      dup2\n      mstore\n      pop\n      pop\n      dup2\n      mstore\n      0x20\n      add\n      swap1\n      0x01\n      add\n      swap1\n      jump(tag_86)\n    tag_87:\n      pop\n      pop\n      pop\n      pop\n      swap1\n      pop\n        /* \"Homework 7/Lecture 7/BirthdayPayouts.sol\":2348:2440  function getTeam() view public returns(Teammate[] memory){... */\n      swap1\n      jump\t// out\n        /* \"Homework 7/Lecture 7/BirthdayPayouts.sol\":480:818  function addTeammate(address account, string memory name, uint256 salary, uint256 birthday) public onlyOwner {... */\n    tag_31:\n        /* \"Homework 7/Lecture 7/BirthdayPayouts.sol\":2797:2803  _owner */\n      0x01\n      0x00\n      swap1\n      sload\n      swap1\n      0x0100\n      exp\n      swap1\n      div\n      0xffffffffffffffffffffffffffffffffffffffff\n      and\n        /* \"Homework 7/Lecture 7/BirthdayPayouts.sol\":2783:2803  msg.sender == _owner */\n      0xffffffffffffffffffffffffffffffffffffffff\n      and\n        /* \"Homework 7/Lecture 7/BirthdayPayouts.sol\":2783:2793  msg.sender */\n      caller\n        /* \"Homework 7/Lecture 7/BirthdayPayouts.sol\":2783:2803  msg.sender == _owner */\n      0xffffffffffffffffffffffffffffffffffffffff\n      and\n      eq\n        /* \"Homework 7/Lecture 7/BirthdayPayouts.sol\":2775:2846  require(msg.sender == _owner, \"Sender should be the owner of contract\") */\n      tag_96\n      jumpi\n      mload(0x40)\n      0x08c379a000000000000000000000000000000000000000000000000000000000\n      dup2\n      mstore\n      0x04\n      add\n      tag_97\n      swap1\n      tag_61\n      jump\t// in\n    tag_97:\n      mload(0x40)\n      dup1\n      swap2\n      sub\n      swap1\n      revert\n    tag_96:\n        /* \"Homework 7/Lecture 7/BirthdayPayouts.sol\":621:628  account */\n      dup4\n        /* \"Homework 7/Lecture 7/BirthdayPayouts.sol\":607:628  msg.sender != account */\n      0xffffffffffffffffffffffffffffffffffffffff\n      and\n        /* \"Homework 7/Lecture 7/BirthdayPayouts.sol\":607:617  msg.sender */\n      caller\n        /* \"Homework 7/Lecture 7/BirthdayPayouts.sol\":607:628  msg.sender != account */\n      0xffffffffffffffffffffffffffffffffffffffff\n      and\n      sub\n        /* \"Homework 7/Lecture 7/BirthdayPayouts.sol\":599:651  require(msg.sender != account, \"Cannot add oneself\") */\n      tag_99\n      jumpi\n      mload(0x40)\n      0x08c379a000000000000000000000000000000000000000000000000000000000\n      dup2\n      mstore\n      0x04\n      add\n      tag_100\n      swap1\n      tag_101\n      jump\t// in\n    tag_100:\n      mload(0x40)\n      dup1\n      swap2\n      sub\n      swap1\n      revert\n    tag_99:\n        /* \"Homework 7/Lecture 7/BirthdayPayouts.sol\":661:688  Teammate memory newTeammate */\n      0x00\n        /* \"Homework 7/Lecture 7/BirthdayPayouts.sol\":691:732  Teammate(name, account, salary, birthday) */\n      mload(0x40)\n      dup1\n      0x80\n      add\n      0x40\n      mstore\n      dup1\n        /* \"Homework 7/Lecture 7/BirthdayPayouts.sol\":700:704  name */\n      dup6\n        /* \"Homework 7/Lecture 7/BirthdayPayouts.sol\":691:732  Teammate(name, account, salary, birthday) */\n      dup2\n      mstore\n      0x20\n      add\n        /* \"Homework 7/Lecture 7/BirthdayPayouts.sol\":706:713  account */\n      dup7\n        /* \"Homework 7/Lecture 7/BirthdayPayouts.sol\":691:732  Teammate(name, account, salary, birthday) */\n      0xffffffffffffffffffffffffffffffffffffffff\n      and\n      dup2\n      mstore\n      0x20\n      add\n        /* \"Homework 7/Lecture 7/BirthdayPayouts.sol\":715:721  salary */\n      dup5\n        /* \"Homework 7/Lecture 7/BirthdayPayouts.sol\":691:732  Teammate(name, account, salary, birthday) */\n      dup2\n      mstore\n      0x20\n      add\n        /* \"Homework 7/Lecture 7/BirthdayPayouts.sol\":723:731  birthday */\n      dup4\n        /* \"Homework 7/Lecture 7/BirthdayPayouts.sol\":691:732  Teammate(name, account, salary, birthday) */\n      dup2\n      mstore\n      pop\n        /* \"Homework 7/Lecture 7/BirthdayPayouts.sol\":661:732  Teammate memory newTeammate = Teammate(name, account, salary, birthday) */\n      swap1\n      pop\n        /* \"Homework 7/Lecture 7/BirthdayPayouts.sol\":742:752  _teammates */\n      0x02\n        /* \"Homework 7/Lecture 7/BirthdayPayouts.sol\":758:769  newTeammate */\n      dup2\n        /* \"Homework 7/Lecture 7/BirthdayPayouts.sol\":742:770  _teammates.push(newTeammate) */\n      swap1\n      dup1\n      0x01\n      dup2\n      sload\n      add\n      dup1\n      dup3\n      sstore\n      dup1\n      swap2\n      pop\n      pop\n      0x01\n      swap1\n      sub\n      swap1\n      0x00\n      mstore\n      keccak256(0x00, 0x20)\n      swap1\n      0x04\n      mul\n      add\n      0x00\n      swap1\n      swap2\n      swap1\n      swap2\n      swap1\n      swap2\n      pop\n      0x00\n      dup3\n      add\n      mload\n      dup2\n      0x00\n      add\n      swap1\n      dup2\n      tag_103\n      swap2\n      swap1\n      tag_104\n      jump\t// in\n    tag_103:\n      pop\n      0x20\n      dup3\n      add\n      mload\n      dup2\n      0x01\n      add\n      exp(0x0100, 0x00)\n      dup2\n      sload\n      dup2\n      0xffffffffffffffffffffffffffffffffffffffff\n      mul\n      not\n      and\n      swap1\n      dup4\n      0xffffffffffffffffffffffffffffffffffffffff\n      and\n      mul\n      or\n      swap1\n      sstore\n      pop\n      0x40\n      dup3\n      add\n      mload\n      dup2\n      0x02\n      add\n      sstore\n      0x60\n      dup3\n      add\n      mload\n      dup2\n      0x03\n      add\n      sstore\n      pop\n      pop\n        /* \"Homework 7/Lecture 7/BirthdayPayouts.sol\":785:811  NewTeammate(account, name) */\n      0xb65d8bfcef952b3294e73c2789abe3fed15b1c3c8ef208d6bb8514e85093953b\n        /* \"Homework 7/Lecture 7/BirthdayPayouts.sol\":797:804  account */\n      dup6\n        /* \"Homework 7/Lecture 7/BirthdayPayouts.sol\":806:810  name */\n      dup6\n        /* \"Homework 7/Lecture 7/BirthdayPayouts.sol\":785:811  NewTeammate(account, name) */\n      mload(0x40)\n      tag_105\n      swap3\n      swap2\n      swap1\n      tag_106\n      jump\t// in\n    tag_105:\n      mload(0x40)\n      dup1\n      swap2\n      sub\n      swap1\n      log1\n        /* \"Homework 7/Lecture 7/BirthdayPayouts.sol\":589:818  {... */\n      pop\n        /* \"Homework 7/Lecture 7/BirthdayPayouts.sol\":480:818  function addTeammate(address account, string memory name, uint256 salary, uint256 birthday) public onlyOwner {... */\n      pop\n      pop\n      pop\n      pop\n      jump\t// out\n        /* \"Homework 7/Lecture 7/BirthdayPayouts.sol\":1581:2223  function checkBirthday(uint256 index) view public returns(bool){... */\n    tag_35:\n        /* \"Homework 7/Lecture 7/BirthdayPayouts.sol\":1639:1643  bool */\n      0x00\n        /* \"Homework 7/Lecture 7/BirthdayPayouts.sol\":1856:1872  uint256 birthday */\n      dup1\n        /* \"Homework 7/Lecture 7/BirthdayPayouts.sol\":1875:1893  getTeammate(index) */\n      tag_108\n        /* \"Homework 7/Lecture 7/BirthdayPayouts.sol\":1887:1892  index */\n      dup4\n        /* \"Homework 7/Lecture 7/BirthdayPayouts.sol\":1875:1886  getTeammate */\n      tag_47\n        /* \"Homework 7/Lecture 7/BirthdayPayouts.sol\":1875:1893  getTeammate(index) */\n      jump\t// in\n    tag_108:\n        /* \"Homework 7/Lecture 7/BirthdayPayouts.sol\":1875:1902  getTeammate(index).birthday */\n      0x60\n      add\n      mload\n        /* \"Homework 7/Lecture 7/BirthdayPayouts.sol\":1856:1902  uint256 birthday = getTeammate(index).birthday */\n      swap1\n      pop\n        /* \"Homework 7/Lecture 7/BirthdayPayouts.sol\":1915:1937  uint256 birthday_month */\n      0x00\n        /* \"Homework 7/Lecture 7/BirthdayPayouts.sol\":1938:1958  uint256 birthday_day */\n      dup1\n        /* \"Homework 7/Lecture 7/BirthdayPayouts.sol\":1962:1979  getDate(birthday) */\n      tag_109\n        /* \"Homework 7/Lecture 7/BirthdayPayouts.sol\":1970:1978  birthday */\n      dup4\n        /* \"Homework 7/Lecture 7/BirthdayPayouts.sol\":1962:1969  getDate */\n      tag_16\n        /* \"Homework 7/Lecture 7/BirthdayPayouts.sol\":1962:1979  getDate(birthday) */\n      jump\t// in\n    tag_109:\n        /* \"Homework 7/Lecture 7/BirthdayPayouts.sol\":1912:1979  (, uint256 birthday_month,uint256 birthday_day) = getDate(birthday) */\n      swap3\n      pop\n      swap3\n      pop\n      pop\n        /* \"Homework 7/Lecture 7/BirthdayPayouts.sol\":1989:2002  uint256 today */\n      0x00\n        /* \"Homework 7/Lecture 7/BirthdayPayouts.sol\":2005:2020  block.timestamp */\n      timestamp\n        /* \"Homework 7/Lecture 7/BirthdayPayouts.sol\":1989:2020  uint256 today = block.timestamp */\n      swap1\n      pop\n        /* \"Homework 7/Lecture 7/BirthdayPayouts.sol\":2033:2052  uint256 today_month */\n      0x00\n        /* \"Homework 7/Lecture 7/BirthdayPayouts.sol\":2053:2070  uint256 today_day */\n      dup1\n        /* \"Homework 7/Lecture 7/BirthdayPayouts.sol\":2074:2088  getDate(today) */\n      tag_110\n        /* \"Homework 7/Lecture 7/BirthdayPayouts.sol\":2082:2087  today */\n      dup4\n        /* \"Homework 7/Lecture 7/BirthdayPayouts.sol\":2074:2081  getDate */\n      tag_16\n        /* \"Homework 7/Lecture 7/BirthdayPayouts.sol\":2074:2088  getDate(today) */\n      jump\t// in\n    tag_110:\n        /* \"Homework 7/Lecture 7/BirthdayPayouts.sol\":2030:2088  (, uint256 today_month,uint256 today_day) = getDate(today) */\n      swap3\n      pop\n      swap3\n      pop\n      pop\n        /* \"Homework 7/Lecture 7/BirthdayPayouts.sol\":2118:2127  today_day */\n      dup1\n        /* \"Homework 7/Lecture 7/BirthdayPayouts.sol\":2102:2114  birthday_day */\n      dup5\n        /* \"Homework 7/Lecture 7/BirthdayPayouts.sol\":2102:2127  birthday_day == today_day */\n      eq\n        /* \"Homework 7/Lecture 7/BirthdayPayouts.sol\":2102:2158  birthday_day == today_day && birthday_month==today_month */\n      dup1\n      iszero\n      tag_111\n      jumpi\n      pop\n        /* \"Homework 7/Lecture 7/BirthdayPayouts.sol\":2147:2158  today_month */\n      dup2\n        /* \"Homework 7/Lecture 7/BirthdayPayouts.sol\":2131:2145  birthday_month */\n      dup6\n        /* \"Homework 7/Lecture 7/BirthdayPayouts.sol\":2131:2158  birthday_month==today_month */\n      eq\n        /* \"Homework 7/Lecture 7/BirthdayPayouts.sol\":2102:2158  birthday_day == today_day && birthday_month==today_month */\n    tag_111:\n        /* \"Homework 7/Lecture 7/BirthdayPayouts.sol\":2099:2195  if(birthday_day == today_day && birthday_month==today_month){... */\n      iszero\n      tag_112\n      jumpi\n        /* \"Homework 7/Lecture 7/BirthdayPayouts.sol\":2180:2184  true */\n      0x01\n        /* \"Homework 7/Lecture 7/BirthdayPayouts.sol\":2173:2184  return true */\n      swap7\n      pop\n      pop\n      pop\n      pop\n      pop\n      pop\n      pop\n      jump(tag_107)\n        /* \"Homework 7/Lecture 7/BirthdayPayouts.sol\":2099:2195  if(birthday_day == today_day && birthday_month==today_month){... */\n    tag_112:\n        /* \"Homework 7/Lecture 7/BirthdayPayouts.sol\":2211:2216  false */\n      0x00\n        /* \"Homework 7/Lecture 7/BirthdayPayouts.sol\":2204:2216  return false */\n      swap7\n      pop\n      pop\n      pop\n      pop\n      pop\n      pop\n      pop\n        /* \"Homework 7/Lecture 7/BirthdayPayouts.sol\":1581:2223  function checkBirthday(uint256 index) view public returns(bool){... */\n    tag_107:\n      swap2\n      swap1\n      pop\n      jump\t// out\n        /* \"Homework 7/Lecture 7/BirthdayPayouts.sol\":2698:2739  function deposit() public payable{... */\n    tag_39:\n      jump\t// out\n        /* \"Homework 7/Lecture 7/BirthdayPayouts.sol\":2551:2692  function sendToTeammate(uint256 index) public onlyOwner{... */\n    tag_43:\n        /* \"Homework 7/Lecture 7/BirthdayPayouts.sol\":2797:2803  _owner */\n      0x01\n      0x00\n      swap1\n      sload\n      swap1\n      0x0100\n      exp\n      swap1\n      div\n      0xffffffffffffffffffffffffffffffffffffffff\n      and\n        /* \"Homework 7/Lecture 7/BirthdayPayouts.sol\":2783:2803  msg.sender == _owner */\n      0xffffffffffffffffffffffffffffffffffffffff\n      and\n        /* \"Homework 7/Lecture 7/BirthdayPayouts.sol\":2783:2793  msg.sender */\n      caller\n        /* \"Homework 7/Lecture 7/BirthdayPayouts.sol\":2783:2803  msg.sender == _owner */\n      0xffffffffffffffffffffffffffffffffffffffff\n      and\n      eq\n        /* \"Homework 7/Lecture 7/BirthdayPayouts.sol\":2775:2846  require(msg.sender == _owner, \"Sender should be the owner of contract\") */\n      tag_115\n      jumpi\n      mload(0x40)\n      0x08c379a000000000000000000000000000000000000000000000000000000000\n      dup2\n      mstore\n      0x04\n      add\n      tag_116\n      swap1\n      tag_61\n      jump\t// in\n    tag_116:\n      mload(0x40)\n      dup1\n      swap2\n      sub\n      swap1\n      revert\n    tag_115:\n        /* \"Homework 7/Lecture 7/BirthdayPayouts.sol\":2624:2634  _teammates */\n      0x02\n        /* \"Homework 7/Lecture 7/BirthdayPayouts.sol\":2635:2640  index */\n      dup2\n        /* \"Homework 7/Lecture 7/BirthdayPayouts.sol\":2624:2641  _teammates[index] */\n      dup2\n      sload\n      dup2\n      lt\n      tag_118\n      jumpi\n      tag_119\n      tag_75\n      jump\t// in\n    tag_119:\n    tag_118:\n      swap1\n      0x00\n      mstore\n      keccak256(0x00, 0x20)\n      swap1\n      0x04\n      mul\n      add\n        /* \"Homework 7/Lecture 7/BirthdayPayouts.sol\":2624:2649  _teammates[index].account */\n      0x01\n      add\n      0x00\n      swap1\n      sload\n      swap1\n      0x0100\n      exp\n      swap1\n      div\n      0xffffffffffffffffffffffffffffffffffffffff\n      and\n        /* \"Homework 7/Lecture 7/BirthdayPayouts.sol\":2616:2659  payable(_teammates[index].account).transfer */\n      0xffffffffffffffffffffffffffffffffffffffff\n      and\n        /* \"Homework 7/Lecture 7/BirthdayPayouts.sol\":2616:2685  payable(_teammates[index].account).transfer(_teammates[index].salary) */\n      0x08fc\n        /* \"Homework 7/Lecture 7/BirthdayPayouts.sol\":2660:2670  _teammates */\n      0x02\n        /* \"Homework 7/Lecture 7/BirthdayPayouts.sol\":2671:2676  index */\n      dup4\n        /* \"Homework 7/Lecture 7/BirthdayPayouts.sol\":2660:2677  _teammates[index] */\n      dup2\n      sload\n      dup2\n      lt\n      tag_121\n      jumpi\n      tag_122\n      tag_75\n      jump\t// in\n    tag_122:\n    tag_121:\n      swap1\n      0x00\n      mstore\n      keccak256(0x00, 0x20)\n      swap1\n      0x04\n      mul\n      add\n        /* \"Homework 7/Lecture 7/BirthdayPayouts.sol\":2660:2684  _teammates[index].salary */\n      0x02\n      add\n      sload\n        /* \"Homework 7/Lecture 7/BirthdayPayouts.sol\":2616:2685  payable(_teammates[index].account).transfer(_teammates[index].salary) */\n      swap1\n      dup2\n      iszero\n      mul\n      swap1\n      mload(0x40)\n      0x00\n      mload(0x40)\n      dup1\n      dup4\n      sub\n      dup2\n      dup6\n      dup9\n      dup9\n      call\n      swap4\n      pop\n      pop\n      pop\n      pop\n      iszero\n      dup1\n      iszero\n      tag_125\n      jumpi\n      returndatasize\n      0x00\n      dup1\n      returndatacopy\n      revert(0x00, returndatasize)\n    tag_125:\n      pop\n        /* \"Homework 7/Lecture 7/BirthdayPayouts.sol\":2551:2692  function sendToTeammate(uint256 index) public onlyOwner{... */\n      pop\n      jump\t// out\n        /* \"Homework 7/Lecture 7/BirthdayPayouts.sol\":2229:2342  function getTeammate(uint256 index) view public returns(Teammate memory){... */\n    tag_47:\n        /* \"Homework 7/Lecture 7/BirthdayPayouts.sol\":2285:2300  Teammate memory */\n      tag_126\n      tag_127\n      jump\t// in\n    tag_126:\n        /* \"Homework 7/Lecture 7/BirthdayPayouts.sol\":2318:2328  _teammates */\n      0x02\n        /* \"Homework 7/Lecture 7/BirthdayPayouts.sol\":2329:2334  index */\n      dup3\n        /* \"Homework 7/Lecture 7/BirthdayPayouts.sol\":2318:2335  _teammates[index] */\n      dup2\n      sload\n      dup2\n      lt\n      tag_129\n      jumpi\n      tag_130\n      tag_75\n      jump\t// in\n    tag_130:\n    tag_129:\n      swap1\n      0x00\n      mstore\n      keccak256(0x00, 0x20)\n      swap1\n      0x04\n      mul\n      add\n        /* \"Homework 7/Lecture 7/BirthdayPayouts.sol\":2311:2335  return _teammates[index] */\n      mload(0x40)\n      dup1\n      0x80\n      add\n      0x40\n      mstore\n      swap1\n      dup2\n      0x00\n      dup3\n      add\n      dup1\n      sload\n      tag_132\n      swap1\n      tag_90\n      jump\t// in\n    tag_132:\n      dup1\n      0x1f\n      add\n      0x20\n      dup1\n      swap2\n      div\n      mul\n      0x20\n      add\n      mload(0x40)\n      swap1\n      dup2\n      add\n      0x40\n      mstore\n      dup1\n      swap3\n      swap2\n      swap1\n      dup2\n      dup2\n      mstore\n      0x20\n      add\n      dup3\n      dup1\n      sload\n      tag_133\n      swap1\n      tag_90\n      jump\t// in\n    tag_133:\n      dup1\n      iszero\n      tag_134\n      jumpi\n      dup1\n      0x1f\n      lt\n      tag_135\n      jumpi\n      0x0100\n      dup1\n      dup4\n      sload\n      div\n      mul\n      dup4\n      mstore\n      swap2\n      0x20\n      add\n      swap2\n      jump(tag_134)\n    tag_135:\n      dup3\n      add\n      swap2\n      swap1\n      0x00\n      mstore\n      keccak256(0x00, 0x20)\n      swap1\n    tag_136:\n      dup2\n      sload\n      dup2\n      mstore\n      swap1\n      0x01\n      add\n      swap1\n      0x20\n      add\n      dup1\n      dup4\n      gt\n      tag_136\n      jumpi\n      dup3\n      swap1\n      sub\n      0x1f\n      and\n      dup3\n      add\n      swap2\n    tag_134:\n      pop\n      pop\n      pop\n      pop\n      pop\n      dup2\n      mstore\n      0x20\n      add\n      0x01\n      dup3\n      add\n      0x00\n      swap1\n      sload\n      swap1\n      0x0100\n      exp\n      swap1\n      div\n      0xffffffffffffffffffffffffffffffffffffffff\n      and\n      0xffffffffffffffffffffffffffffffffffffffff\n      and\n      0xffffffffffffffffffffffffffffffffffffffff\n      and\n      dup2\n      mstore\n      0x20\n      add\n      0x02\n      dup3\n      add\n      sload\n      dup2\n      mstore\n      0x20\n      add\n      0x03\n      dup3\n      add\n      sload\n      dup2\n      mstore\n      pop\n      pop\n      swap1\n      pop\n        /* \"Homework 7/Lecture 7/BirthdayPayouts.sol\":2229:2342  function getTeammate(uint256 index) view public returns(Teammate memory){... */\n      swap2\n      swap1\n      pop\n      jump\t// out\n        /* \"Homework 7/Lecture 7/BirthdayPayouts.sol\":2446:2545  function getTeammatesNumber() view public returns(uint256){... */\n    tag_52:\n        /* \"Homework 7/Lecture 7/BirthdayPayouts.sol\":2496:2503  uint256 */\n      0x00\n        /* \"Homework 7/Lecture 7/BirthdayPayouts.sol\":2521:2531  _teammates */\n      0x02\n        /* \"Homework 7/Lecture 7/BirthdayPayouts.sol\":2521:2538  _teammates.length */\n      dup1\n      sload\n      swap1\n      pop\n        /* \"Homework 7/Lecture 7/BirthdayPayouts.sol\":2514:2538  return _teammates.length */\n      swap1\n      pop\n        /* \"Homework 7/Lecture 7/BirthdayPayouts.sol\":2446:2545  function getTeammatesNumber() view public returns(uint256){... */\n      swap1\n      jump\t// out\n        /* \"Homework 7/Lecture 7/BokkyPooBahsDateTimeLibrary.sol\":4175:4344  function timestampToDate(uint timestamp) internal pure returns (uint year, uint month, uint day) {... */\n    tag_57:\n        /* \"Homework 7/Lecture 7/BokkyPooBahsDateTimeLibrary.sol\":4239:4248  uint year */\n      0x00\n        /* \"Homework 7/Lecture 7/BokkyPooBahsDateTimeLibrary.sol\":4250:4260  uint month */\n      dup1\n        /* \"Homework 7/Lecture 7/BokkyPooBahsDateTimeLibrary.sol\":4262:4270  uint day */\n      0x00\n        /* \"Homework 7/Lecture 7/BokkyPooBahsDateTimeLibrary.sol\":4299:4339  _daysToDate(timestamp / SECONDS_PER_DAY) */\n      tag_139\n        /* \"Homework 7/Lecture 7/BokkyPooBahsDateTimeLibrary.sol\":1024:1036  24 * 60 * 60 */\n      0x015180\n        /* \"Homework 7/Lecture 7/BokkyPooBahsDateTimeLibrary.sol\":4311:4320  timestamp */\n      dup6\n        /* \"Homework 7/Lecture 7/BokkyPooBahsDateTimeLibrary.sol\":4311:4338  timestamp / SECONDS_PER_DAY */\n      tag_140\n      swap2\n      swap1\n      tag_141\n      jump\t// in\n    tag_140:\n        /* \"Homework 7/Lecture 7/BokkyPooBahsDateTimeLibrary.sol\":4299:4310  _daysToDate */\n      tag_142\n        /* \"Homework 7/Lecture 7/BokkyPooBahsDateTimeLibrary.sol\":4299:4339  _daysToDate(timestamp / SECONDS_PER_DAY) */\n      jump\t// in\n    tag_139:\n        /* \"Homework 7/Lecture 7/BokkyPooBahsDateTimeLibrary.sol\":4278:4339  (year, month, day) = _daysToDate(timestamp / SECONDS_PER_DAY) */\n      dup1\n      swap4\n      pop\n      dup2\n      swap5\n      pop\n      dup3\n      swap6\n      pop\n      pop\n      pop\n      pop\n        /* \"Homework 7/Lecture 7/BokkyPooBahsDateTimeLibrary.sol\":4175:4344  function timestampToDate(uint timestamp) internal pure returns (uint year, uint month, uint day) {... */\n      swap2\n      swap4\n      swap1\n      swap3\n      pop\n      jump\t// out\n        /* \"Homework 7/Lecture 7/BirthdayPayouts.sol\":1214:1378  function birthdayPayout(uint256 index) private {... */\n    tag_79:\n        /* \"Homework 7/Lecture 7/BirthdayPayouts.sol\":1271:1292  sendToTeammate(index) */\n      tag_144\n        /* \"Homework 7/Lecture 7/BirthdayPayouts.sol\":1286:1291  index */\n      dup2\n        /* \"Homework 7/Lecture 7/BirthdayPayouts.sol\":1271:1285  sendToTeammate */\n      tag_43\n        /* \"Homework 7/Lecture 7/BirthdayPayouts.sol\":1271:1292  sendToTeammate(index) */\n      jump\t// in\n    tag_144:\n        /* \"Homework 7/Lecture 7/BirthdayPayouts.sol\":1307:1371  HappyBirthday(_teammates[index].name, _teammates[index].account) */\n      0x65a65434d5fc8d211d6b6da7e78302ee4047a9fc73f3737f34117dbfb5fe0e15\n        /* \"Homework 7/Lecture 7/BirthdayPayouts.sol\":1321:1331  _teammates */\n      0x02\n        /* \"Homework 7/Lecture 7/BirthdayPayouts.sol\":1332:1337  index */\n      dup3\n        /* \"Homework 7/Lecture 7/BirthdayPayouts.sol\":1321:1338  _teammates[index] */\n      dup2\n      sload\n      dup2\n      lt\n      tag_145\n      jumpi\n      tag_146\n      tag_75\n      jump\t// in\n    tag_146:\n    tag_145:\n      swap1\n      0x00\n      mstore\n      keccak256(0x00, 0x20)\n      swap1\n      0x04\n      mul\n      add\n        /* \"Homework 7/Lecture 7/BirthdayPayouts.sol\":1321:1343  _teammates[index].name */\n      0x00\n      add\n        /* \"Homework 7/Lecture 7/BirthdayPayouts.sol\":1345:1355  _teammates */\n      0x02\n        /* \"Homework 7/Lecture 7/BirthdayPayouts.sol\":1356:1361  index */\n      dup4\n        /* \"Homework 7/Lecture 7/BirthdayPayouts.sol\":1345:1362  _teammates[index] */\n      dup2\n      sload\n      dup2\n      lt\n      tag_148\n      jumpi\n      tag_149\n      tag_75\n      jump\t// in\n    tag_149:\n    tag_148:\n      swap1\n      0x00\n      mstore\n      keccak256(0x00, 0x20)\n      swap1\n      0x04\n      mul\n      add\n        /* \"Homework 7/Lecture 7/BirthdayPayouts.sol\":1345:1370  _teammates[index].account */\n      0x01\n      add\n      0x00\n      swap1\n      sload\n      swap1\n      0x0100\n      exp\n      swap1\n      div\n      0xffffffffffffffffffffffffffffffffffffffff\n      and\n        /* \"Homework 7/Lecture 7/BirthdayPayouts.sol\":1307:1371  HappyBirthday(_teammates[index].name, _teammates[index].account) */\n      mload(0x40)\n      tag_151\n      swap3\n      swap2\n      swap1\n      tag_152\n      jump\t// in\n    tag_151:\n      mload(0x40)\n      dup1\n      swap2\n      sub\n      swap1\n      log1\n        /* \"Homework 7/Lecture 7/BirthdayPayouts.sol\":1214:1378  function birthdayPayout(uint256 index) private {... */\n      pop\n      jump\t// out\n        /* \"Homework 7/Lecture 7/BokkyPooBahsDateTimeLibrary.sol\":3170:3717  function _daysToDate(uint _days) internal pure returns (uint year, uint month, uint day) {... */\n    tag_142:\n        /* \"Homework 7/Lecture 7/BokkyPooBahsDateTimeLibrary.sol\":3226:3235  uint year */\n      0x00\n        /* \"Homework 7/Lecture 7/BokkyPooBahsDateTimeLibrary.sol\":3237:3247  uint month */\n      dup1\n        /* \"Homework 7/Lecture 7/BokkyPooBahsDateTimeLibrary.sol\":3249:3257  uint day */\n      0x00\n        /* \"Homework 7/Lecture 7/BokkyPooBahsDateTimeLibrary.sol\":3265:3275  int __days */\n      dup1\n        /* \"Homework 7/Lecture 7/BokkyPooBahsDateTimeLibrary.sol\":3282:3287  _days */\n      dup5\n        /* \"Homework 7/Lecture 7/BokkyPooBahsDateTimeLibrary.sol\":3265:3288  int __days = int(_days) */\n      swap1\n      pop\n        /* \"Homework 7/Lecture 7/BokkyPooBahsDateTimeLibrary.sol\":3295:3300  int L */\n      0x00\n        /* \"Homework 7/Lecture 7/BokkyPooBahsDateTimeLibrary.sol\":1155:1162  2440588 */\n      0x253d8c\n        /* \"Homework 7/Lecture 7/BokkyPooBahsDateTimeLibrary.sol\":3312:3317  68569 */\n      0x010bd9\n        /* \"Homework 7/Lecture 7/BokkyPooBahsDateTimeLibrary.sol\":3303:3309  __days */\n      dup4\n        /* \"Homework 7/Lecture 7/BokkyPooBahsDateTimeLibrary.sol\":3303:3317  __days + 68569 */\n      tag_154\n      swap2\n      swap1\n      tag_155\n      jump\t// in\n    tag_154:\n        /* \"Homework 7/Lecture 7/BokkyPooBahsDateTimeLibrary.sol\":3303:3334  __days + 68569 + OFFSET19700101 */\n      tag_156\n      swap2\n      swap1\n      tag_155\n      jump\t// in\n    tag_156:\n        /* \"Homework 7/Lecture 7/BokkyPooBahsDateTimeLibrary.sol\":3295:3334  int L = __days + 68569 + OFFSET19700101 */\n      swap1\n      pop\n        /* \"Homework 7/Lecture 7/BokkyPooBahsDateTimeLibrary.sol\":3340:3345  int N */\n      0x00\n        /* \"Homework 7/Lecture 7/BokkyPooBahsDateTimeLibrary.sol\":3356:3362  146097 */\n      0x023ab1\n        /* \"Homework 7/Lecture 7/BokkyPooBahsDateTimeLibrary.sol\":3352:3353  L */\n      dup3\n        /* \"Homework 7/Lecture 7/BokkyPooBahsDateTimeLibrary.sol\":3348:3349  4 */\n      0x04\n        /* \"Homework 7/Lecture 7/BokkyPooBahsDateTimeLibrary.sol\":3348:3353  4 * L */\n      tag_157\n      swap2\n      swap1\n      tag_158\n      jump\t// in\n    tag_157:\n        /* \"Homework 7/Lecture 7/BokkyPooBahsDateTimeLibrary.sol\":3348:3362  4 * L / 146097 */\n      tag_159\n      swap2\n      swap1\n      tag_160\n      jump\t// in\n    tag_159:\n        /* \"Homework 7/Lecture 7/BokkyPooBahsDateTimeLibrary.sol\":3340:3362  int N = 4 * L / 146097 */\n      swap1\n      pop\n        /* \"Homework 7/Lecture 7/BokkyPooBahsDateTimeLibrary.sol\":3395:3396  4 */\n      0x04\n        /* \"Homework 7/Lecture 7/BokkyPooBahsDateTimeLibrary.sol\":3390:3391  3 */\n      0x03\n        /* \"Homework 7/Lecture 7/BokkyPooBahsDateTimeLibrary.sol\":3386:3387  N */\n      dup3\n        /* \"Homework 7/Lecture 7/BokkyPooBahsDateTimeLibrary.sol\":3377:3383  146097 */\n      0x023ab1\n        /* \"Homework 7/Lecture 7/BokkyPooBahsDateTimeLibrary.sol\":3377:3387  146097 * N */\n      tag_161\n      swap2\n      swap1\n      tag_158\n      jump\t// in\n    tag_161:\n        /* \"Homework 7/Lecture 7/BokkyPooBahsDateTimeLibrary.sol\":3377:3391  146097 * N + 3 */\n      tag_162\n      swap2\n      swap1\n      tag_155\n      jump\t// in\n    tag_162:\n        /* \"Homework 7/Lecture 7/BokkyPooBahsDateTimeLibrary.sol\":3376:3396  (146097 * N + 3) / 4 */\n      tag_163\n      swap2\n      swap1\n      tag_160\n      jump\t// in\n    tag_163:\n        /* \"Homework 7/Lecture 7/BokkyPooBahsDateTimeLibrary.sol\":3372:3373  L */\n      dup3\n        /* \"Homework 7/Lecture 7/BokkyPooBahsDateTimeLibrary.sol\":3372:3396  L - (146097 * N + 3) / 4 */\n      tag_164\n      swap2\n      swap1\n      tag_165\n      jump\t// in\n    tag_164:\n        /* \"Homework 7/Lecture 7/BokkyPooBahsDateTimeLibrary.sol\":3368:3396  L = L - (146097 * N + 3) / 4 */\n      swap2\n      pop\n        /* \"Homework 7/Lecture 7/BokkyPooBahsDateTimeLibrary.sol\":3402:3411  int _year */\n      0x00\n        /* \"Homework 7/Lecture 7/BokkyPooBahsDateTimeLibrary.sol\":3431:3438  1461001 */\n      0x164b09\n        /* \"Homework 7/Lecture 7/BokkyPooBahsDateTimeLibrary.sol\":3426:3427  1 */\n      0x01\n        /* \"Homework 7/Lecture 7/BokkyPooBahsDateTimeLibrary.sol\":3422:3423  L */\n      dup5\n        /* \"Homework 7/Lecture 7/BokkyPooBahsDateTimeLibrary.sol\":3422:3427  L + 1 */\n      tag_166\n      swap2\n      swap1\n      tag_155\n      jump\t// in\n    tag_166:\n        /* \"Homework 7/Lecture 7/BokkyPooBahsDateTimeLibrary.sol\":3414:3418  4000 */\n      0x0fa0\n        /* \"Homework 7/Lecture 7/BokkyPooBahsDateTimeLibrary.sol\":3414:3428  4000 * (L + 1) */\n      tag_167\n      swap2\n      swap1\n      tag_158\n      jump\t// in\n    tag_167:\n        /* \"Homework 7/Lecture 7/BokkyPooBahsDateTimeLibrary.sol\":3414:3438  4000 * (L + 1) / 1461001 */\n      tag_168\n      swap2\n      swap1\n      tag_160\n      jump\t// in\n    tag_168:\n        /* \"Homework 7/Lecture 7/BokkyPooBahsDateTimeLibrary.sol\":3402:3438  int _year = 4000 * (L + 1) / 1461001 */\n      swap1\n      pop\n        /* \"Homework 7/Lecture 7/BokkyPooBahsDateTimeLibrary.sol\":3471:3473  31 */\n      0x1f\n        /* \"Homework 7/Lecture 7/BokkyPooBahsDateTimeLibrary.sol\":3467:3468  4 */\n      0x04\n        /* \"Homework 7/Lecture 7/BokkyPooBahsDateTimeLibrary.sol\":3459:3464  _year */\n      dup3\n        /* \"Homework 7/Lecture 7/BokkyPooBahsDateTimeLibrary.sol\":3452:3456  1461 */\n      0x05b5\n        /* \"Homework 7/Lecture 7/BokkyPooBahsDateTimeLibrary.sol\":3452:3464  1461 * _year */\n      tag_169\n      swap2\n      swap1\n      tag_158\n      jump\t// in\n    tag_169:\n        /* \"Homework 7/Lecture 7/BokkyPooBahsDateTimeLibrary.sol\":3452:3468  1461 * _year / 4 */\n      tag_170\n      swap2\n      swap1\n      tag_160\n      jump\t// in\n    tag_170:\n        /* \"Homework 7/Lecture 7/BokkyPooBahsDateTimeLibrary.sol\":3448:3449  L */\n      dup5\n        /* \"Homework 7/Lecture 7/BokkyPooBahsDateTimeLibrary.sol\":3448:3468  L - 1461 * _year / 4 */\n      tag_171\n      swap2\n      swap1\n      tag_165\n      jump\t// in\n    tag_171:\n        /* \"Homework 7/Lecture 7/BokkyPooBahsDateTimeLibrary.sol\":3448:3473  L - 1461 * _year / 4 + 31 */\n      tag_172\n      swap2\n      swap1\n      tag_155\n      jump\t// in\n    tag_172:\n        /* \"Homework 7/Lecture 7/BokkyPooBahsDateTimeLibrary.sol\":3444:3473  L = L - 1461 * _year / 4 + 31 */\n      swap3\n      pop\n        /* \"Homework 7/Lecture 7/BokkyPooBahsDateTimeLibrary.sol\":3479:3489  int _month */\n      0x00\n        /* \"Homework 7/Lecture 7/BokkyPooBahsDateTimeLibrary.sol\":3501:3505  2447 */\n      0x098f\n        /* \"Homework 7/Lecture 7/BokkyPooBahsDateTimeLibrary.sol\":3497:3498  L */\n      dup5\n        /* \"Homework 7/Lecture 7/BokkyPooBahsDateTimeLibrary.sol\":3492:3494  80 */\n      0x50\n        /* \"Homework 7/Lecture 7/BokkyPooBahsDateTimeLibrary.sol\":3492:3498  80 * L */\n      tag_173\n      swap2\n      swap1\n      tag_158\n      jump\t// in\n    tag_173:\n        /* \"Homework 7/Lecture 7/BokkyPooBahsDateTimeLibrary.sol\":3492:3505  80 * L / 2447 */\n      tag_174\n      swap2\n      swap1\n      tag_160\n      jump\t// in\n    tag_174:\n        /* \"Homework 7/Lecture 7/BokkyPooBahsDateTimeLibrary.sol\":3479:3505  int _month = 80 * L / 2447 */\n      swap1\n      pop\n        /* \"Homework 7/Lecture 7/BokkyPooBahsDateTimeLibrary.sol\":3511:3519  int _day */\n      0x00\n        /* \"Homework 7/Lecture 7/BokkyPooBahsDateTimeLibrary.sol\":3542:3544  80 */\n      0x50\n        /* \"Homework 7/Lecture 7/BokkyPooBahsDateTimeLibrary.sol\":3533:3539  _month */\n      dup3\n        /* \"Homework 7/Lecture 7/BokkyPooBahsDateTimeLibrary.sol\":3526:3530  2447 */\n      0x098f\n        /* \"Homework 7/Lecture 7/BokkyPooBahsDateTimeLibrary.sol\":3526:3539  2447 * _month */\n      tag_175\n      swap2\n      swap1\n      tag_158\n      jump\t// in\n    tag_175:\n        /* \"Homework 7/Lecture 7/BokkyPooBahsDateTimeLibrary.sol\":3526:3544  2447 * _month / 80 */\n      tag_176\n      swap2\n      swap1\n      tag_160\n      jump\t// in\n    tag_176:\n        /* \"Homework 7/Lecture 7/BokkyPooBahsDateTimeLibrary.sol\":3522:3523  L */\n      dup6\n        /* \"Homework 7/Lecture 7/BokkyPooBahsDateTimeLibrary.sol\":3522:3544  L - 2447 * _month / 80 */\n      tag_177\n      swap2\n      swap1\n      tag_165\n      jump\t// in\n    tag_177:\n        /* \"Homework 7/Lecture 7/BokkyPooBahsDateTimeLibrary.sol\":3511:3544  int _day = L - 2447 * _month / 80 */\n      swap1\n      pop\n        /* \"Homework 7/Lecture 7/BokkyPooBahsDateTimeLibrary.sol\":3563:3565  11 */\n      0x0b\n        /* \"Homework 7/Lecture 7/BokkyPooBahsDateTimeLibrary.sol\":3554:3560  _month */\n      dup3\n        /* \"Homework 7/Lecture 7/BokkyPooBahsDateTimeLibrary.sol\":3554:3565  _month / 11 */\n      tag_178\n      swap2\n      swap1\n      tag_160\n      jump\t// in\n    tag_178:\n        /* \"Homework 7/Lecture 7/BokkyPooBahsDateTimeLibrary.sol\":3550:3565  L = _month / 11 */\n      swap5\n      pop\n        /* \"Homework 7/Lecture 7/BokkyPooBahsDateTimeLibrary.sol\":3598:3599  L */\n      dup5\n        /* \"Homework 7/Lecture 7/BokkyPooBahsDateTimeLibrary.sol\":3593:3595  12 */\n      0x0c\n        /* \"Homework 7/Lecture 7/BokkyPooBahsDateTimeLibrary.sol\":3593:3599  12 * L */\n      tag_179\n      swap2\n      swap1\n      tag_158\n      jump\t// in\n    tag_179:\n        /* \"Homework 7/Lecture 7/BokkyPooBahsDateTimeLibrary.sol\":3589:3590  2 */\n      0x02\n        /* \"Homework 7/Lecture 7/BokkyPooBahsDateTimeLibrary.sol\":3580:3586  _month */\n      dup4\n        /* \"Homework 7/Lecture 7/BokkyPooBahsDateTimeLibrary.sol\":3580:3590  _month + 2 */\n      tag_180\n      swap2\n      swap1\n      tag_155\n      jump\t// in\n    tag_180:\n        /* \"Homework 7/Lecture 7/BokkyPooBahsDateTimeLibrary.sol\":3580:3599  _month + 2 - 12 * L */\n      tag_181\n      swap2\n      swap1\n      tag_165\n      jump\t// in\n    tag_181:\n        /* \"Homework 7/Lecture 7/BokkyPooBahsDateTimeLibrary.sol\":3571:3599  _month = _month + 2 - 12 * L */\n      swap2\n      pop\n        /* \"Homework 7/Lecture 7/BokkyPooBahsDateTimeLibrary.sol\":3638:3639  L */\n      dup5\n        /* \"Homework 7/Lecture 7/BokkyPooBahsDateTimeLibrary.sol\":3630:3635  _year */\n      dup4\n        /* \"Homework 7/Lecture 7/BokkyPooBahsDateTimeLibrary.sol\":3624:3626  49 */\n      0x31\n        /* \"Homework 7/Lecture 7/BokkyPooBahsDateTimeLibrary.sol\":3620:3621  N */\n      dup7\n        /* \"Homework 7/Lecture 7/BokkyPooBahsDateTimeLibrary.sol\":3620:3626  N - 49 */\n      tag_182\n      swap2\n      swap1\n      tag_165\n      jump\t// in\n    tag_182:\n        /* \"Homework 7/Lecture 7/BokkyPooBahsDateTimeLibrary.sol\":3613:3616  100 */\n      0x64\n        /* \"Homework 7/Lecture 7/BokkyPooBahsDateTimeLibrary.sol\":3613:3627  100 * (N - 49) */\n      tag_183\n      swap2\n      swap1\n      tag_158\n      jump\t// in\n    tag_183:\n        /* \"Homework 7/Lecture 7/BokkyPooBahsDateTimeLibrary.sol\":3613:3635  100 * (N - 49) + _year */\n      tag_184\n      swap2\n      swap1\n      tag_155\n      jump\t// in\n    tag_184:\n        /* \"Homework 7/Lecture 7/BokkyPooBahsDateTimeLibrary.sol\":3613:3639  100 * (N - 49) + _year + L */\n      tag_185\n      swap2\n      swap1\n      tag_155\n      jump\t// in\n    tag_185:\n        /* \"Homework 7/Lecture 7/BokkyPooBahsDateTimeLibrary.sol\":3605:3639  _year = 100 * (N - 49) + _year + L */\n      swap3\n      pop\n        /* \"Homework 7/Lecture 7/BokkyPooBahsDateTimeLibrary.sol\":3658:3663  _year */\n      dup3\n        /* \"Homework 7/Lecture 7/BokkyPooBahsDateTimeLibrary.sol\":3646:3664  year = uint(_year) */\n      swap9\n      pop\n        /* \"Homework 7/Lecture 7/BokkyPooBahsDateTimeLibrary.sol\":3683:3689  _month */\n      dup2\n        /* \"Homework 7/Lecture 7/BokkyPooBahsDateTimeLibrary.sol\":3670:3690  month = uint(_month) */\n      swap8\n      pop\n        /* \"Homework 7/Lecture 7/BokkyPooBahsDateTimeLibrary.sol\":3707:3711  _day */\n      dup1\n        /* \"Homework 7/Lecture 7/BokkyPooBahsDateTimeLibrary.sol\":3696:3712  day = uint(_day) */\n      swap7\n      pop\n        /* \"Homework 7/Lecture 7/BokkyPooBahsDateTimeLibrary.sol\":3259:3717  {... */\n      pop\n      pop\n      pop\n      pop\n      pop\n      pop\n        /* \"Homework 7/Lecture 7/BokkyPooBahsDateTimeLibrary.sol\":3170:3717  function _daysToDate(uint _days) internal pure returns (uint year, uint month, uint day) {... */\n      swap2\n      swap4\n      swap1\n      swap3\n      pop\n      jump\t// out\n    tag_127:\n      mload(0x40)\n      dup1\n      0x80\n      add\n      0x40\n      mstore\n      dup1\n      0x60\n      dup2\n      mstore\n      0x20\n      add\n      and(0xffffffffffffffffffffffffffffffffffffffff, 0x00)\n      dup2\n      mstore\n      0x20\n      add\n      0x00\n      dup2\n      mstore\n      0x20\n      add\n      0x00\n      dup2\n      mstore\n      pop\n      swap1\n      jump\t// out\n        /* \"#utility.yul\":7:82   */\n    tag_186:\n        /* \"#utility.yul\":40:46   */\n      0x00\n        /* \"#utility.yul\":73:75   */\n      0x40\n        /* \"#utility.yul\":67:76   */\n      mload\n        /* \"#utility.yul\":57:76   */\n      swap1\n      pop\n        /* \"#utility.yul\":7:82   */\n      swap1\n      jump\t// out\n        /* \"#utility.yul\":88:205   */\n    tag_187:\n        /* \"#utility.yul\":197:198   */\n      0x00\n        /* \"#utility.yul\":194:195   */\n      dup1\n        /* \"#utility.yul\":187:199   */\n      revert\n        /* \"#utility.yul\":211:328   */\n    tag_188:\n        /* \"#utility.yul\":320:321   */\n      0x00\n        /* \"#utility.yul\":317:318   */\n      dup1\n        /* \"#utility.yul\":310:322   */\n      revert\n        /* \"#utility.yul\":334:411   */\n    tag_189:\n        /* \"#utility.yul\":371:378   */\n      0x00\n        /* \"#utility.yul\":400:405   */\n      dup2\n        /* \"#utility.yul\":389:405   */\n      swap1\n      pop\n        /* \"#utility.yul\":334:411   */\n      swap2\n      swap1\n      pop\n      jump\t// out\n        /* \"#utility.yul\":417:539   */\n    tag_190:\n        /* \"#utility.yul\":490:514   */\n      tag_258\n        /* \"#utility.yul\":508:513   */\n      dup2\n        /* \"#utility.yul\":490:514   */\n      tag_189\n      jump\t// in\n    tag_258:\n        /* \"#utility.yul\":483:488   */\n      dup2\n        /* \"#utility.yul\":480:515   */\n      eq\n        /* \"#utility.yul\":470:533   */\n      tag_259\n      jumpi\n        /* \"#utility.yul\":529:530   */\n      0x00\n        /* \"#utility.yul\":526:527   */\n      dup1\n        /* \"#utility.yul\":519:531   */\n      revert\n        /* \"#utility.yul\":470:533   */\n    tag_259:\n        /* \"#utility.yul\":417:539   */\n      pop\n      jump\t// out\n        /* \"#utility.yul\":545:684   */\n    tag_191:\n        /* \"#utility.yul\":591:596   */\n      0x00\n        /* \"#utility.yul\":629:635   */\n      dup2\n        /* \"#utility.yul\":616:636   */\n      calldataload\n        /* \"#utility.yul\":607:636   */\n      swap1\n      pop\n        /* \"#utility.yul\":645:678   */\n      tag_261\n        /* \"#utility.yul\":672:677   */\n      dup2\n        /* \"#utility.yul\":645:678   */\n      tag_190\n      jump\t// in\n    tag_261:\n        /* \"#utility.yul\":545:684   */\n      swap3\n      swap2\n      pop\n      pop\n      jump\t// out\n        /* \"#utility.yul\":690:1019   */\n    tag_15:\n        /* \"#utility.yul\":749:755   */\n      0x00\n        /* \"#utility.yul\":798:800   */\n      0x20\n        /* \"#utility.yul\":786:795   */\n      dup3\n        /* \"#utility.yul\":777:784   */\n      dup5\n        /* \"#utility.yul\":773:796   */\n      sub\n        /* \"#utility.yul\":769:801   */\n      slt\n        /* \"#utility.yul\":766:885   */\n      iszero\n      tag_263\n      jumpi\n        /* \"#utility.yul\":804:883   */\n      tag_264\n      tag_187\n      jump\t// in\n    tag_264:\n        /* \"#utility.yul\":766:885   */\n    tag_263:\n        /* \"#utility.yul\":924:925   */\n      0x00\n        /* \"#utility.yul\":949:1002   */\n      tag_265\n        /* \"#utility.yul\":994:1001   */\n      dup5\n        /* \"#utility.yul\":985:991   */\n      dup3\n        /* \"#utility.yul\":974:983   */\n      dup6\n        /* \"#utility.yul\":970:992   */\n      add\n        /* \"#utility.yul\":949:1002   */\n      tag_191\n      jump\t// in\n    tag_265:\n        /* \"#utility.yul\":939:1002   */\n      swap2\n      pop\n        /* \"#utility.yul\":895:1012   */\n      pop\n        /* \"#utility.yul\":690:1019   */\n      swap3\n      swap2\n      pop\n      pop\n      jump\t// out\n        /* \"#utility.yul\":1025:1143   */\n    tag_192:\n        /* \"#utility.yul\":1112:1136   */\n      tag_267\n        /* \"#utility.yul\":1130:1135   */\n      dup2\n        /* \"#utility.yul\":1112:1136   */\n      tag_189\n      jump\t// in\n    tag_267:\n        /* \"#utility.yul\":1107:1110   */\n      dup3\n        /* \"#utility.yul\":1100:1137   */\n      mstore\n        /* \"#utility.yul\":1025:1143   */\n      pop\n      pop\n      jump\t// out\n        /* \"#utility.yul\":1149:1591   */\n    tag_18:\n        /* \"#utility.yul\":1298:1302   */\n      0x00\n        /* \"#utility.yul\":1336:1338   */\n      0x60\n        /* \"#utility.yul\":1325:1334   */\n      dup3\n        /* \"#utility.yul\":1321:1339   */\n      add\n        /* \"#utility.yul\":1313:1339   */\n      swap1\n      pop\n        /* \"#utility.yul\":1349:1420   */\n      tag_269\n        /* \"#utility.yul\":1417:1418   */\n      0x00\n        /* \"#utility.yul\":1406:1415   */\n      dup4\n        /* \"#utility.yul\":1402:1419   */\n      add\n        /* \"#utility.yul\":1393:1399   */\n      dup7\n        /* \"#utility.yul\":1349:1420   */\n      tag_192\n      jump\t// in\n    tag_269:\n        /* \"#utility.yul\":1430:1502   */\n      tag_270\n        /* \"#utility.yul\":1498:1500   */\n      0x20\n        /* \"#utility.yul\":1487:1496   */\n      dup4\n        /* \"#utility.yul\":1483:1501   */\n      add\n        /* \"#utility.yul\":1474:1480   */\n      dup6\n        /* \"#utility.yul\":1430:1502   */\n      tag_192\n      jump\t// in\n    tag_270:\n        /* \"#utility.yul\":1512:1584   */\n      tag_271\n        /* \"#utility.yul\":1580:1582   */\n      0x40\n        /* \"#utility.yul\":1569:1578   */\n      dup4\n        /* \"#utility.yul\":1565:1583   */\n      add\n        /* \"#utility.yul\":1556:1562   */\n      dup5\n        /* \"#utility.yul\":1512:1584   */\n      tag_192\n      jump\t// in\n    tag_271:\n        /* \"#utility.yul\":1149:1591   */\n      swap5\n      swap4\n      pop\n      pop\n      pop\n      pop\n      jump\t// out\n        /* \"#utility.yul\":1597:1735   */\n    tag_193:\n        /* \"#utility.yul\":1688:1694   */\n      0x00\n        /* \"#utility.yul\":1722:1727   */\n      dup2\n        /* \"#utility.yul\":1716:1728   */\n      mload\n        /* \"#utility.yul\":1706:1728   */\n      swap1\n      pop\n        /* \"#utility.yul\":1597:1735   */\n      swap2\n      swap1\n      pop\n      jump\t// out\n        /* \"#utility.yul\":1741:1949   */\n    tag_194:\n        /* \"#utility.yul\":1864:1875   */\n      0x00\n        /* \"#utility.yul\":1898:1904   */\n      dup3\n        /* \"#utility.yul\":1893:1896   */\n      dup3\n        /* \"#utility.yul\":1886:1905   */\n      mstore\n        /* \"#utility.yul\":1938:1942   */\n      0x20\n        /* \"#utility.yul\":1933:1936   */\n      dup3\n        /* \"#utility.yul\":1929:1943   */\n      add\n        /* \"#utility.yul\":1914:1943   */\n      swap1\n      pop\n        /* \"#utility.yul\":1741:1949   */\n      swap3\n      swap2\n      pop\n      pop\n      jump\t// out\n        /* \"#utility.yul\":1955:2111   */\n    tag_195:\n        /* \"#utility.yul\":2046:2050   */\n      0x00\n        /* \"#utility.yul\":2069:2072   */\n      dup2\n        /* \"#utility.yul\":2061:2072   */\n      swap1\n      pop\n        /* \"#utility.yul\":2099:2103   */\n      0x20\n        /* \"#utility.yul\":2094:2097   */\n      dup3\n        /* \"#utility.yul\":2090:2104   */\n      add\n        /* \"#utility.yul\":2082:2104   */\n      swap1\n      pop\n        /* \"#utility.yul\":1955:2111   */\n      swap2\n      swap1\n      pop\n      jump\t// out\n        /* \"#utility.yul\":2117:2216   */\n    tag_196:\n        /* \"#utility.yul\":2169:2175   */\n      0x00\n        /* \"#utility.yul\":2203:2208   */\n      dup2\n        /* \"#utility.yul\":2197:2209   */\n      mload\n        /* \"#utility.yul\":2187:2209   */\n      swap1\n      pop\n        /* \"#utility.yul\":2117:2216   */\n      swap2\n      swap1\n      pop\n      jump\t// out\n        /* \"#utility.yul\":2222:2381   */\n    tag_197:\n        /* \"#utility.yul\":2296:2307   */\n      0x00\n        /* \"#utility.yul\":2330:2336   */\n      dup3\n        /* \"#utility.yul\":2325:2328   */\n      dup3\n        /* \"#utility.yul\":2318:2337   */\n      mstore\n        /* \"#utility.yul\":2370:2374   */\n      0x20\n        /* \"#utility.yul\":2365:2368   */\n      dup3\n        /* \"#utility.yul\":2361:2375   */\n      add\n        /* \"#utility.yul\":2346:2375   */\n      swap1\n      pop\n        /* \"#utility.yul\":2222:2381   */\n      swap3\n      swap2\n      pop\n      pop\n      jump\t// out\n        /* \"#utility.yul\":2387:2633   */\n    tag_198:\n        /* \"#utility.yul\":2468:2469   */\n      0x00\n        /* \"#utility.yul\":2478:2591   */\n    tag_278:\n        /* \"#utility.yul\":2492:2498   */\n      dup4\n        /* \"#utility.yul\":2489:2490   */\n      dup2\n        /* \"#utility.yul\":2486:2499   */\n      lt\n        /* \"#utility.yul\":2478:2591   */\n      iszero\n      tag_280\n      jumpi\n        /* \"#utility.yul\":2577:2578   */\n      dup1\n        /* \"#utility.yul\":2572:2575   */\n      dup3\n        /* \"#utility.yul\":2568:2579   */\n      add\n        /* \"#utility.yul\":2562:2580   */\n      mload\n        /* \"#utility.yul\":2558:2559   */\n      dup2\n        /* \"#utility.yul\":2553:2556   */\n      dup5\n        /* \"#utility.yul\":2549:2560   */\n      add\n        /* \"#utility.yul\":2542:2581   */\n      mstore\n        /* \"#utility.yul\":2514:2516   */\n      0x20\n        /* \"#utility.yul\":2511:2512   */\n      dup2\n        /* \"#utility.yul\":2507:2517   */\n      add\n        /* \"#utility.yul\":2502:2517   */\n      swap1\n      pop\n        /* \"#utility.yul\":2478:2591   */\n      jump(tag_278)\n    tag_280:\n        /* \"#utility.yul\":2625:2626   */\n      0x00\n        /* \"#utility.yul\":2616:2622   */\n      dup5\n        /* \"#utility.yul\":2611:2614   */\n      dup5\n        /* \"#utility.yul\":2607:2623   */\n      add\n        /* \"#utility.yul\":2600:2627   */\n      mstore\n        /* \"#utility.yul\":2449:2633   */\n      pop\n        /* \"#utility.yul\":2387:2633   */\n      pop\n      pop\n      pop\n      jump\t// out\n        /* \"#utility.yul\":2639:2741   */\n    tag_199:\n        /* \"#utility.yul\":2680:2686   */\n      0x00\n        /* \"#utility.yul\":2731:2733   */\n      0x1f\n        /* \"#utility.yul\":2727:2734   */\n      not\n        /* \"#utility.yul\":2722:2724   */\n      0x1f\n        /* \"#utility.yul\":2715:2720   */\n      dup4\n        /* \"#utility.yul\":2711:2725   */\n      add\n        /* \"#utility.yul\":2707:2735   */\n      and\n        /* \"#utility.yul\":2697:2735   */\n      swap1\n      pop\n        /* \"#utility.yul\":2639:2741   */\n      swap2\n      swap1\n      pop\n      jump\t// out\n        /* \"#utility.yul\":2747:3104   */\n    tag_200:\n        /* \"#utility.yul\":2825:2828   */\n      0x00\n        /* \"#utility.yul\":2853:2892   */\n      tag_283\n        /* \"#utility.yul\":2886:2891   */\n      dup3\n        /* \"#utility.yul\":2853:2892   */\n      tag_196\n      jump\t// in\n    tag_283:\n        /* \"#utility.yul\":2908:2969   */\n      tag_284\n        /* \"#utility.yul\":2962:2968   */\n      dup2\n        /* \"#utility.yul\":2957:2960   */\n      dup6\n        /* \"#utility.yul\":2908:2969   */\n      tag_197\n      jump\t// in\n    tag_284:\n        /* \"#utility.yul\":2901:2969   */\n      swap4\n      pop\n        /* \"#utility.yul\":2978:3043   */\n      tag_285\n        /* \"#utility.yul\":3036:3042   */\n      dup2\n        /* \"#utility.yul\":3031:3034   */\n      dup6\n        /* \"#utility.yul\":3024:3028   */\n      0x20\n        /* \"#utility.yul\":3017:3022   */\n      dup7\n        /* \"#utility.yul\":3013:3029   */\n      add\n        /* \"#utility.yul\":2978:3043   */\n      tag_198\n      jump\t// in\n    tag_285:\n        /* \"#utility.yul\":3068:3097   */\n      tag_286\n        /* \"#utility.yul\":3090:3096   */\n      dup2\n        /* \"#utility.yul\":3068:3097   */\n      tag_199\n      jump\t// in\n    tag_286:\n        /* \"#utility.yul\":3063:3066   */\n      dup5\n        /* \"#utility.yul\":3059:3098   */\n      add\n        /* \"#utility.yul\":3052:3098   */\n      swap2\n      pop\n        /* \"#utility.yul\":2829:3104   */\n      pop\n        /* \"#utility.yul\":2747:3104   */\n      swap3\n      swap2\n      pop\n      pop\n      jump\t// out\n        /* \"#utility.yul\":3110:3236   */\n    tag_201:\n        /* \"#utility.yul\":3147:3154   */\n      0x00\n        /* \"#utility.yul\":3187:3229   */\n      0xffffffffffffffffffffffffffffffffffffffff\n        /* \"#utility.yul\":3180:3185   */\n      dup3\n        /* \"#utility.yul\":3176:3230   */\n      and\n        /* \"#utility.yul\":3165:3230   */\n      swap1\n      pop\n        /* \"#utility.yul\":3110:3236   */\n      swap2\n      swap1\n      pop\n      jump\t// out\n        /* \"#utility.yul\":3242:3338   */\n    tag_202:\n        /* \"#utility.yul\":3279:3286   */\n      0x00\n        /* \"#utility.yul\":3308:3332   */\n      tag_289\n        /* \"#utility.yul\":3326:3331   */\n      dup3\n        /* \"#utility.yul\":3308:3332   */\n      tag_201\n      jump\t// in\n    tag_289:\n        /* \"#utility.yul\":3297:3332   */\n      swap1\n      pop\n        /* \"#utility.yul\":3242:3338   */\n      swap2\n      swap1\n      pop\n      jump\t// out\n        /* \"#utility.yul\":3344:3452   */\n    tag_203:\n        /* \"#utility.yul\":3421:3445   */\n      tag_291\n        /* \"#utility.yul\":3439:3444   */\n      dup2\n        /* \"#utility.yul\":3421:3445   */\n      tag_202\n      jump\t// in\n    tag_291:\n        /* \"#utility.yul\":3416:3419   */\n      dup3\n        /* \"#utility.yul\":3409:3446   */\n      mstore\n        /* \"#utility.yul\":3344:3452   */\n      pop\n      pop\n      jump\t// out\n        /* \"#utility.yul\":3458:3566   */\n    tag_204:\n        /* \"#utility.yul\":3535:3559   */\n      tag_293\n        /* \"#utility.yul\":3553:3558   */\n      dup2\n        /* \"#utility.yul\":3535:3559   */\n      tag_189\n      jump\t// in\n    tag_293:\n        /* \"#utility.yul\":3530:3533   */\n      dup3\n        /* \"#utility.yul\":3523:3560   */\n      mstore\n        /* \"#utility.yul\":3458:3566   */\n      pop\n      pop\n      jump\t// out\n        /* \"#utility.yul\":3644:4595   */\n    tag_205:\n        /* \"#utility.yul\":3751:3754   */\n      0x00\n        /* \"#utility.yul\":3787:3791   */\n      0x80\n        /* \"#utility.yul\":3782:3785   */\n      dup4\n        /* \"#utility.yul\":3778:3792   */\n      add\n        /* \"#utility.yul\":3874:3878   */\n      0x00\n        /* \"#utility.yul\":3867:3872   */\n      dup4\n        /* \"#utility.yul\":3863:3879   */\n      add\n        /* \"#utility.yul\":3857:3880   */\n      mload\n        /* \"#utility.yul\":3927:3930   */\n      dup5\n        /* \"#utility.yul\":3921:3925   */\n      dup3\n        /* \"#utility.yul\":3917:3931   */\n      sub\n        /* \"#utility.yul\":3910:3914   */\n      0x00\n        /* \"#utility.yul\":3905:3908   */\n      dup7\n        /* \"#utility.yul\":3901:3915   */\n      add\n        /* \"#utility.yul\":3894:3932   */\n      mstore\n        /* \"#utility.yul\":3953:4026   */\n      tag_295\n        /* \"#utility.yul\":4021:4025   */\n      dup3\n        /* \"#utility.yul\":4007:4019   */\n      dup3\n        /* \"#utility.yul\":3953:4026   */\n      tag_200\n      jump\t// in\n    tag_295:\n        /* \"#utility.yul\":3945:4026   */\n      swap2\n      pop\n        /* \"#utility.yul\":3802:4037   */\n      pop\n        /* \"#utility.yul\":4122:4126   */\n      0x20\n        /* \"#utility.yul\":4115:4120   */\n      dup4\n        /* \"#utility.yul\":4111:4127   */\n      add\n        /* \"#utility.yul\":4105:4128   */\n      mload\n        /* \"#utility.yul\":4141:4204   */\n      tag_296\n        /* \"#utility.yul\":4198:4202   */\n      0x20\n        /* \"#utility.yul\":4193:4196   */\n      dup7\n        /* \"#utility.yul\":4189:4203   */\n      add\n        /* \"#utility.yul\":4175:4187   */\n      dup3\n        /* \"#utility.yul\":4141:4204   */\n      tag_203\n      jump\t// in\n    tag_296:\n        /* \"#utility.yul\":4047:4214   */\n      pop\n        /* \"#utility.yul\":4298:4302   */\n      0x40\n        /* \"#utility.yul\":4291:4296   */\n      dup4\n        /* \"#utility.yul\":4287:4303   */\n      add\n        /* \"#utility.yul\":4281:4304   */\n      mload\n        /* \"#utility.yul\":4317:4380   */\n      tag_297\n        /* \"#utility.yul\":4374:4378   */\n      0x40\n        /* \"#utility.yul\":4369:4372   */\n      dup7\n        /* \"#utility.yul\":4365:4379   */\n      add\n        /* \"#utility.yul\":4351:4363   */\n      dup3\n        /* \"#utility.yul\":4317:4380   */\n      tag_204\n      jump\t// in\n    tag_297:\n        /* \"#utility.yul\":4224:4390   */\n      pop\n        /* \"#utility.yul\":4476:4480   */\n      0x60\n        /* \"#utility.yul\":4469:4474   */\n      dup4\n        /* \"#utility.yul\":4465:4481   */\n      add\n        /* \"#utility.yul\":4459:4482   */\n      mload\n        /* \"#utility.yul\":4495:4558   */\n      tag_298\n        /* \"#utility.yul\":4552:4556   */\n      0x60\n        /* \"#utility.yul\":4547:4550   */\n      dup7\n        /* \"#utility.yul\":4543:4557   */\n      add\n        /* \"#utility.yul\":4529:4541   */\n      dup3\n        /* \"#utility.yul\":4495:4558   */\n      tag_204\n      jump\t// in\n    tag_298:\n        /* \"#utility.yul\":4400:4568   */\n      pop\n        /* \"#utility.yul\":4585:4589   */\n      dup1\n        /* \"#utility.yul\":4578:4589   */\n      swap2\n      pop\n        /* \"#utility.yul\":3756:4595   */\n      pop\n        /* \"#utility.yul\":3644:4595   */\n      swap3\n      swap2\n      pop\n      pop\n      jump\t// out\n        /* \"#utility.yul\":4601:4853   */\n    tag_206:\n        /* \"#utility.yul\":4718:4728   */\n      0x00\n        /* \"#utility.yul\":4753:4847   */\n      tag_300\n        /* \"#utility.yul\":4843:4846   */\n      dup4\n        /* \"#utility.yul\":4835:4841   */\n      dup4\n        /* \"#utility.yul\":4753:4847   */\n      tag_205\n      jump\t// in\n    tag_300:\n        /* \"#utility.yul\":4739:4847   */\n      swap1\n      pop\n        /* \"#utility.yul\":4601:4853   */\n      swap3\n      swap2\n      pop\n      pop\n      jump\t// out\n        /* \"#utility.yul\":4859:4996   */\n    tag_207:\n        /* \"#utility.yul\":4953:4957   */\n      0x00\n        /* \"#utility.yul\":4985:4989   */\n      0x20\n        /* \"#utility.yul\":4980:4983   */\n      dup3\n        /* \"#utility.yul\":4976:4990   */\n      add\n        /* \"#utility.yul\":4968:4990   */\n      swap1\n      pop\n        /* \"#utility.yul\":4859:4996   */\n      swap2\n      swap1\n      pop\n      jump\t// out\n        /* \"#utility.yul\":5078:6181   */\n    tag_208:\n        /* \"#utility.yul\":5245:5248   */\n      0x00\n        /* \"#utility.yul\":5274:5352   */\n      tag_303\n        /* \"#utility.yul\":5346:5351   */\n      dup3\n        /* \"#utility.yul\":5274:5352   */\n      tag_193\n      jump\t// in\n    tag_303:\n        /* \"#utility.yul\":5368:5478   */\n      tag_304\n        /* \"#utility.yul\":5471:5477   */\n      dup2\n        /* \"#utility.yul\":5466:5469   */\n      dup6\n        /* \"#utility.yul\":5368:5478   */\n      tag_194\n      jump\t// in\n    tag_304:\n        /* \"#utility.yul\":5361:5478   */\n      swap4\n      pop\n        /* \"#utility.yul\":5504:5507   */\n      dup4\n        /* \"#utility.yul\":5549:5553   */\n      0x20\n        /* \"#utility.yul\":5541:5547   */\n      dup3\n        /* \"#utility.yul\":5537:5554   */\n      mul\n        /* \"#utility.yul\":5532:5535   */\n      dup6\n        /* \"#utility.yul\":5528:5555   */\n      add\n        /* \"#utility.yul\":5579:5659   */\n      tag_305\n        /* \"#utility.yul\":5653:5658   */\n      dup6\n        /* \"#utility.yul\":5579:5659   */\n      tag_195\n      jump\t// in\n    tag_305:\n        /* \"#utility.yul\":5682:5689   */\n      dup1\n        /* \"#utility.yul\":5713:5714   */\n      0x00\n        /* \"#utility.yul\":5698:6136   */\n    tag_306:\n        /* \"#utility.yul\":5723:5729   */\n      dup6\n        /* \"#utility.yul\":5720:5721   */\n      dup2\n        /* \"#utility.yul\":5717:5730   */\n      lt\n        /* \"#utility.yul\":5698:6136   */\n      iszero\n      tag_308\n      jumpi\n        /* \"#utility.yul\":5794:5803   */\n      dup5\n        /* \"#utility.yul\":5788:5792   */\n      dup5\n        /* \"#utility.yul\":5784:5804   */\n      sub\n        /* \"#utility.yul\":5779:5782   */\n      dup10\n        /* \"#utility.yul\":5772:5805   */\n      mstore\n        /* \"#utility.yul\":5845:5851   */\n      dup2\n        /* \"#utility.yul\":5839:5852   */\n      mload\n        /* \"#utility.yul\":5873:5985   */\n      tag_309\n        /* \"#utility.yul\":5980:5984   */\n      dup6\n        /* \"#utility.yul\":5965:5978   */\n      dup3\n        /* \"#utility.yul\":5873:5985   */\n      tag_206\n      jump\t// in\n    tag_309:\n        /* \"#utility.yul\":5865:5985   */\n      swap5\n      pop\n        /* \"#utility.yul\":6008:6092   */\n      tag_310\n        /* \"#utility.yul\":6085:6091   */\n      dup4\n        /* \"#utility.yul\":6008:6092   */\n      tag_207\n      jump\t// in\n    tag_310:\n        /* \"#utility.yul\":5998:6092   */\n      swap3\n      pop\n        /* \"#utility.yul\":6121:6125   */\n      0x20\n        /* \"#utility.yul\":6116:6119   */\n      dup11\n        /* \"#utility.yul\":6112:6126   */\n      add\n        /* \"#utility.yul\":6105:6126   */\n      swap10\n      pop\n        /* \"#utility.yul\":5758:6136   */\n      pop\n        /* \"#utility.yul\":5745:5746   */\n      0x01\n        /* \"#utility.yul\":5742:5743   */\n      dup2\n        /* \"#utility.yul\":5738:5747   */\n      add\n        /* \"#utility.yul\":5733:5747   */\n      swap1\n      pop\n        /* \"#utility.yul\":5698:6136   */\n      jump(tag_306)\n    tag_308:\n        /* \"#utility.yul\":5702:5716   */\n      pop\n        /* \"#utility.yul\":6152:6156   */\n      dup3\n        /* \"#utility.yul\":6145:6156   */\n      swap8\n      pop\n        /* \"#utility.yul\":6172:6175   */\n      dup8\n        /* \"#utility.yul\":6165:6175   */\n      swap6\n      pop\n        /* \"#utility.yul\":5250:6181   */\n      pop\n      pop\n      pop\n      pop\n      pop\n        /* \"#utility.yul\":5078:6181   */\n      swap3\n      swap2\n      pop\n      pop\n      jump\t// out\n        /* \"#utility.yul\":6187:6656   */\n    tag_26:\n        /* \"#utility.yul\":6378:6382   */\n      0x00\n        /* \"#utility.yul\":6416:6418   */\n      0x20\n        /* \"#utility.yul\":6405:6414   */\n      dup3\n        /* \"#utility.yul\":6401:6419   */\n      add\n        /* \"#utility.yul\":6393:6419   */\n      swap1\n      pop\n        /* \"#utility.yul\":6465:6474   */\n      dup2\n        /* \"#utility.yul\":6459:6463   */\n      dup2\n        /* \"#utility.yul\":6455:6475   */\n      sub\n        /* \"#utility.yul\":6451:6452   */\n      0x00\n        /* \"#utility.yul\":6440:6449   */\n      dup4\n        /* \"#utility.yul\":6436:6453   */\n      add\n        /* \"#utility.yul\":6429:6476   */\n      mstore\n        /* \"#utility.yul\":6493:6649   */\n      tag_312\n        /* \"#utility.yul\":6644:6648   */\n      dup2\n        /* \"#utility.yul\":6635:6641   */\n      dup5\n        /* \"#utility.yul\":6493:6649   */\n      tag_208\n      jump\t// in\n    tag_312:\n        /* \"#utility.yul\":6485:6649   */\n      swap1\n      pop\n        /* \"#utility.yul\":6187:6656   */\n      swap3\n      swap2\n      pop\n      pop\n      jump\t// out\n        /* \"#utility.yul\":6662:6784   */\n    tag_209:\n        /* \"#utility.yul\":6735:6759   */\n      tag_314\n        /* \"#utility.yul\":6753:6758   */\n      dup2\n        /* \"#utility.yul\":6735:6759   */\n      tag_202\n      jump\t// in\n    tag_314:\n        /* \"#utility.yul\":6728:6733   */\n      dup2\n        /* \"#utility.yul\":6725:6760   */\n      eq\n        /* \"#utility.yul\":6715:6778   */\n      tag_315\n      jumpi\n        /* \"#utility.yul\":6774:6775   */\n      0x00\n        /* \"#utility.yul\":6771:6772   */\n      dup1\n        /* \"#utility.yul\":6764:6776   */\n      revert\n        /* \"#utility.yul\":6715:6778   */\n    tag_315:\n        /* \"#utility.yul\":6662:6784   */\n      pop\n      jump\t// out\n        /* \"#utility.yul\":6790:6929   */\n    tag_210:\n        /* \"#utility.yul\":6836:6841   */\n      0x00\n        /* \"#utility.yul\":6874:6880   */\n      dup2\n        /* \"#utility.yul\":6861:6881   */\n      calldataload\n        /* \"#utility.yul\":6852:6881   */\n      swap1\n      pop\n        /* \"#utility.yul\":6890:6923   */\n      tag_317\n        /* \"#utility.yul\":6917:6922   */\n      dup2\n        /* \"#utility.yul\":6890:6923   */\n      tag_209\n      jump\t// in\n    tag_317:\n        /* \"#utility.yul\":6790:6929   */\n      swap3\n      swap2\n      pop\n      pop\n      jump\t// out\n        /* \"#utility.yul\":6935:7052   */\n    tag_211:\n        /* \"#utility.yul\":7044:7045   */\n      0x00\n        /* \"#utility.yul\":7041:7042   */\n      dup1\n        /* \"#utility.yul\":7034:7046   */\n      revert\n        /* \"#utility.yul\":7058:7175   */\n    tag_212:\n        /* \"#utility.yul\":7167:7168   */\n      0x00\n        /* \"#utility.yul\":7164:7165   */\n      dup1\n        /* \"#utility.yul\":7157:7169   */\n      revert\n        /* \"#utility.yul\":7181:7361   */\n    tag_213:\n        /* \"#utility.yul\":7229:7306   */\n      0x4e487b7100000000000000000000000000000000000000000000000000000000\n        /* \"#utility.yul\":7226:7227   */\n      0x00\n        /* \"#utility.yul\":7219:7307   */\n      mstore\n        /* \"#utility.yul\":7326:7330   */\n      0x41\n        /* \"#utility.yul\":7323:7324   */\n      0x04\n        /* \"#utility.yul\":7316:7331   */\n      mstore\n        /* \"#utility.yul\":7350:7354   */\n      0x24\n        /* \"#utility.yul\":7347:7348   */\n      0x00\n        /* \"#utility.yul\":7340:7355   */\n      revert\n        /* \"#utility.yul\":7367:7648   */\n    tag_214:\n        /* \"#utility.yul\":7450:7477   */\n      tag_322\n        /* \"#utility.yul\":7472:7476   */\n      dup3\n        /* \"#utility.yul\":7450:7477   */\n      tag_199\n      jump\t// in\n    tag_322:\n        /* \"#utility.yul\":7442:7448   */\n      dup2\n        /* \"#utility.yul\":7438:7478   */\n      add\n        /* \"#utility.yul\":7580:7586   */\n      dup2\n        /* \"#utility.yul\":7568:7578   */\n      dup2\n        /* \"#utility.yul\":7565:7587   */\n      lt\n        /* \"#utility.yul\":7544:7562   */\n      0xffffffffffffffff\n        /* \"#utility.yul\":7532:7542   */\n      dup3\n        /* \"#utility.yul\":7529:7563   */\n      gt\n        /* \"#utility.yul\":7526:7588   */\n      or\n        /* \"#utility.yul\":7523:7611   */\n      iszero\n      tag_323\n      jumpi\n        /* \"#utility.yul\":7591:7609   */\n      tag_324\n      tag_213\n      jump\t// in\n    tag_324:\n        /* \"#utility.yul\":7523:7611   */\n    tag_323:\n        /* \"#utility.yul\":7631:7641   */\n      dup1\n        /* \"#utility.yul\":7627:7629   */\n      0x40\n        /* \"#utility.yul\":7620:7642   */\n      mstore\n        /* \"#utility.yul\":7410:7648   */\n      pop\n        /* \"#utility.yul\":7367:7648   */\n      pop\n      pop\n      jump\t// out\n        /* \"#utility.yul\":7654:7783   */\n    tag_215:\n        /* \"#utility.yul\":7688:7694   */\n      0x00\n        /* \"#utility.yul\":7715:7735   */\n      tag_326\n      tag_186\n      jump\t// in\n    tag_326:\n        /* \"#utility.yul\":7705:7735   */\n      swap1\n      pop\n        /* \"#utility.yul\":7744:7777   */\n      tag_327\n        /* \"#utility.yul\":7772:7776   */\n      dup3\n        /* \"#utility.yul\":7764:7770   */\n      dup3\n        /* \"#utility.yul\":7744:7777   */\n      tag_214\n      jump\t// in\n    tag_327:\n        /* \"#utility.yul\":7654:7783   */\n      swap2\n      swap1\n      pop\n      jump\t// out\n        /* \"#utility.yul\":7789:8097   */\n    tag_216:\n        /* \"#utility.yul\":7851:7855   */\n      0x00\n        /* \"#utility.yul\":7941:7959   */\n      0xffffffffffffffff\n        /* \"#utility.yul\":7933:7939   */\n      dup3\n        /* \"#utility.yul\":7930:7960   */\n      gt\n        /* \"#utility.yul\":7927:7983   */\n      iszero\n      tag_329\n      jumpi\n        /* \"#utility.yul\":7963:7981   */\n      tag_330\n      tag_213\n      jump\t// in\n    tag_330:\n        /* \"#utility.yul\":7927:7983   */\n    tag_329:\n        /* \"#utility.yul\":8001:8030   */\n      tag_331\n        /* \"#utility.yul\":8023:8029   */\n      dup3\n        /* \"#utility.yul\":8001:8030   */\n      tag_199\n      jump\t// in\n    tag_331:\n        /* \"#utility.yul\":7993:8030   */\n      swap1\n      pop\n        /* \"#utility.yul\":8085:8089   */\n      0x20\n        /* \"#utility.yul\":8079:8083   */\n      dup2\n        /* \"#utility.yul\":8075:8090   */\n      add\n        /* \"#utility.yul\":8067:8090   */\n      swap1\n      pop\n        /* \"#utility.yul\":7789:8097   */\n      swap2\n      swap1\n      pop\n      jump\t// out\n        /* \"#utility.yul\":8103:8249   */\n    tag_217:\n        /* \"#utility.yul\":8200:8206   */\n      dup3\n        /* \"#utility.yul\":8195:8198   */\n      dup2\n        /* \"#utility.yul\":8190:8193   */\n      dup4\n        /* \"#utility.yul\":8177:8207   */\n      calldatacopy\n        /* \"#utility.yul\":8241:8242   */\n      0x00\n        /* \"#utility.yul\":8232:8238   */\n      dup4\n        /* \"#utility.yul\":8227:8230   */\n      dup4\n        /* \"#utility.yul\":8223:8239   */\n      add\n        /* \"#utility.yul\":8216:8243   */\n      mstore\n        /* \"#utility.yul\":8103:8249   */\n      pop\n      pop\n      pop\n      jump\t// out\n        /* \"#utility.yul\":8255:8680   */\n    tag_218:\n        /* \"#utility.yul\":8333:8338   */\n      0x00\n        /* \"#utility.yul\":8358:8424   */\n      tag_334\n        /* \"#utility.yul\":8374:8423   */\n      tag_335\n        /* \"#utility.yul\":8416:8422   */\n      dup5\n        /* \"#utility.yul\":8374:8423   */\n      tag_216\n      jump\t// in\n    tag_335:\n        /* \"#utility.yul\":8358:8424   */\n      tag_215\n      jump\t// in\n    tag_334:\n        /* \"#utility.yul\":8349:8424   */\n      swap1\n      pop\n        /* \"#utility.yul\":8447:8453   */\n      dup3\n        /* \"#utility.yul\":8440:8445   */\n      dup2\n        /* \"#utility.yul\":8433:8454   */\n      mstore\n        /* \"#utility.yul\":8485:8489   */\n      0x20\n        /* \"#utility.yul\":8478:8483   */\n      dup2\n        /* \"#utility.yul\":8474:8490   */\n      add\n        /* \"#utility.yul\":8523:8526   */\n      dup5\n        /* \"#utility.yul\":8514:8520   */\n      dup5\n        /* \"#utility.yul\":8509:8512   */\n      dup5\n        /* \"#utility.yul\":8505:8521   */\n      add\n        /* \"#utility.yul\":8502:8527   */\n      gt\n        /* \"#utility.yul\":8499:8611   */\n      iszero\n      tag_336\n      jumpi\n        /* \"#utility.yul\":8530:8609   */\n      tag_337\n      tag_212\n      jump\t// in\n    tag_337:\n        /* \"#utility.yul\":8499:8611   */\n    tag_336:\n        /* \"#utility.yul\":8620:8674   */\n      tag_338\n        /* \"#utility.yul\":8667:8673   */\n      dup5\n        /* \"#utility.yul\":8662:8665   */\n      dup3\n        /* \"#utility.yul\":8657:8660   */\n      dup6\n        /* \"#utility.yul\":8620:8674   */\n      tag_217\n      jump\t// in\n    tag_338:\n        /* \"#utility.yul\":8339:8680   */\n      pop\n        /* \"#utility.yul\":8255:8680   */\n      swap4\n      swap3\n      pop\n      pop\n      pop\n      jump\t// out\n        /* \"#utility.yul\":8700:9040   */\n    tag_219:\n        /* \"#utility.yul\":8756:8761   */\n      0x00\n        /* \"#utility.yul\":8805:8808   */\n      dup3\n        /* \"#utility.yul\":8798:8802   */\n      0x1f\n        /* \"#utility.yul\":8790:8796   */\n      dup4\n        /* \"#utility.yul\":8786:8803   */\n      add\n        /* \"#utility.yul\":8782:8809   */\n      slt\n        /* \"#utility.yul\":8772:8894   */\n      tag_340\n      jumpi\n        /* \"#utility.yul\":8813:8892   */\n      tag_341\n      tag_211\n      jump\t// in\n    tag_341:\n        /* \"#utility.yul\":8772:8894   */\n    tag_340:\n        /* \"#utility.yul\":8930:8936   */\n      dup2\n        /* \"#utility.yul\":8917:8937   */\n      calldataload\n        /* \"#utility.yul\":8955:9034   */\n      tag_342\n        /* \"#utility.yul\":9030:9033   */\n      dup5\n        /* \"#utility.yul\":9022:9028   */\n      dup3\n        /* \"#utility.yul\":9015:9019   */\n      0x20\n        /* \"#utility.yul\":9007:9013   */\n      dup7\n        /* \"#utility.yul\":9003:9020   */\n      add\n        /* \"#utility.yul\":8955:9034   */\n      tag_218\n      jump\t// in\n    tag_342:\n        /* \"#utility.yul\":8946:9034   */\n      swap2\n      pop\n        /* \"#utility.yul\":8762:9040   */\n      pop\n        /* \"#utility.yul\":8700:9040   */\n      swap3\n      swap2\n      pop\n      pop\n      jump\t// out\n        /* \"#utility.yul\":9046:9991   */\n    tag_30:\n        /* \"#utility.yul\":9142:9148   */\n      0x00\n        /* \"#utility.yul\":9150:9156   */\n      dup1\n        /* \"#utility.yul\":9158:9164   */\n      0x00\n        /* \"#utility.yul\":9166:9172   */\n      dup1\n        /* \"#utility.yul\":9215:9218   */\n      0x80\n        /* \"#utility.yul\":9203:9212   */\n      dup6\n        /* \"#utility.yul\":9194:9201   */\n      dup8\n        /* \"#utility.yul\":9190:9213   */\n      sub\n        /* \"#utility.yul\":9186:9219   */\n      slt\n        /* \"#utility.yul\":9183:9303   */\n      iszero\n      tag_344\n      jumpi\n        /* \"#utility.yul\":9222:9301   */\n      tag_345\n      tag_187\n      jump\t// in\n    tag_345:\n        /* \"#utility.yul\":9183:9303   */\n    tag_344:\n        /* \"#utility.yul\":9342:9343   */\n      0x00\n        /* \"#utility.yul\":9367:9420   */\n      tag_346\n        /* \"#utility.yul\":9412:9419   */\n      dup8\n        /* \"#utility.yul\":9403:9409   */\n      dup3\n        /* \"#utility.yul\":9392:9401   */\n      dup9\n        /* \"#utility.yul\":9388:9410   */\n      add\n        /* \"#utility.yul\":9367:9420   */\n      tag_210\n      jump\t// in\n    tag_346:\n        /* \"#utility.yul\":9357:9420   */\n      swap5\n      pop\n        /* \"#utility.yul\":9313:9430   */\n      pop\n        /* \"#utility.yul\":9497:9499   */\n      0x20\n        /* \"#utility.yul\":9486:9495   */\n      dup6\n        /* \"#utility.yul\":9482:9500   */\n      add\n        /* \"#utility.yul\":9469:9501   */\n      calldataload\n        /* \"#utility.yul\":9528:9546   */\n      0xffffffffffffffff\n        /* \"#utility.yul\":9520:9526   */\n      dup2\n        /* \"#utility.yul\":9517:9547   */\n      gt\n        /* \"#utility.yul\":9514:9631   */\n      iszero\n      tag_347\n      jumpi\n        /* \"#utility.yul\":9550:9629   */\n      tag_348\n      tag_188\n      jump\t// in\n    tag_348:\n        /* \"#utility.yul\":9514:9631   */\n    tag_347:\n        /* \"#utility.yul\":9655:9718   */\n      tag_349\n        /* \"#utility.yul\":9710:9717   */\n      dup8\n        /* \"#utility.yul\":9701:9707   */\n      dup3\n        /* \"#utility.yul\":9690:9699   */\n      dup9\n        /* \"#utility.yul\":9686:9708   */\n      add\n        /* \"#utility.yul\":9655:9718   */\n      tag_219\n      jump\t// in\n    tag_349:\n        /* \"#utility.yul\":9645:9718   */\n      swap4\n      pop\n        /* \"#utility.yul\":9440:9728   */\n      pop\n        /* \"#utility.yul\":9767:9769   */\n      0x40\n        /* \"#utility.yul\":9793:9846   */\n      tag_350\n        /* \"#utility.yul\":9838:9845   */\n      dup8\n        /* \"#utility.yul\":9829:9835   */\n      dup3\n        /* \"#utility.yul\":9818:9827   */\n      dup9\n        /* \"#utility.yul\":9814:9836   */\n      add\n        /* \"#utility.yul\":9793:9846   */\n      tag_191\n      jump\t// in\n    tag_350:\n        /* \"#utility.yul\":9783:9846   */\n      swap3\n      pop\n        /* \"#utility.yul\":9738:9856   */\n      pop\n        /* \"#utility.yul\":9895:9897   */\n      0x60\n        /* \"#utility.yul\":9921:9974   */\n      tag_351\n        /* \"#utility.yul\":9966:9973   */\n      dup8\n        /* \"#utility.yul\":9957:9963   */\n      dup3\n        /* \"#utility.yul\":9946:9955   */\n      dup9\n        /* \"#utility.yul\":9942:9964   */\n      add\n        /* \"#utility.yul\":9921:9974   */\n      tag_191\n      jump\t// in\n    tag_351:\n        /* \"#utility.yul\":9911:9974   */\n      swap2\n      pop\n        /* \"#utility.yul\":9866:9984   */\n      pop\n        /* \"#utility.yul\":9046:9991   */\n      swap3\n      swap6\n      swap2\n      swap5\n      pop\n      swap3\n      pop\n      jump\t// out\n        /* \"#utility.yul\":9997:10087   */\n    tag_220:\n        /* \"#utility.yul\":10031:10038   */\n      0x00\n        /* \"#utility.yul\":10074:10079   */\n      dup2\n        /* \"#utility.yul\":10067:10080   */\n      iszero\n        /* \"#utility.yul\":10060:10081   */\n      iszero\n        /* \"#utility.yul\":10049:10081   */\n      swap1\n      pop\n        /* \"#utility.yul\":9997:10087   */\n      swap2\n      swap1\n      pop\n      jump\t// out\n        /* \"#utility.yul\":10093:10202   */\n    tag_221:\n        /* \"#utility.yul\":10174:10195   */\n      tag_354\n        /* \"#utility.yul\":10189:10194   */\n      dup2\n        /* \"#utility.yul\":10174:10195   */\n      tag_220\n      jump\t// in\n    tag_354:\n        /* \"#utility.yul\":10169:10172   */\n      dup3\n        /* \"#utility.yul\":10162:10196   */\n      mstore\n        /* \"#utility.yul\":10093:10202   */\n      pop\n      pop\n      jump\t// out\n        /* \"#utility.yul\":10208:10418   */\n    tag_37:\n        /* \"#utility.yul\":10295:10299   */\n      0x00\n        /* \"#utility.yul\":10333:10335   */\n      0x20\n        /* \"#utility.yul\":10322:10331   */\n      dup3\n        /* \"#utility.yul\":10318:10336   */\n      add\n        /* \"#utility.yul\":10310:10336   */\n      swap1\n      pop\n        /* \"#utility.yul\":10346:10411   */\n      tag_356\n        /* \"#utility.yul\":10408:10409   */\n      0x00\n        /* \"#utility.yul\":10397:10406   */\n      dup4\n        /* \"#utility.yul\":10393:10410   */\n      add\n        /* \"#utility.yul\":10384:10390   */\n      dup5\n        /* \"#utility.yul\":10346:10411   */\n      tag_221\n      jump\t// in\n    tag_356:\n        /* \"#utility.yul\":10208:10418   */\n      swap3\n      swap2\n      pop\n      pop\n      jump\t// out\n        /* \"#utility.yul\":10496:11457   */\n    tag_222:\n        /* \"#utility.yul\":10613:10616   */\n      0x00\n        /* \"#utility.yul\":10649:10653   */\n      0x80\n        /* \"#utility.yul\":10644:10647   */\n      dup4\n        /* \"#utility.yul\":10640:10654   */\n      add\n        /* \"#utility.yul\":10736:10740   */\n      0x00\n        /* \"#utility.yul\":10729:10734   */\n      dup4\n        /* \"#utility.yul\":10725:10741   */\n      add\n        /* \"#utility.yul\":10719:10742   */\n      mload\n        /* \"#utility.yul\":10789:10792   */\n      dup5\n        /* \"#utility.yul\":10783:10787   */\n      dup3\n        /* \"#utility.yul\":10779:10793   */\n      sub\n        /* \"#utility.yul\":10772:10776   */\n      0x00\n        /* \"#utility.yul\":10767:10770   */\n      dup7\n        /* \"#utility.yul\":10763:10777   */\n      add\n        /* \"#utility.yul\":10756:10794   */\n      mstore\n        /* \"#utility.yul\":10815:10888   */\n      tag_358\n        /* \"#utility.yul\":10883:10887   */\n      dup3\n        /* \"#utility.yul\":10869:10881   */\n      dup3\n        /* \"#utility.yul\":10815:10888   */\n      tag_200\n      jump\t// in\n    tag_358:\n        /* \"#utility.yul\":10807:10888   */\n      swap2\n      pop\n        /* \"#utility.yul\":10664:10899   */\n      pop\n        /* \"#utility.yul\":10984:10988   */\n      0x20\n        /* \"#utility.yul\":10977:10982   */\n      dup4\n        /* \"#utility.yul\":10973:10989   */\n      add\n        /* \"#utility.yul\":10967:10990   */\n      mload\n        /* \"#utility.yul\":11003:11066   */\n      tag_359\n        /* \"#utility.yul\":11060:11064   */\n      0x20\n        /* \"#utility.yul\":11055:11058   */\n      dup7\n        /* \"#utility.yul\":11051:11065   */\n      add\n        /* \"#utility.yul\":11037:11049   */\n      dup3\n        /* \"#utility.yul\":11003:11066   */\n      tag_203\n      jump\t// in\n    tag_359:\n        /* \"#utility.yul\":10909:11076   */\n      pop\n        /* \"#utility.yul\":11160:11164   */\n      0x40\n        /* \"#utility.yul\":11153:11158   */\n      dup4\n        /* \"#utility.yul\":11149:11165   */\n      add\n        /* \"#utility.yul\":11143:11166   */\n      mload\n        /* \"#utility.yul\":11179:11242   */\n      tag_360\n        /* \"#utility.yul\":11236:11240   */\n      0x40\n        /* \"#utility.yul\":11231:11234   */\n      dup7\n        /* \"#utility.yul\":11227:11241   */\n      add\n        /* \"#utility.yul\":11213:11225   */\n      dup3\n        /* \"#utility.yul\":11179:11242   */\n      tag_204\n      jump\t// in\n    tag_360:\n        /* \"#utility.yul\":11086:11252   */\n      pop\n        /* \"#utility.yul\":11338:11342   */\n      0x60\n        /* \"#utility.yul\":11331:11336   */\n      dup4\n        /* \"#utility.yul\":11327:11343   */\n      add\n        /* \"#utility.yul\":11321:11344   */\n      mload\n        /* \"#utility.yul\":11357:11420   */\n      tag_361\n        /* \"#utility.yul\":11414:11418   */\n      0x60\n        /* \"#utility.yul\":11409:11412   */\n      dup7\n        /* \"#utility.yul\":11405:11419   */\n      add\n        /* \"#utility.yul\":11391:11403   */\n      dup3\n        /* \"#utility.yul\":11357:11420   */\n      tag_204\n      jump\t// in\n    tag_361:\n        /* \"#utility.yul\":11262:11430   */\n      pop\n        /* \"#utility.yul\":11447:11451   */\n      dup1\n        /* \"#utility.yul\":11440:11451   */\n      swap2\n      pop\n        /* \"#utility.yul\":10618:11457   */\n      pop\n        /* \"#utility.yul\":10496:11457   */\n      swap3\n      swap2\n      pop\n      pop\n      jump\t// out\n        /* \"#utility.yul\":11463:11832   */\n    tag_49:\n        /* \"#utility.yul\":11604:11608   */\n      0x00\n        /* \"#utility.yul\":11642:11644   */\n      0x20\n        /* \"#utility.yul\":11631:11640   */\n      dup3\n        /* \"#utility.yul\":11627:11645   */\n      add\n        /* \"#utility.yul\":11619:11645   */\n      swap1\n      pop\n        /* \"#utility.yul\":11691:11700   */\n      dup2\n        /* \"#utility.yul\":11685:11689   */\n      dup2\n        /* \"#utility.yul\":11681:11701   */\n      sub\n        /* \"#utility.yul\":11677:11678   */\n      0x00\n        /* \"#utility.yul\":11666:11675   */\n      dup4\n        /* \"#utility.yul\":11662:11679   */\n      add\n        /* \"#utility.yul\":11655:11702   */\n      mstore\n        /* \"#utility.yul\":11719:11825   */\n      tag_363\n        /* \"#utility.yul\":11820:11824   */\n      dup2\n        /* \"#utility.yul\":11811:11817   */\n      dup5\n        /* \"#utility.yul\":11719:11825   */\n      tag_222\n      jump\t// in\n    tag_363:\n        /* \"#utility.yul\":11711:11825   */\n      swap1\n      pop\n        /* \"#utility.yul\":11463:11832   */\n      swap3\n      swap2\n      pop\n      pop\n      jump\t// out\n        /* \"#utility.yul\":11838:12060   */\n    tag_54:\n        /* \"#utility.yul\":11931:11935   */\n      0x00\n        /* \"#utility.yul\":11969:11971   */\n      0x20\n        /* \"#utility.yul\":11958:11967   */\n      dup3\n        /* \"#utility.yul\":11954:11972   */\n      add\n        /* \"#utility.yul\":11946:11972   */\n      swap1\n      pop\n        /* \"#utility.yul\":11982:12053   */\n      tag_365\n        /* \"#utility.yul\":12050:12051   */\n      0x00\n        /* \"#utility.yul\":12039:12048   */\n      dup4\n        /* \"#utility.yul\":12035:12052   */\n      add\n        /* \"#utility.yul\":12026:12032   */\n      dup5\n        /* \"#utility.yul\":11982:12053   */\n      tag_192\n      jump\t// in\n    tag_365:\n        /* \"#utility.yul\":11838:12060   */\n      swap3\n      swap2\n      pop\n      pop\n      jump\t// out\n        /* \"#utility.yul\":12066:12235   */\n    tag_223:\n        /* \"#utility.yul\":12150:12161   */\n      0x00\n        /* \"#utility.yul\":12184:12190   */\n      dup3\n        /* \"#utility.yul\":12179:12182   */\n      dup3\n        /* \"#utility.yul\":12172:12191   */\n      mstore\n        /* \"#utility.yul\":12224:12228   */\n      0x20\n        /* \"#utility.yul\":12219:12222   */\n      dup3\n        /* \"#utility.yul\":12215:12229   */\n      add\n        /* \"#utility.yul\":12200:12229   */\n      swap1\n      pop\n        /* \"#utility.yul\":12066:12235   */\n      swap3\n      swap2\n      pop\n      pop\n      jump\t// out\n        /* \"#utility.yul\":12241:12466   */\n    tag_224:\n        /* \"#utility.yul\":12381:12415   */\n      0x53656e6465722073686f756c6420626520746865206f776e6572206f6620636f\n        /* \"#utility.yul\":12377:12378   */\n      0x00\n        /* \"#utility.yul\":12369:12375   */\n      dup3\n        /* \"#utility.yul\":12365:12379   */\n      add\n        /* \"#utility.yul\":12358:12416   */\n      mstore\n        /* \"#utility.yul\":12450:12458   */\n      0x6e74726163740000000000000000000000000000000000000000000000000000\n        /* \"#utility.yul\":12445:12447   */\n      0x20\n        /* \"#utility.yul\":12437:12443   */\n      dup3\n        /* \"#utility.yul\":12433:12448   */\n      add\n        /* \"#utility.yul\":12426:12459   */\n      mstore\n        /* \"#utility.yul\":12241:12466   */\n      pop\n      jump\t// out\n        /* \"#utility.yul\":12472:12838   */\n    tag_225:\n        /* \"#utility.yul\":12614:12617   */\n      0x00\n        /* \"#utility.yul\":12635:12702   */\n      tag_369\n        /* \"#utility.yul\":12699:12701   */\n      0x26\n        /* \"#utility.yul\":12694:12697   */\n      dup4\n        /* \"#utility.yul\":12635:12702   */\n      tag_223\n      jump\t// in\n    tag_369:\n        /* \"#utility.yul\":12628:12702   */\n      swap2\n      pop\n        /* \"#utility.yul\":12711:12804   */\n      tag_370\n        /* \"#utility.yul\":12800:12803   */\n      dup3\n        /* \"#utility.yul\":12711:12804   */\n      tag_224\n      jump\t// in\n    tag_370:\n        /* \"#utility.yul\":12829:12831   */\n      0x40\n        /* \"#utility.yul\":12824:12827   */\n      dup3\n        /* \"#utility.yul\":12820:12832   */\n      add\n        /* \"#utility.yul\":12813:12832   */\n      swap1\n      pop\n        /* \"#utility.yul\":12472:12838   */\n      swap2\n      swap1\n      pop\n      jump\t// out\n        /* \"#utility.yul\":12844:13263   */\n    tag_61:\n        /* \"#utility.yul\":13010:13014   */\n      0x00\n        /* \"#utility.yul\":13048:13050   */\n      0x20\n        /* \"#utility.yul\":13037:13046   */\n      dup3\n        /* \"#utility.yul\":13033:13051   */\n      add\n        /* \"#utility.yul\":13025:13051   */\n      swap1\n      pop\n        /* \"#utility.yul\":13097:13106   */\n      dup2\n        /* \"#utility.yul\":13091:13095   */\n      dup2\n        /* \"#utility.yul\":13087:13107   */\n      sub\n        /* \"#utility.yul\":13083:13084   */\n      0x00\n        /* \"#utility.yul\":13072:13081   */\n      dup4\n        /* \"#utility.yul\":13068:13085   */\n      add\n        /* \"#utility.yul\":13061:13108   */\n      mstore\n        /* \"#utility.yul\":13125:13256   */\n      tag_372\n        /* \"#utility.yul\":13251:13255   */\n      dup2\n        /* \"#utility.yul\":13125:13256   */\n      tag_225\n      jump\t// in\n    tag_372:\n        /* \"#utility.yul\":13117:13256   */\n      swap1\n      pop\n        /* \"#utility.yul\":12844:13263   */\n      swap2\n      swap1\n      pop\n      jump\t// out\n        /* \"#utility.yul\":13269:13447   */\n    tag_226:\n        /* \"#utility.yul\":13409:13439   */\n      0x4e6f207465616d6d6174657320696e2074686520646174616261736500000000\n        /* \"#utility.yul\":13405:13406   */\n      0x00\n        /* \"#utility.yul\":13397:13403   */\n      dup3\n        /* \"#utility.yul\":13393:13407   */\n      add\n        /* \"#utility.yul\":13386:13440   */\n      mstore\n        /* \"#utility.yul\":13269:13447   */\n      pop\n      jump\t// out\n        /* \"#utility.yul\":13453:13819   */\n    tag_227:\n        /* \"#utility.yul\":13595:13598   */\n      0x00\n        /* \"#utility.yul\":13616:13683   */\n      tag_375\n        /* \"#utility.yul\":13680:13682   */\n      0x1c\n        /* \"#utility.yul\":13675:13678   */\n      dup4\n        /* \"#utility.yul\":13616:13683   */\n      tag_223\n      jump\t// in\n    tag_375:\n        /* \"#utility.yul\":13609:13683   */\n      swap2\n      pop\n        /* \"#utility.yul\":13692:13785   */\n      tag_376\n        /* \"#utility.yul\":13781:13784   */\n      dup3\n        /* \"#utility.yul\":13692:13785   */\n      tag_226\n      jump\t// in\n    tag_376:\n        /* \"#utility.yul\":13810:13812   */\n      0x20\n        /* \"#utility.yul\":13805:13808   */\n      dup3\n        /* \"#utility.yul\":13801:13813   */\n      add\n        /* \"#utility.yul\":13794:13813   */\n      swap1\n      pop\n        /* \"#utility.yul\":13453:13819   */\n      swap2\n      swap1\n      pop\n      jump\t// out\n        /* \"#utility.yul\":13825:14244   */\n    tag_66:\n        /* \"#utility.yul\":13991:13995   */\n      0x00\n        /* \"#utility.yul\":14029:14031   */\n      0x20\n        /* \"#utility.yul\":14018:14027   */\n      dup3\n        /* \"#utility.yul\":14014:14032   */\n      add\n        /* \"#utility.yul\":14006:14032   */\n      swap1\n      pop\n        /* \"#utility.yul\":14078:14087   */\n      dup2\n        /* \"#utility.yul\":14072:14076   */\n      dup2\n        /* \"#utility.yul\":14068:14088   */\n      sub\n        /* \"#utility.yul\":14064:14065   */\n      0x00\n        /* \"#utility.yul\":14053:14062   */\n      dup4\n        /* \"#utility.yul\":14049:14066   */\n      add\n        /* \"#utility.yul\":14042:14089   */\n      mstore\n        /* \"#utility.yul\":14106:14237   */\n      tag_378\n        /* \"#utility.yul\":14232:14236   */\n      dup2\n        /* \"#utility.yul\":14106:14237   */\n      tag_227\n      jump\t// in\n    tag_378:\n        /* \"#utility.yul\":14098:14237   */\n      swap1\n      pop\n        /* \"#utility.yul\":13825:14244   */\n      swap2\n      swap1\n      pop\n      jump\t// out\n        /* \"#utility.yul\":14250:14430   */\n    tag_75:\n        /* \"#utility.yul\":14298:14375   */\n      0x4e487b7100000000000000000000000000000000000000000000000000000000\n        /* \"#utility.yul\":14295:14296   */\n      0x00\n        /* \"#utility.yul\":14288:14376   */\n      mstore\n        /* \"#utility.yul\":14395:14399   */\n      0x32\n        /* \"#utility.yul\":14392:14393   */\n      0x04\n        /* \"#utility.yul\":14385:14400   */\n      mstore\n        /* \"#utility.yul\":14419:14423   */\n      0x24\n        /* \"#utility.yul\":14416:14417   */\n      0x00\n        /* \"#utility.yul\":14409:14424   */\n      revert\n        /* \"#utility.yul\":14436:14616   */\n    tag_228:\n        /* \"#utility.yul\":14484:14561   */\n      0x4e487b7100000000000000000000000000000000000000000000000000000000\n        /* \"#utility.yul\":14481:14482   */\n      0x00\n        /* \"#utility.yul\":14474:14562   */\n      mstore\n        /* \"#utility.yul\":14581:14585   */\n      0x11\n        /* \"#utility.yul\":14578:14579   */\n      0x04\n        /* \"#utility.yul\":14571:14586   */\n      mstore\n        /* \"#utility.yul\":14605:14609   */\n      0x24\n        /* \"#utility.yul\":14602:14603   */\n      0x00\n        /* \"#utility.yul\":14595:14610   */\n      revert\n        /* \"#utility.yul\":14622:14855   */\n    tag_84:\n        /* \"#utility.yul\":14661:14664   */\n      0x00\n        /* \"#utility.yul\":14684:14708   */\n      tag_382\n        /* \"#utility.yul\":14702:14707   */\n      dup3\n        /* \"#utility.yul\":14684:14708   */\n      tag_189\n      jump\t// in\n    tag_382:\n        /* \"#utility.yul\":14675:14708   */\n      swap2\n      pop\n        /* \"#utility.yul\":14730:14796   */\n      0xffffffffffffffffffffffffffffffffffffffffffffffffffffffffffffffff\n        /* \"#utility.yul\":14723:14728   */\n      dup3\n        /* \"#utility.yul\":14720:14797   */\n      sub\n        /* \"#utility.yul\":14717:14820   */\n      tag_383\n      jumpi\n        /* \"#utility.yul\":14800:14818   */\n      tag_384\n      tag_228\n      jump\t// in\n    tag_384:\n        /* \"#utility.yul\":14717:14820   */\n    tag_383:\n        /* \"#utility.yul\":14847:14848   */\n      0x01\n        /* \"#utility.yul\":14840:14845   */\n      dup3\n        /* \"#utility.yul\":14836:14849   */\n      add\n        /* \"#utility.yul\":14829:14849   */\n      swap1\n      pop\n        /* \"#utility.yul\":14622:14855   */\n      swap2\n      swap1\n      pop\n      jump\t// out\n        /* \"#utility.yul\":14861:15041   */\n    tag_229:\n        /* \"#utility.yul\":14909:14986   */\n      0x4e487b7100000000000000000000000000000000000000000000000000000000\n        /* \"#utility.yul\":14906:14907   */\n      0x00\n        /* \"#utility.yul\":14899:14987   */\n      mstore\n        /* \"#utility.yul\":15006:15010   */\n      0x22\n        /* \"#utility.yul\":15003:15004   */\n      0x04\n        /* \"#utility.yul\":14996:15011   */\n      mstore\n        /* \"#utility.yul\":15030:15034   */\n      0x24\n        /* \"#utility.yul\":15027:15028   */\n      0x00\n        /* \"#utility.yul\":15020:15035   */\n      revert\n        /* \"#utility.yul\":15047:15367   */\n    tag_90:\n        /* \"#utility.yul\":15091:15097   */\n      0x00\n        /* \"#utility.yul\":15128:15129   */\n      0x02\n        /* \"#utility.yul\":15122:15126   */\n      dup3\n        /* \"#utility.yul\":15118:15130   */\n      div\n        /* \"#utility.yul\":15108:15130   */\n      swap1\n      pop\n        /* \"#utility.yul\":15175:15176   */\n      0x01\n        /* \"#utility.yul\":15169:15173   */\n      dup3\n        /* \"#utility.yul\":15165:15177   */\n      and\n        /* \"#utility.yul\":15196:15214   */\n      dup1\n        /* \"#utility.yul\":15186:15267   */\n      tag_387\n      jumpi\n        /* \"#utility.yul\":15252:15256   */\n      0x7f\n        /* \"#utility.yul\":15244:15250   */\n      dup3\n        /* \"#utility.yul\":15240:15257   */\n      and\n        /* \"#utility.yul\":15230:15257   */\n      swap2\n      pop\n        /* \"#utility.yul\":15186:15267   */\n    tag_387:\n        /* \"#utility.yul\":15314:15316   */\n      0x20\n        /* \"#utility.yul\":15306:15312   */\n      dup3\n        /* \"#utility.yul\":15303:15317   */\n      lt\n        /* \"#utility.yul\":15283:15301   */\n      dup2\n        /* \"#utility.yul\":15280:15318   */\n      sub\n        /* \"#utility.yul\":15277:15361   */\n      tag_388\n      jumpi\n        /* \"#utility.yul\":15333:15351   */\n      tag_389\n      tag_229\n      jump\t// in\n    tag_389:\n        /* \"#utility.yul\":15277:15361   */\n    tag_388:\n        /* \"#utility.yul\":15098:15367   */\n      pop\n        /* \"#utility.yul\":15047:15367   */\n      swap2\n      swap1\n      pop\n      jump\t// out\n        /* \"#utility.yul\":15373:15541   */\n    tag_230:\n        /* \"#utility.yul\":15513:15533   */\n      0x43616e6e6f7420616464206f6e6573656c660000000000000000000000000000\n        /* \"#utility.yul\":15509:15510   */\n      0x00\n        /* \"#utility.yul\":15501:15507   */\n      dup3\n        /* \"#utility.yul\":15497:15511   */\n      add\n        /* \"#utility.yul\":15490:15534   */\n      mstore\n        /* \"#utility.yul\":15373:15541   */\n      pop\n      jump\t// out\n        /* \"#utility.yul\":15547:15913   */\n    tag_231:\n        /* \"#utility.yul\":15689:15692   */\n      0x00\n        /* \"#utility.yul\":15710:15777   */\n      tag_392\n        /* \"#utility.yul\":15774:15776   */\n      0x12\n        /* \"#utility.yul\":15769:15772   */\n      dup4\n        /* \"#utility.yul\":15710:15777   */\n      tag_223\n      jump\t// in\n    tag_392:\n        /* \"#utility.yul\":15703:15777   */\n      swap2\n      pop\n        /* \"#utility.yul\":15786:15879   */\n      tag_393\n        /* \"#utility.yul\":15875:15878   */\n      dup3\n        /* \"#utility.yul\":15786:15879   */\n      tag_230\n      jump\t// in\n    tag_393:\n        /* \"#utility.yul\":15904:15906   */\n      0x20\n        /* \"#utility.yul\":15899:15902   */\n      dup3\n        /* \"#utility.yul\":15895:15907   */\n      add\n        /* \"#utility.yul\":15888:15907   */\n      swap1\n      pop\n        /* \"#utility.yul\":15547:15913   */\n      swap2\n      swap1\n      pop\n      jump\t// out\n        /* \"#utility.yul\":15919:16338   */\n    tag_101:\n        /* \"#utility.yul\":16085:16089   */\n      0x00\n        /* \"#utility.yul\":16123:16125   */\n      0x20\n        /* \"#utility.yul\":16112:16121   */\n      dup3\n        /* \"#utility.yul\":16108:16126   */\n      add\n        /* \"#utility.yul\":16100:16126   */\n      swap1\n      pop\n        /* \"#utility.yul\":16172:16181   */\n      dup2\n        /* \"#utility.yul\":16166:16170   */\n      dup2\n        /* \"#utility.yul\":16162:16182   */\n      sub\n        /* \"#utility.yul\":16158:16159   */\n      0x00\n        /* \"#utility.yul\":16147:16156   */\n      dup4\n        /* \"#utility.yul\":16143:16160   */\n      add\n        /* \"#utility.yul\":16136:16183   */\n      mstore\n        /* \"#utility.yul\":16200:16331   */\n      tag_395\n        /* \"#utility.yul\":16326:16330   */\n      dup2\n        /* \"#utility.yul\":16200:16331   */\n      tag_231\n      jump\t// in\n    tag_395:\n        /* \"#utility.yul\":16192:16331   */\n      swap1\n      pop\n        /* \"#utility.yul\":15919:16338   */\n      swap2\n      swap1\n      pop\n      jump\t// out\n        /* \"#utility.yul\":16344:16485   */\n    tag_232:\n        /* \"#utility.yul\":16393:16397   */\n      0x00\n        /* \"#utility.yul\":16416:16419   */\n      dup2\n        /* \"#utility.yul\":16408:16419   */\n      swap1\n      pop\n        /* \"#utility.yul\":16439:16442   */\n      dup2\n        /* \"#utility.yul\":16436:16437   */\n      0x00\n        /* \"#utility.yul\":16429:16443   */\n      mstore\n        /* \"#utility.yul\":16473:16477   */\n      0x20\n        /* \"#utility.yul\":16470:16471   */\n      0x00\n        /* \"#utility.yul\":16460:16478   */\n      keccak256\n        /* \"#utility.yul\":16452:16478   */\n      swap1\n      pop\n        /* \"#utility.yul\":16344:16485   */\n      swap2\n      swap1\n      pop\n      jump\t// out\n        /* \"#utility.yul\":16491:16584   */\n    tag_233:\n        /* \"#utility.yul\":16528:16534   */\n      0x00\n        /* \"#utility.yul\":16575:16577   */\n      0x20\n        /* \"#utility.yul\":16570:16572   */\n      0x1f\n        /* \"#utility.yul\":16563:16568   */\n      dup4\n        /* \"#utility.yul\":16559:16573   */\n      add\n        /* \"#utility.yul\":16555:16578   */\n      div\n        /* \"#utility.yul\":16545:16578   */\n      swap1\n      pop\n        /* \"#utility.yul\":16491:16584   */\n      swap2\n      swap1\n      pop\n      jump\t// out\n        /* \"#utility.yul\":16590:16697   */\n    tag_234:\n        /* \"#utility.yul\":16634:16642   */\n      0x00\n        /* \"#utility.yul\":16684:16689   */\n      dup3\n        /* \"#utility.yul\":16678:16682   */\n      dup3\n        /* \"#utility.yul\":16674:16690   */\n      shl\n        /* \"#utility.yul\":16653:16690   */\n      swap1\n      pop\n        /* \"#utility.yul\":16590:16697   */\n      swap3\n      swap2\n      pop\n      pop\n      jump\t// out\n        /* \"#utility.yul\":16703:17096   */\n    tag_235:\n        /* \"#utility.yul\":16772:16778   */\n      0x00\n        /* \"#utility.yul\":16822:16823   */\n      0x08\n        /* \"#utility.yul\":16810:16820   */\n      dup4\n        /* \"#utility.yul\":16806:16824   */\n      mul\n        /* \"#utility.yul\":16845:16942   */\n      tag_400\n        /* \"#utility.yul\":16875:16941   */\n      0xffffffffffffffffffffffffffffffffffffffffffffffffffffffffffffffff\n        /* \"#utility.yul\":16864:16873   */\n      dup3\n        /* \"#utility.yul\":16845:16942   */\n      tag_234\n      jump\t// in\n    tag_400:\n        /* \"#utility.yul\":16963:17002   */\n      tag_401\n        /* \"#utility.yul\":16993:17001   */\n      dup7\n        /* \"#utility.yul\":16982:16991   */\n      dup4\n        /* \"#utility.yul\":16963:17002   */\n      tag_234\n      jump\t// in\n    tag_401:\n        /* \"#utility.yul\":16951:17002   */\n      swap6\n      pop\n        /* \"#utility.yul\":17035:17039   */\n      dup1\n        /* \"#utility.yul\":17031:17040   */\n      not\n        /* \"#utility.yul\":17024:17029   */\n      dup5\n        /* \"#utility.yul\":17020:17041   */\n      and\n        /* \"#utility.yul\":17011:17041   */\n      swap4\n      pop\n        /* \"#utility.yul\":17084:17088   */\n      dup1\n        /* \"#utility.yul\":17074:17082   */\n      dup7\n        /* \"#utility.yul\":17070:17089   */\n      and\n        /* \"#utility.yul\":17063:17068   */\n      dup5\n        /* \"#utility.yul\":17060:17090   */\n      or\n        /* \"#utility.yul\":17050:17090   */\n      swap3\n      pop\n        /* \"#utility.yul\":16779:17096   */\n      pop\n      pop\n        /* \"#utility.yul\":16703:17096   */\n      swap4\n      swap3\n      pop\n      pop\n      pop\n      jump\t// out\n        /* \"#utility.yul\":17102:17162   */\n    tag_236:\n        /* \"#utility.yul\":17130:17133   */\n      0x00\n        /* \"#utility.yul\":17151:17156   */\n      dup2\n        /* \"#utility.yul\":17144:17156   */\n      swap1\n      pop\n        /* \"#utility.yul\":17102:17162   */\n      swap2\n      swap1\n      pop\n      jump\t// out\n        /* \"#utility.yul\":17168:17310   */\n    tag_237:\n        /* \"#utility.yul\":17218:17227   */\n      0x00\n        /* \"#utility.yul\":17251:17304   */\n      tag_404\n        /* \"#utility.yul\":17269:17303   */\n      tag_405\n        /* \"#utility.yul\":17278:17302   */\n      tag_406\n        /* \"#utility.yul\":17296:17301   */\n      dup5\n        /* \"#utility.yul\":17278:17302   */\n      tag_189\n      jump\t// in\n    tag_406:\n        /* \"#utility.yul\":17269:17303   */\n      tag_236\n      jump\t// in\n    tag_405:\n        /* \"#utility.yul\":17251:17304   */\n      tag_189\n      jump\t// in\n    tag_404:\n        /* \"#utility.yul\":17238:17304   */\n      swap1\n      pop\n        /* \"#utility.yul\":17168:17310   */\n      swap2\n      swap1\n      pop\n      jump\t// out\n        /* \"#utility.yul\":17316:17391   */\n    tag_238:\n        /* \"#utility.yul\":17359:17362   */\n      0x00\n        /* \"#utility.yul\":17380:17385   */\n      dup2\n        /* \"#utility.yul\":17373:17385   */\n      swap1\n      pop\n        /* \"#utility.yul\":17316:17391   */\n      swap2\n      swap1\n      pop\n      jump\t// out\n        /* \"#utility.yul\":17397:17666   */\n    tag_239:\n        /* \"#utility.yul\":17507:17546   */\n      tag_409\n        /* \"#utility.yul\":17538:17545   */\n      dup4\n        /* \"#utility.yul\":17507:17546   */\n      tag_237\n      jump\t// in\n    tag_409:\n        /* \"#utility.yul\":17568:17659   */\n      tag_410\n        /* \"#utility.yul\":17617:17658   */\n      tag_411\n        /* \"#utility.yul\":17641:17657   */\n      dup3\n        /* \"#utility.yul\":17617:17658   */\n      tag_238\n      jump\t// in\n    tag_411:\n        /* \"#utility.yul\":17609:17615   */\n      dup5\n        /* \"#utility.yul\":17602:17606   */\n      dup5\n        /* \"#utility.yul\":17596:17607   */\n      sload\n        /* \"#utility.yul\":17568:17659   */\n      tag_235\n      jump\t// in\n    tag_410:\n        /* \"#utility.yul\":17562:17566   */\n      dup3\n        /* \"#utility.yul\":17555:17660   */\n      sstore\n        /* \"#utility.yul\":17473:17666   */\n      pop\n        /* \"#utility.yul\":17397:17666   */\n      pop\n      pop\n      pop\n      jump\t// out\n        /* \"#utility.yul\":17672:17745   */\n    tag_240:\n        /* \"#utility.yul\":17717:17720   */\n      0x00\n        /* \"#utility.yul\":17672:17745   */\n      swap1\n      jump\t// out\n        /* \"#utility.yul\":17751:17940   */\n    tag_241:\n        /* \"#utility.yul\":17828:17860   */\n      tag_414\n      tag_240\n      jump\t// in\n    tag_414:\n        /* \"#utility.yul\":17869:17934   */\n      tag_415\n        /* \"#utility.yul\":17927:17933   */\n      dup2\n        /* \"#utility.yul\":17919:17925   */\n      dup5\n        /* \"#utility.yul\":17913:17917   */\n      dup5\n        /* \"#utility.yul\":17869:17934   */\n      tag_239\n      jump\t// in\n    tag_415:\n        /* \"#utility.yul\":17804:17940   */\n      pop\n        /* \"#utility.yul\":17751:17940   */\n      pop\n      pop\n      jump\t// out\n        /* \"#utility.yul\":17946:18132   */\n    tag_242:\n        /* \"#utility.yul\":18006:18126   */\n    tag_417:\n        /* \"#utility.yul\":18023:18026   */\n      dup2\n        /* \"#utility.yul\":18016:18021   */\n      dup2\n        /* \"#utility.yul\":18013:18027   */\n      lt\n        /* \"#utility.yul\":18006:18126   */\n      iszero\n      tag_419\n      jumpi\n        /* \"#utility.yul\":18077:18116   */\n      tag_420\n        /* \"#utility.yul\":18114:18115   */\n      0x00\n        /* \"#utility.yul\":18107:18112   */\n      dup3\n        /* \"#utility.yul\":18077:18116   */\n      tag_241\n      jump\t// in\n    tag_420:\n        /* \"#utility.yul\":18050:18051   */\n      0x01\n        /* \"#utility.yul\":18043:18048   */\n      dup2\n        /* \"#utility.yul\":18039:18052   */\n      add\n        /* \"#utility.yul\":18030:18052   */\n      swap1\n      pop\n        /* \"#utility.yul\":18006:18126   */\n      jump(tag_417)\n    tag_419:\n        /* \"#utility.yul\":17946:18132   */\n      pop\n      pop\n      jump\t// out\n        /* \"#utility.yul\":18138:18681   */\n    tag_243:\n        /* \"#utility.yul\":18239:18241   */\n      0x1f\n        /* \"#utility.yul\":18234:18237   */\n      dup3\n        /* \"#utility.yul\":18231:18242   */\n      gt\n        /* \"#utility.yul\":18228:18674   */\n      iszero\n      tag_422\n      jumpi\n        /* \"#utility.yul\":18273:18311   */\n      tag_423\n        /* \"#utility.yul\":18305:18310   */\n      dup2\n        /* \"#utility.yul\":18273:18311   */\n      tag_232\n      jump\t// in\n    tag_423:\n        /* \"#utility.yul\":18357:18386   */\n      tag_424\n        /* \"#utility.yul\":18375:18385   */\n      dup5\n        /* \"#utility.yul\":18357:18386   */\n      tag_233\n      jump\t// in\n    tag_424:\n        /* \"#utility.yul\":18347:18355   */\n      dup2\n        /* \"#utility.yul\":18343:18387   */\n      add\n        /* \"#utility.yul\":18540:18542   */\n      0x20\n        /* \"#utility.yul\":18528:18538   */\n      dup6\n        /* \"#utility.yul\":18525:18543   */\n      lt\n        /* \"#utility.yul\":18522:18571   */\n      iszero\n      tag_425\n      jumpi\n        /* \"#utility.yul\":18561:18569   */\n      dup2\n        /* \"#utility.yul\":18546:18569   */\n      swap1\n      pop\n        /* \"#utility.yul\":18522:18571   */\n    tag_425:\n        /* \"#utility.yul\":18584:18664   */\n      tag_426\n        /* \"#utility.yul\":18640:18662   */\n      tag_427\n        /* \"#utility.yul\":18658:18661   */\n      dup6\n        /* \"#utility.yul\":18640:18662   */\n      tag_233\n      jump\t// in\n    tag_427:\n        /* \"#utility.yul\":18630:18638   */\n      dup4\n        /* \"#utility.yul\":18626:18663   */\n      add\n        /* \"#utility.yul\":18613:18624   */\n      dup3\n        /* \"#utility.yul\":18584:18664   */\n      tag_242\n      jump\t// in\n    tag_426:\n        /* \"#utility.yul\":18243:18674   */\n      pop\n      pop\n        /* \"#utility.yul\":18228:18674   */\n    tag_422:\n        /* \"#utility.yul\":18138:18681   */\n      pop\n      pop\n      pop\n      jump\t// out\n        /* \"#utility.yul\":18687:18804   */\n    tag_244:\n        /* \"#utility.yul\":18741:18749   */\n      0x00\n        /* \"#utility.yul\":18791:18796   */\n      dup3\n        /* \"#utility.yul\":18785:18789   */\n      dup3\n        /* \"#utility.yul\":18781:18797   */\n      shr\n        /* \"#utility.yul\":18760:18797   */\n      swap1\n      pop\n        /* \"#utility.yul\":18687:18804   */\n      swap3\n      swap2\n      pop\n      pop\n      jump\t// out\n        /* \"#utility.yul\":18810:18979   */\n    tag_245:\n        /* \"#utility.yul\":18854:18860   */\n      0x00\n        /* \"#utility.yul\":18887:18938   */\n      tag_430\n        /* \"#utility.yul\":18935:18936   */\n      0x00\n        /* \"#utility.yul\":18931:18937   */\n      not\n        /* \"#utility.yul\":18923:18928   */\n      dup5\n        /* \"#utility.yul\":18920:18921   */\n      0x08\n        /* \"#utility.yul\":18916:18929   */\n      mul\n        /* \"#utility.yul\":18887:18938   */\n      tag_244\n      jump\t// in\n    tag_430:\n        /* \"#utility.yul\":18883:18939   */\n      not\n        /* \"#utility.yul\":18968:18972   */\n      dup1\n        /* \"#utility.yul\":18962:18966   */\n      dup4\n        /* \"#utility.yul\":18958:18973   */\n      and\n        /* \"#utility.yul\":18948:18973   */\n      swap2\n      pop\n        /* \"#utility.yul\":18861:18979   */\n      pop\n        /* \"#utility.yul\":18810:18979   */\n      swap3\n      swap2\n      pop\n      pop\n      jump\t// out\n        /* \"#utility.yul\":18984:19279   */\n    tag_246:\n        /* \"#utility.yul\":19060:19064   */\n      0x00\n        /* \"#utility.yul\":19206:19235   */\n      tag_432\n        /* \"#utility.yul\":19231:19234   */\n      dup4\n        /* \"#utility.yul\":19225:19229   */\n      dup4\n        /* \"#utility.yul\":19206:19235   */\n      tag_245\n      jump\t// in\n    tag_432:\n        /* \"#utility.yul\":19198:19235   */\n      swap2\n      pop\n        /* \"#utility.yul\":19268:19271   */\n      dup3\n        /* \"#utility.yul\":19265:19266   */\n      0x02\n        /* \"#utility.yul\":19261:19272   */\n      mul\n        /* \"#utility.yul\":19255:19259   */\n      dup3\n        /* \"#utility.yul\":19252:19273   */\n      or\n        /* \"#utility.yul\":19244:19273   */\n      swap1\n      pop\n        /* \"#utility.yul\":18984:19279   */\n      swap3\n      swap2\n      pop\n      pop\n      jump\t// out\n        /* \"#utility.yul\":19284:20679   */\n    tag_104:\n        /* \"#utility.yul\":19401:19438   */\n      tag_434\n        /* \"#utility.yul\":19434:19437   */\n      dup3\n        /* \"#utility.yul\":19401:19438   */\n      tag_196\n      jump\t// in\n    tag_434:\n        /* \"#utility.yul\":19503:19521   */\n      0xffffffffffffffff\n        /* \"#utility.yul\":19495:19501   */\n      dup2\n        /* \"#utility.yul\":19492:19522   */\n      gt\n        /* \"#utility.yul\":19489:19545   */\n      iszero\n      tag_435\n      jumpi\n        /* \"#utility.yul\":19525:19543   */\n      tag_436\n      tag_213\n      jump\t// in\n    tag_436:\n        /* \"#utility.yul\":19489:19545   */\n    tag_435:\n        /* \"#utility.yul\":19569:19607   */\n      tag_437\n        /* \"#utility.yul\":19601:19605   */\n      dup3\n        /* \"#utility.yul\":19595:19606   */\n      sload\n        /* \"#utility.yul\":19569:19607   */\n      tag_90\n      jump\t// in\n    tag_437:\n        /* \"#utility.yul\":19654:19721   */\n      tag_438\n        /* \"#utility.yul\":19714:19720   */\n      dup3\n        /* \"#utility.yul\":19706:19712   */\n      dup3\n        /* \"#utility.yul\":19700:19704   */\n      dup6\n        /* \"#utility.yul\":19654:19721   */\n      tag_243\n      jump\t// in\n    tag_438:\n        /* \"#utility.yul\":19748:19749   */\n      0x00\n        /* \"#utility.yul\":19772:19776   */\n      0x20\n        /* \"#utility.yul\":19759:19776   */\n      swap1\n      pop\n        /* \"#utility.yul\":19804:19806   */\n      0x1f\n        /* \"#utility.yul\":19796:19802   */\n      dup4\n        /* \"#utility.yul\":19793:19807   */\n      gt\n        /* \"#utility.yul\":19821:19822   */\n      0x01\n        /* \"#utility.yul\":19816:20434   */\n      dup2\n      eq\n      tag_440\n      jumpi\n        /* \"#utility.yul\":20478:20479   */\n      0x00\n        /* \"#utility.yul\":20495:20501   */\n      dup5\n        /* \"#utility.yul\":20492:20569   */\n      iszero\n      tag_441\n      jumpi\n        /* \"#utility.yul\":20544:20553   */\n      dup3\n        /* \"#utility.yul\":20539:20542   */\n      dup8\n        /* \"#utility.yul\":20535:20554   */\n      add\n        /* \"#utility.yul\":20529:20555   */\n      mload\n        /* \"#utility.yul\":20520:20555   */\n      swap1\n      pop\n        /* \"#utility.yul\":20492:20569   */\n    tag_441:\n        /* \"#utility.yul\":20595:20662   */\n      tag_442\n        /* \"#utility.yul\":20655:20661   */\n      dup6\n        /* \"#utility.yul\":20648:20653   */\n      dup3\n        /* \"#utility.yul\":20595:20662   */\n      tag_246\n      jump\t// in\n    tag_442:\n        /* \"#utility.yul\":20589:20593   */\n      dup7\n        /* \"#utility.yul\":20582:20663   */\n      sstore\n        /* \"#utility.yul\":20451:20673   */\n      pop\n        /* \"#utility.yul\":19786:20673   */\n      jump(tag_439)\n        /* \"#utility.yul\":19816:20434   */\n    tag_440:\n        /* \"#utility.yul\":19868:19872   */\n      0x1f\n        /* \"#utility.yul\":19864:19873   */\n      not\n        /* \"#utility.yul\":19856:19862   */\n      dup5\n        /* \"#utility.yul\":19852:19874   */\n      and\n        /* \"#utility.yul\":19902:19939   */\n      tag_443\n        /* \"#utility.yul\":19934:19938   */\n      dup7\n        /* \"#utility.yul\":19902:19939   */\n      tag_232\n      jump\t// in\n    tag_443:\n        /* \"#utility.yul\":19961:19962   */\n      0x00\n        /* \"#utility.yul\":19975:20183   */\n    tag_444:\n        /* \"#utility.yul\":19989:19996   */\n      dup3\n        /* \"#utility.yul\":19986:19987   */\n      dup2\n        /* \"#utility.yul\":19983:19997   */\n      lt\n        /* \"#utility.yul\":19975:20183   */\n      iszero\n      tag_446\n      jumpi\n        /* \"#utility.yul\":20068:20077   */\n      dup5\n        /* \"#utility.yul\":20063:20066   */\n      dup10\n        /* \"#utility.yul\":20059:20078   */\n      add\n        /* \"#utility.yul\":20053:20079   */\n      mload\n        /* \"#utility.yul\":20045:20051   */\n      dup3\n        /* \"#utility.yul\":20038:20080   */\n      sstore\n        /* \"#utility.yul\":20119:20120   */\n      0x01\n        /* \"#utility.yul\":20111:20117   */\n      dup3\n        /* \"#utility.yul\":20107:20121   */\n      add\n        /* \"#utility.yul\":20097:20121   */\n      swap2\n      pop\n        /* \"#utility.yul\":20166:20168   */\n      0x20\n        /* \"#utility.yul\":20155:20164   */\n      dup6\n        /* \"#utility.yul\":20151:20169   */\n      add\n        /* \"#utility.yul\":20138:20169   */\n      swap5\n      pop\n        /* \"#utility.yul\":20012:20016   */\n      0x20\n        /* \"#utility.yul\":20009:20010   */\n      dup2\n        /* \"#utility.yul\":20005:20017   */\n      add\n        /* \"#utility.yul\":20000:20017   */\n      swap1\n      pop\n        /* \"#utility.yul\":19975:20183   */\n      jump(tag_444)\n    tag_446:\n        /* \"#utility.yul\":20211:20217   */\n      dup7\n        /* \"#utility.yul\":20202:20209   */\n      dup4\n        /* \"#utility.yul\":20199:20218   */\n      lt\n        /* \"#utility.yul\":20196:20375   */\n      iszero\n      tag_447\n      jumpi\n        /* \"#utility.yul\":20269:20278   */\n      dup5\n        /* \"#utility.yul\":20264:20267   */\n      dup10\n        /* \"#utility.yul\":20260:20279   */\n      add\n        /* \"#utility.yul\":20254:20280   */\n      mload\n        /* \"#utility.yul\":20312:20360   */\n      tag_448\n        /* \"#utility.yul\":20354:20358   */\n      0x1f\n        /* \"#utility.yul\":20346:20352   */\n      dup10\n        /* \"#utility.yul\":20342:20359   */\n      and\n        /* \"#utility.yul\":20331:20340   */\n      dup3\n        /* \"#utility.yul\":20312:20360   */\n      tag_245\n      jump\t// in\n    tag_448:\n        /* \"#utility.yul\":20304:20310   */\n      dup4\n        /* \"#utility.yul\":20297:20361   */\n      sstore\n        /* \"#utility.yul\":20219:20375   */\n      pop\n        /* \"#utility.yul\":20196:20375   */\n    tag_447:\n        /* \"#utility.yul\":20421:20422   */\n      0x01\n        /* \"#utility.yul\":20417:20418   */\n      0x02\n        /* \"#utility.yul\":20409:20415   */\n      dup9\n        /* \"#utility.yul\":20405:20419   */\n      mul\n        /* \"#utility.yul\":20401:20423   */\n      add\n        /* \"#utility.yul\":20395:20399   */\n      dup9\n        /* \"#utility.yul\":20388:20424   */\n      sstore\n        /* \"#utility.yul\":19823:20434   */\n      pop\n      pop\n      pop\n        /* \"#utility.yul\":19786:20673   */\n    tag_439:\n      pop\n        /* \"#utility.yul\":19376:20679   */\n      pop\n      pop\n      pop\n        /* \"#utility.yul\":19284:20679   */\n      pop\n      pop\n      jump\t// out\n        /* \"#utility.yul\":20685:20803   */\n    tag_247:\n        /* \"#utility.yul\":20772:20796   */\n      tag_450\n        /* \"#utility.yul\":20790:20795   */\n      dup2\n        /* \"#utility.yul\":20772:20796   */\n      tag_202\n      jump\t// in\n    tag_450:\n        /* \"#utility.yul\":20767:20770   */\n      dup3\n        /* \"#utility.yul\":20760:20797   */\n      mstore\n        /* \"#utility.yul\":20685:20803   */\n      pop\n      pop\n      jump\t// out\n        /* \"#utility.yul\":20809:21186   */\n    tag_248:\n        /* \"#utility.yul\":20897:20900   */\n      0x00\n        /* \"#utility.yul\":20925:20964   */\n      tag_452\n        /* \"#utility.yul\":20958:20963   */\n      dup3\n        /* \"#utility.yul\":20925:20964   */\n      tag_196\n      jump\t// in\n    tag_452:\n        /* \"#utility.yul\":20980:21051   */\n      tag_453\n        /* \"#utility.yul\":21044:21050   */\n      dup2\n        /* \"#utility.yul\":21039:21042   */\n      dup6\n        /* \"#utility.yul\":20980:21051   */\n      tag_223\n      jump\t// in\n    tag_453:\n        /* \"#utility.yul\":20973:21051   */\n      swap4\n      pop\n        /* \"#utility.yul\":21060:21125   */\n      tag_454\n        /* \"#utility.yul\":21118:21124   */\n      dup2\n        /* \"#utility.yul\":21113:21116   */\n      dup6\n        /* \"#utility.yul\":21106:21110   */\n      0x20\n        /* \"#utility.yul\":21099:21104   */\n      dup7\n        /* \"#utility.yul\":21095:21111   */\n      add\n        /* \"#utility.yul\":21060:21125   */\n      tag_198\n      jump\t// in\n    tag_454:\n        /* \"#utility.yul\":21150:21179   */\n      tag_455\n        /* \"#utility.yul\":21172:21178   */\n      dup2\n        /* \"#utility.yul\":21150:21179   */\n      tag_199\n      jump\t// in\n    tag_455:\n        /* \"#utility.yul\":21145:21148   */\n      dup5\n        /* \"#utility.yul\":21141:21180   */\n      add\n        /* \"#utility.yul\":21134:21180   */\n      swap2\n      pop\n        /* \"#utility.yul\":20901:21186   */\n      pop\n        /* \"#utility.yul\":20809:21186   */\n      swap3\n      swap2\n      pop\n      pop\n      jump\t// out\n        /* \"#utility.yul\":21192:21615   */\n    tag_106:\n        /* \"#utility.yul\":21333:21337   */\n      0x00\n        /* \"#utility.yul\":21371:21373   */\n      0x40\n        /* \"#utility.yul\":21360:21369   */\n      dup3\n        /* \"#utility.yul\":21356:21374   */\n      add\n        /* \"#utility.yul\":21348:21374   */\n      swap1\n      pop\n        /* \"#utility.yul\":21384:21455   */\n      tag_457\n        /* \"#utility.yul\":21452:21453   */\n      0x00\n        /* \"#utility.yul\":21441:21450   */\n      dup4\n        /* \"#utility.yul\":21437:21454   */\n      add\n        /* \"#utility.yul\":21428:21434   */\n      dup6\n        /* \"#utility.yul\":21384:21455   */\n      tag_247\n      jump\t// in\n    tag_457:\n        /* \"#utility.yul\":21502:21511   */\n      dup2\n        /* \"#utility.yul\":21496:21500   */\n      dup2\n        /* \"#utility.yul\":21492:21512   */\n      sub\n        /* \"#utility.yul\":21487:21489   */\n      0x20\n        /* \"#utility.yul\":21476:21485   */\n      dup4\n        /* \"#utility.yul\":21472:21490   */\n      add\n        /* \"#utility.yul\":21465:21513   */\n      mstore\n        /* \"#utility.yul\":21530:21608   */\n      tag_458\n        /* \"#utility.yul\":21603:21607   */\n      dup2\n        /* \"#utility.yul\":21594:21600   */\n      dup5\n        /* \"#utility.yul\":21530:21608   */\n      tag_248\n      jump\t// in\n    tag_458:\n        /* \"#utility.yul\":21522:21608   */\n      swap1\n      pop\n        /* \"#utility.yul\":21192:21615   */\n      swap4\n      swap3\n      pop\n      pop\n      pop\n      jump\t// out\n        /* \"#utility.yul\":21621:21801   */\n    tag_249:\n        /* \"#utility.yul\":21669:21746   */\n      0x4e487b7100000000000000000000000000000000000000000000000000000000\n        /* \"#utility.yul\":21666:21667   */\n      0x00\n        /* \"#utility.yul\":21659:21747   */\n      mstore\n        /* \"#utility.yul\":21766:21770   */\n      0x12\n        /* \"#utility.yul\":21763:21764   */\n      0x04\n        /* \"#utility.yul\":21756:21771   */\n      mstore\n        /* \"#utility.yul\":21790:21794   */\n      0x24\n        /* \"#utility.yul\":21787:21788   */\n      0x00\n        /* \"#utility.yul\":21780:21795   */\n      revert\n        /* \"#utility.yul\":21807:21992   */\n    tag_141:\n        /* \"#utility.yul\":21847:21848   */\n      0x00\n        /* \"#utility.yul\":21864:21884   */\n      tag_461\n        /* \"#utility.yul\":21882:21883   */\n      dup3\n        /* \"#utility.yul\":21864:21884   */\n      tag_189\n      jump\t// in\n    tag_461:\n        /* \"#utility.yul\":21859:21884   */\n      swap2\n      pop\n        /* \"#utility.yul\":21898:21918   */\n      tag_462\n        /* \"#utility.yul\":21916:21917   */\n      dup4\n        /* \"#utility.yul\":21898:21918   */\n      tag_189\n      jump\t// in\n    tag_462:\n        /* \"#utility.yul\":21893:21918   */\n      swap3\n      pop\n        /* \"#utility.yul\":21937:21938   */\n      dup3\n        /* \"#utility.yul\":21927:21962   */\n      tag_463\n      jumpi\n        /* \"#utility.yul\":21942:21960   */\n      tag_464\n      tag_249\n      jump\t// in\n    tag_464:\n        /* \"#utility.yul\":21927:21962   */\n    tag_463:\n        /* \"#utility.yul\":21984:21985   */\n      dup3\n        /* \"#utility.yul\":21981:21982   */\n      dup3\n        /* \"#utility.yul\":21977:21986   */\n      div\n        /* \"#utility.yul\":21972:21986   */\n      swap1\n      pop\n        /* \"#utility.yul\":21807:21992   */\n      swap3\n      swap2\n      pop\n      pop\n      jump\t// out\n        /* \"#utility.yul\":22022:22853   */\n    tag_250:\n        /* \"#utility.yul\":22107:22110   */\n      0x00\n        /* \"#utility.yul\":22144:22149   */\n      dup2\n        /* \"#utility.yul\":22138:22150   */\n      sload\n        /* \"#utility.yul\":22173:22209   */\n      tag_466\n        /* \"#utility.yul\":22199:22208   */\n      dup2\n        /* \"#utility.yul\":22173:22209   */\n      tag_90\n      jump\t// in\n    tag_466:\n        /* \"#utility.yul\":22225:22296   */\n      tag_467\n        /* \"#utility.yul\":22289:22295   */\n      dup2\n        /* \"#utility.yul\":22284:22287   */\n      dup7\n        /* \"#utility.yul\":22225:22296   */\n      tag_223\n      jump\t// in\n    tag_467:\n        /* \"#utility.yul\":22218:22296   */\n      swap5\n      pop\n        /* \"#utility.yul\":22327:22328   */\n      0x01\n        /* \"#utility.yul\":22316:22325   */\n      dup3\n        /* \"#utility.yul\":22312:22329   */\n      and\n        /* \"#utility.yul\":22343:22344   */\n      0x00\n        /* \"#utility.yul\":22338:22502   */\n      dup2\n      eq\n      tag_469\n      jumpi\n        /* \"#utility.yul\":22516:22517   */\n      0x01\n        /* \"#utility.yul\":22511:22847   */\n      dup2\n      eq\n      tag_470\n      jumpi\n        /* \"#utility.yul\":22305:22847   */\n      jump(tag_468)\n        /* \"#utility.yul\":22338:22502   */\n    tag_469:\n        /* \"#utility.yul\":22422:22426   */\n      0xff\n        /* \"#utility.yul\":22418:22427   */\n      not\n        /* \"#utility.yul\":22407:22416   */\n      dup4\n        /* \"#utility.yul\":22403:22428   */\n      and\n        /* \"#utility.yul\":22398:22401   */\n      dup7\n        /* \"#utility.yul\":22391:22429   */\n      mstore\n        /* \"#utility.yul\":22482:22488   */\n      dup2\n        /* \"#utility.yul\":22475:22489   */\n      iszero\n        /* \"#utility.yul\":22468:22490   */\n      iszero\n        /* \"#utility.yul\":22462:22466   */\n      0x20\n        /* \"#utility.yul\":22458:22491   */\n      mul\n        /* \"#utility.yul\":22453:22456   */\n      dup7\n        /* \"#utility.yul\":22449:22492   */\n      add\n        /* \"#utility.yul\":22442:22492   */\n      swap4\n      pop\n        /* \"#utility.yul\":22338:22502   */\n      jump(tag_468)\n        /* \"#utility.yul\":22511:22847   */\n    tag_470:\n        /* \"#utility.yul\":22578:22616   */\n      tag_471\n        /* \"#utility.yul\":22610:22615   */\n      dup6\n        /* \"#utility.yul\":22578:22616   */\n      tag_232\n      jump\t// in\n    tag_471:\n        /* \"#utility.yul\":22638:22639   */\n      0x00\n        /* \"#utility.yul\":22652:22806   */\n    tag_472:\n        /* \"#utility.yul\":22666:22672   */\n      dup4\n        /* \"#utility.yul\":22663:22664   */\n      dup2\n        /* \"#utility.yul\":22660:22673   */\n      lt\n        /* \"#utility.yul\":22652:22806   */\n      iszero\n      tag_474\n      jumpi\n        /* \"#utility.yul\":22740:22747   */\n      dup2\n        /* \"#utility.yul\":22734:22748   */\n      sload\n        /* \"#utility.yul\":22730:22731   */\n      dup2\n        /* \"#utility.yul\":22725:22728   */\n      dup10\n        /* \"#utility.yul\":22721:22732   */\n      add\n        /* \"#utility.yul\":22714:22749   */\n      mstore\n        /* \"#utility.yul\":22790:22791   */\n      0x01\n        /* \"#utility.yul\":22781:22788   */\n      dup3\n        /* \"#utility.yul\":22777:22792   */\n      add\n        /* \"#utility.yul\":22766:22792   */\n      swap2\n      pop\n        /* \"#utility.yul\":22688:22692   */\n      0x20\n        /* \"#utility.yul\":22685:22686   */\n      dup2\n        /* \"#utility.yul\":22681:22693   */\n      add\n        /* \"#utility.yul\":22676:22693   */\n      swap1\n      pop\n        /* \"#utility.yul\":22652:22806   */\n      jump(tag_472)\n    tag_474:\n        /* \"#utility.yul\":22835:22836   */\n      dup1\n        /* \"#utility.yul\":22830:22833   */\n      dup9\n        /* \"#utility.yul\":22826:22837   */\n      add\n        /* \"#utility.yul\":22819:22837   */\n      swap6\n      pop\n        /* \"#utility.yul\":22518:22847   */\n      pop\n      pop\n        /* \"#utility.yul\":22305:22847   */\n    tag_468:\n      pop\n        /* \"#utility.yul\":22111:22853   */\n      pop\n      pop\n        /* \"#utility.yul\":22022:22853   */\n      swap3\n      swap2\n      pop\n      pop\n      jump\t// out\n        /* \"#utility.yul\":22859:23276   */\n    tag_152:\n        /* \"#utility.yul\":22997:23001   */\n      0x00\n        /* \"#utility.yul\":23035:23037   */\n      0x40\n        /* \"#utility.yul\":23024:23033   */\n      dup3\n        /* \"#utility.yul\":23020:23038   */\n      add\n        /* \"#utility.yul\":23012:23038   */\n      swap1\n      pop\n        /* \"#utility.yul\":23084:23093   */\n      dup2\n        /* \"#utility.yul\":23078:23082   */\n      dup2\n        /* \"#utility.yul\":23074:23094   */\n      sub\n        /* \"#utility.yul\":23070:23071   */\n      0x00\n        /* \"#utility.yul\":23059:23068   */\n      dup4\n        /* \"#utility.yul\":23055:23072   */\n      add\n        /* \"#utility.yul\":23048:23095   */\n      mstore\n        /* \"#utility.yul\":23112:23187   */\n      tag_476\n        /* \"#utility.yul\":23182:23186   */\n      dup2\n        /* \"#utility.yul\":23173:23179   */\n      dup6\n        /* \"#utility.yul\":23112:23187   */\n      tag_250\n      jump\t// in\n    tag_476:\n        /* \"#utility.yul\":23104:23187   */\n      swap1\n      pop\n        /* \"#utility.yul\":23197:23269   */\n      tag_477\n        /* \"#utility.yul\":23265:23267   */\n      0x20\n        /* \"#utility.yul\":23254:23263   */\n      dup4\n        /* \"#utility.yul\":23250:23268   */\n      add\n        /* \"#utility.yul\":23241:23247   */\n      dup5\n        /* \"#utility.yul\":23197:23269   */\n      tag_247\n      jump\t// in\n    tag_477:\n        /* \"#utility.yul\":22859:23276   */\n      swap4\n      swap3\n      pop\n      pop\n      pop\n      jump\t// out\n        /* \"#utility.yul\":23282:23358   */\n    tag_251:\n        /* \"#utility.yul\":23318:23325   */\n      0x00\n        /* \"#utility.yul\":23347:23352   */\n      dup2\n        /* \"#utility.yul\":23336:23352   */\n      swap1\n      pop\n        /* \"#utility.yul\":23282:23358   */\n      swap2\n      swap1\n      pop\n      jump\t// out\n        /* \"#utility.yul\":23364:23739   */\n    tag_155:\n        /* \"#utility.yul\":23403:23406   */\n      0x00\n        /* \"#utility.yul\":23422:23441   */\n      tag_480\n        /* \"#utility.yul\":23439:23440   */\n      dup3\n        /* \"#utility.yul\":23422:23441   */\n      tag_251\n      jump\t// in\n    tag_480:\n        /* \"#utility.yul\":23417:23441   */\n      swap2\n      pop\n        /* \"#utility.yul\":23455:23474   */\n      tag_481\n        /* \"#utility.yul\":23472:23473   */\n      dup4\n        /* \"#utility.yul\":23455:23474   */\n      tag_251\n      jump\t// in\n    tag_481:\n        /* \"#utility.yul\":23450:23474   */\n      swap3\n      pop\n        /* \"#utility.yul\":23497:23498   */\n      dup3\n        /* \"#utility.yul\":23494:23495   */\n      dup3\n        /* \"#utility.yul\":23490:23499   */\n      add\n        /* \"#utility.yul\":23483:23499   */\n      swap1\n      pop\n        /* \"#utility.yul\":23695:23696   */\n      dup3\n        /* \"#utility.yul\":23690:23693   */\n      dup2\n        /* \"#utility.yul\":23686:23697   */\n      slt\n        /* \"#utility.yul\":23679:23698   */\n      iszero\n        /* \"#utility.yul\":23675:23676   */\n      0x00\n        /* \"#utility.yul\":23672:23673   */\n      dup4\n        /* \"#utility.yul\":23668:23677   */\n      slt\n        /* \"#utility.yul\":23664:23699   */\n      and\n        /* \"#utility.yul\":23647:23648   */\n      dup4\n        /* \"#utility.yul\":23642:23645   */\n      dup3\n        /* \"#utility.yul\":23638:23649   */\n      slt\n        /* \"#utility.yul\":23633:23634   */\n      0x00\n        /* \"#utility.yul\":23630:23631   */\n      dup5\n        /* \"#utility.yul\":23626:23635   */\n      slt\n        /* \"#utility.yul\":23619:23636   */\n      iszero\n        /* \"#utility.yul\":23615:23650   */\n      and\n        /* \"#utility.yul\":23599:23709   */\n      or\n        /* \"#utility.yul\":23596:23732   */\n      iszero\n      tag_482\n      jumpi\n        /* \"#utility.yul\":23712:23730   */\n      tag_483\n      tag_228\n      jump\t// in\n    tag_483:\n        /* \"#utility.yul\":23596:23732   */\n    tag_482:\n        /* \"#utility.yul\":23364:23739   */\n      swap3\n      swap2\n      pop\n      pop\n      jump\t// out\n        /* \"#utility.yul\":23745:24301   */\n    tag_158:\n        /* \"#utility.yul\":23784:23791   */\n      0x00\n        /* \"#utility.yul\":23807:23826   */\n      tag_485\n        /* \"#utility.yul\":23824:23825   */\n      dup3\n        /* \"#utility.yul\":23807:23826   */\n      tag_251\n      jump\t// in\n    tag_485:\n        /* \"#utility.yul\":23802:23826   */\n      swap2\n      pop\n        /* \"#utility.yul\":23840:23859   */\n      tag_486\n        /* \"#utility.yul\":23857:23858   */\n      dup4\n        /* \"#utility.yul\":23840:23859   */\n      tag_251\n      jump\t// in\n    tag_486:\n        /* \"#utility.yul\":23835:23859   */\n      swap3\n      pop\n        /* \"#utility.yul\":23894:23895   */\n      dup3\n        /* \"#utility.yul\":23891:23892   */\n      dup3\n        /* \"#utility.yul\":23887:23896   */\n      mul\n        /* \"#utility.yul\":23916:23945   */\n      tag_487\n        /* \"#utility.yul\":23933:23944   */\n      dup2\n        /* \"#utility.yul\":23916:23945   */\n      tag_251\n      jump\t// in\n    tag_487:\n        /* \"#utility.yul\":23905:23945   */\n      swap2\n      pop\n        /* \"#utility.yul\":24003:24069   */\n      0x8000000000000000000000000000000000000000000000000000000000000000\n        /* \"#utility.yul\":24000:24001   */\n      dup5\n        /* \"#utility.yul\":23997:24070   */\n      eq\n        /* \"#utility.yul\":23993:23994   */\n      0x00\n        /* \"#utility.yul\":23990:23991   */\n      dup5\n        /* \"#utility.yul\":23986:23995   */\n      slt\n        /* \"#utility.yul\":23982:24071   */\n      and\n        /* \"#utility.yul\":23979:24094   */\n      iszero\n      tag_488\n      jumpi\n        /* \"#utility.yul\":24074:24092   */\n      tag_489\n      tag_228\n      jump\t// in\n    tag_489:\n        /* \"#utility.yul\":23979:24094   */\n    tag_488:\n        /* \"#utility.yul\":24244:24245   */\n      dup3\n        /* \"#utility.yul\":24235:24242   */\n      dup3\n        /* \"#utility.yul\":24230:24246   */\n      sdiv\n        /* \"#utility.yul\":24227:24228   */\n      dup5\n        /* \"#utility.yul\":24224:24247   */\n      eq\n        /* \"#utility.yul\":24204:24205   */\n      dup4\n        /* \"#utility.yul\":24197:24206   */\n      iszero\n        /* \"#utility.yul\":24177:24261   */\n      or\n        /* \"#utility.yul\":24154:24294   */\n      tag_490\n      jumpi\n        /* \"#utility.yul\":24274:24292   */\n      tag_491\n      tag_228\n      jump\t// in\n    tag_491:\n        /* \"#utility.yul\":24154:24294   */\n    tag_490:\n        /* \"#utility.yul\":23792:24301   */\n      pop\n        /* \"#utility.yul\":23745:24301   */\n      swap3\n      swap2\n      pop\n      pop\n      jump\t// out\n        /* \"#utility.yul\":24307:24692   */\n    tag_160:\n        /* \"#utility.yul\":24346:24347   */\n      0x00\n        /* \"#utility.yul\":24363:24382   */\n      tag_493\n        /* \"#utility.yul\":24380:24381   */\n      dup3\n        /* \"#utility.yul\":24363:24382   */\n      tag_251\n      jump\t// in\n    tag_493:\n        /* \"#utility.yul\":24358:24382   */\n      swap2\n      pop\n        /* \"#utility.yul\":24396:24415   */\n      tag_494\n        /* \"#utility.yul\":24413:24414   */\n      dup4\n        /* \"#utility.yul\":24396:24415   */\n      tag_251\n      jump\t// in\n    tag_494:\n        /* \"#utility.yul\":24391:24415   */\n      swap3\n      pop\n        /* \"#utility.yul\":24434:24435   */\n      dup3\n        /* \"#utility.yul\":24424:24459   */\n      tag_495\n      jumpi\n        /* \"#utility.yul\":24439:24457   */\n      tag_496\n      tag_249\n      jump\t// in\n    tag_496:\n        /* \"#utility.yul\":24424:24459   */\n    tag_495:\n        /* \"#utility.yul\":24625:24626   */\n      0x01\n        /* \"#utility.yul\":24622:24623   */\n      0x00\n        /* \"#utility.yul\":24618:24627   */\n      sub\n        /* \"#utility.yul\":24615:24616   */\n      dup4\n        /* \"#utility.yul\":24612:24628   */\n      eq\n        /* \"#utility.yul\":24531:24597   */\n      0x8000000000000000000000000000000000000000000000000000000000000000\n        /* \"#utility.yul\":24528:24529   */\n      dup4\n        /* \"#utility.yul\":24525:24598   */\n      eq\n        /* \"#utility.yul\":24508:24638   */\n      and\n        /* \"#utility.yul\":24505:24661   */\n      iszero\n      tag_497\n      jumpi\n        /* \"#utility.yul\":24641:24659   */\n      tag_498\n      tag_228\n      jump\t// in\n    tag_498:\n        /* \"#utility.yul\":24505:24661   */\n    tag_497:\n        /* \"#utility.yul\":24684:24685   */\n      dup3\n        /* \"#utility.yul\":24681:24682   */\n      dup3\n        /* \"#utility.yul\":24676:24686   */\n      sdiv\n        /* \"#utility.yul\":24671:24686   */\n      swap1\n      pop\n        /* \"#utility.yul\":24307:24692   */\n      swap3\n      swap2\n      pop\n      pop\n      jump\t// out\n        /* \"#utility.yul\":24698:25070   */\n    tag_165:\n        /* \"#utility.yul\":24737:24741   */\n      0x00\n        /* \"#utility.yul\":24757:24776   */\n      tag_500\n        /* \"#utility.yul\":24774:24775   */\n      dup3\n        /* \"#utility.yul\":24757:24776   */\n      tag_251\n      jump\t// in\n    tag_500:\n        /* \"#utility.yul\":24752:24776   */\n      swap2\n      pop\n        /* \"#utility.yul\":24790:24809   */\n      tag_501\n        /* \"#utility.yul\":24807:24808   */\n      dup4\n        /* \"#utility.yul\":24790:24809   */\n      tag_251\n      jump\t// in\n    tag_501:\n        /* \"#utility.yul\":24785:24809   */\n      swap3\n      pop\n        /* \"#utility.yul\":24833:24834   */\n      dup3\n        /* \"#utility.yul\":24830:24831   */\n      dup3\n        /* \"#utility.yul\":24826:24835   */\n      sub\n        /* \"#utility.yul\":24818:24835   */\n      swap1\n      pop\n        /* \"#utility.yul\":25027:25028   */\n      dup2\n        /* \"#utility.yul\":25021:25025   */\n      dup2\n        /* \"#utility.yul\":25017:25029   */\n      slt\n        /* \"#utility.yul\":25013:25014   */\n      0x00\n        /* \"#utility.yul\":25010:25011   */\n      dup5\n        /* \"#utility.yul\":25006:25015   */\n      slt\n        /* \"#utility.yul\":25002:25030   */\n      and\n        /* \"#utility.yul\":24985:24986   */\n      dup3\n        /* \"#utility.yul\":24979:24983   */\n      dup3\n        /* \"#utility.yul\":24975:24987   */\n      sgt\n        /* \"#utility.yul\":24970:24971   */\n      0x00\n        /* \"#utility.yul\":24967:24968   */\n      dup6\n        /* \"#utility.yul\":24963:24972   */\n      slt\n        /* \"#utility.yul\":24956:24973   */\n      iszero\n        /* \"#utility.yul\":24952:24988   */\n      and\n        /* \"#utility.yul\":24936:25040   */\n      or\n        /* \"#utility.yul\":24933:25063   */\n      iszero\n      tag_502\n      jumpi\n        /* \"#utility.yul\":25043:25061   */\n      tag_503\n      tag_228\n      jump\t// in\n    tag_503:\n        /* \"#utility.yul\":24933:25063   */\n    tag_502:\n        /* \"#utility.yul\":24698:25070   */\n      swap3\n      swap2\n      pop\n      pop\n      jump\t// out\n\n    auxdata: 0xa2646970667358221220bbba889d965fed40773be1c3995cc0df8373c8d55a614d347ee28c66254a98c764736f6c63430008120033\n}\n",
				"bytecode": {
					"linkReferences": {},
					"object": "60806040523480156200001157600080fd5b506040518060400160405280600381526020017f6d61780000000000000000000000000000000000000000000000000000000000815250600090816200005891906200031a565b5033600160006101000a81548173ffffffffffffffffffffffffffffffffffffffff021916908373ffffffffffffffffffffffffffffffffffffffff16021790555062000401565b600081519050919050565b7f4e487b7100000000000000000000000000000000000000000000000000000000600052604160045260246000fd5b7f4e487b7100000000000000000000000000000000000000000000000000000000600052602260045260246000fd5b600060028204905060018216806200012257607f821691505b602082108103620001385762000137620000da565b5b50919050565b60008190508160005260206000209050919050565b60006020601f8301049050919050565b600082821b905092915050565b600060088302620001a27fffffffffffffffffffffffffffffffffffffffffffffffffffffffffffffffff8262000163565b620001ae868362000163565b95508019841693508086168417925050509392505050565b6000819050919050565b6000819050919050565b6000620001fb620001f5620001ef84620001c6565b620001d0565b620001c6565b9050919050565b6000819050919050565b6200021783620001da565b6200022f620002268262000202565b84845462000170565b825550505050565b600090565b6200024662000237565b620002538184846200020c565b505050565b5b818110156200027b576200026f6000826200023c565b60018101905062000259565b5050565b601f821115620002ca5762000294816200013e565b6200029f8462000153565b81016020851015620002af578190505b620002c7620002be8562000153565b83018262000258565b50505b505050565b600082821c905092915050565b6000620002ef60001984600802620002cf565b1980831691505092915050565b60006200030a8383620002dc565b9150826002028217905092915050565b6200032582620000a0565b67ffffffffffffffff811115620003415762000340620000ab565b5b6200034d825462000109565b6200035a8282856200027f565b600060209050601f8311600181146200039257600084156200037d578287015190505b620003898582620002fc565b865550620003f9565b601f198416620003a2866200013e565b60005b82811015620003cc57848901518255600182019150602085019450602081019050620003a5565b86831015620003ec5784890151620003e8601f891682620002dc565b8355505b6001600288020188555050505b505050505050565b611b7580620004116000396000f3fe6080604052600436106100865760003560e01c8063b9e1189e11610059578063b9e1189e14610135578063d0e30db014610172578063e03cf9dc1461017c578063e792ec4f146101a5578063eed2157c146101e257610086565b80632b57298b1461008b5780635bd2d868146100ca5780638bce6edd146100e1578063b06419341461010c575b600080fd5b34801561009757600080fd5b506100b260048036038101906100ad9190610ded565b61020d565b6040516100c193929190610e29565b60405180910390f35b3480156100d657600080fd5b506100df61022e565b005b3480156100ed57600080fd5b506100f6610480565b6040516101039190611065565b60405180910390f35b34801561011857600080fd5b50610133600480360381019061012e91906111e8565b6105db565b005b34801561014157600080fd5b5061015c60048036038101906101579190610ded565b6107f3565b6040516101699190611286565b60405180910390f35b61017a61085e565b005b34801561018857600080fd5b506101a3600480360381019061019e9190610ded565b610860565b005b3480156101b157600080fd5b506101cc60048036038101906101c79190610ded565b6109a4565b6040516101d99190611304565b60405180910390f35b3480156101ee57600080fd5b506101f7610adc565b6040516102049190611326565b60405180910390f35b600080600061021b84610ae9565b8093508194508295505050509193909250565b600160009054906101000a900473ffffffffffffffffffffffffffffffffffffffff1673ffffffffffffffffffffffffffffffffffffffff163373ffffffffffffffffffffffffffffffffffffffff16146102be576040517f08c379a00000000000000000000000000000000000000000000000000000000081526004016102b5906113c4565b60405180910390fd5b60006102c8610adc565b11610308576040517f08c379a00000000000000000000000000000000000000000000000000000000081526004016102ff90611430565b60405180910390fd5b60005b610313610adc565b81101561047d57610323816107f3565b80156103be5750600360006002838154811061034257610341611450565b5b906000526020600020906004020160010160009054906101000a900473ffffffffffffffffffffffffffffffffffffffff1673ffffffffffffffffffffffffffffffffffffffff1673ffffffffffffffffffffffffffffffffffffffff16815260200190815260200160002060009054906101000a900460ff16155b1561046a576103cc81610b18565b600160036000600284815481106103e6576103e5611450565b5b906000526020600020906004020160010160009054906101000a900473ffffffffffffffffffffffffffffffffffffffff1673ffffffffffffffffffffffffffffffffffffffff1673ffffffffffffffffffffffffffffffffffffffff16815260200190815260200160002060006101000a81548160ff0219169083151502179055505b8080610475906114ae565b91505061030b565b50565b60606002805480602002602001604051908101604052809291908181526020016000905b828210156105d257838290600052602060002090600402016040518060800160405290816000820180546104d790611525565b80601f016020809104026020016040519081016040528092919081815260200182805461050390611525565b80156105505780601f1061052557610100808354040283529160200191610550565b820191906000526020600020905b81548152906001019060200180831161053357829003601f168201915b505050505081526020016001820160009054906101000a900473ffffffffffffffffffffffffffffffffffffffff1673ffffffffffffffffffffffffffffffffffffffff1673ffffffffffffffffffffffffffffffffffffffff16815260200160028201548152602001600382015481525050815260200190600101906104a4565b50505050905090565b600160009054906101000a900473ffffffffffffffffffffffffffffffffffffffff1673ffffffffffffffffffffffffffffffffffffffff163373ffffffffffffffffffffffffffffffffffffffff161461066b576040517f08c379a0000000000000000000000000000000000000000000000000000000008152600401610662906113c4565b60405180910390fd5b8373ffffffffffffffffffffffffffffffffffffffff163373ffffffffffffffffffffffffffffffffffffffff16036106d9576040517f08c379a00000000000000000000000000000000000000000000000000000000081526004016106d0906115a2565b60405180910390fd5b600060405180608001604052808581526020018673ffffffffffffffffffffffffffffffffffffffff16815260200184815260200183815250905060028190806001815401808255809150506001900390600052602060002090600402016000909190919091506000820151816000019081610755919061176e565b5060208201518160010160006101000a81548173ffffffffffffffffffffffffffffffffffffffff021916908373ffffffffffffffffffffffffffffffffffffffff160217905550604082015181600201556060820151816003015550507fb65d8bfcef952b3294e73c2789abe3fed15b1c3c8ef208d6bb8514e85093953b85856040516107e4929190611888565b60405180910390a15050505050565b6000806107ff836109a4565b6060015190506000806108118361020d565b925092505060004290506000806108278361020d565b9250925050808414801561083a57508185145b1561084e5760019650505050505050610859565b600096505050505050505b919050565b565b600160009054906101000a900473ffffffffffffffffffffffffffffffffffffffff1673ffffffffffffffffffffffffffffffffffffffff163373ffffffffffffffffffffffffffffffffffffffff16146108f0576040517f08c379a00000000000000000000000000000000000000000000000000000000081526004016108e7906113c4565b60405180910390fd5b6002818154811061090457610903611450565b5b906000526020600020906004020160010160009054906101000a900473ffffffffffffffffffffffffffffffffffffffff1673ffffffffffffffffffffffffffffffffffffffff166108fc6002838154811061096357610962611450565b5b9060005260206000209060040201600201549081150290604051600060405180830381858888f193505050501580156109a0573d6000803e3d6000fd5b5050565b6109ac610d65565b600282815481106109c0576109bf611450565b5b90600052602060002090600402016040518060800160405290816000820180546109e990611525565b80601f0160208091040260200160405190810160405280929190818152602001828054610a1590611525565b8015610a625780601f10610a3757610100808354040283529160200191610a62565b820191906000526020600020905b815481529060010190602001808311610a4557829003601f168201915b505050505081526020016001820160009054906101000a900473ffffffffffffffffffffffffffffffffffffffff1673ffffffffffffffffffffffffffffffffffffffff1673ffffffffffffffffffffffffffffffffffffffff168152602001600282015481526020016003820154815250509050919050565b6000600280549050905090565b6000806000610b056201518085610b0091906118e7565b610bc6565b8093508194508295505050509193909250565b610b2181610860565b7f65a65434d5fc8d211d6b6da7e78302ee4047a9fc73f3737f34117dbfb5fe0e1560028281548110610b5657610b55611450565b5b906000526020600020906004020160000160028381548110610b7b57610b7a611450565b5b906000526020600020906004020160010160009054906101000a900473ffffffffffffffffffffffffffffffffffffffff16604051610bbb92919061199c565b60405180910390a150565b600080600080849050600062253d8c62010bd983610be491906119d6565b610bee91906119d6565b9050600062023ab1826004610c039190611a1a565b610c0d9190611a92565b9050600460038262023ab1610c229190611a1a565b610c2c91906119d6565b610c369190611a92565b82610c419190611afc565b9150600062164b09600184610c5691906119d6565b610fa0610c639190611a1a565b610c6d9190611a92565b9050601f6004826105b5610c819190611a1a565b610c8b9190611a92565b84610c969190611afc565b610ca091906119d6565b9250600061098f846050610cb49190611a1a565b610cbe9190611a92565b9050600060508261098f610cd29190611a1a565b610cdc9190611a92565b85610ce79190611afc565b9050600b82610cf69190611a92565b945084600c610d059190611a1a565b600283610d1291906119d6565b610d1c9190611afc565b91508483603186610d2d9190611afc565b6064610d399190611a1a565b610d4391906119d6565b610d4d91906119d6565b92508298508197508096505050505050509193909250565b604051806080016040528060608152602001600073ffffffffffffffffffffffffffffffffffffffff16815260200160008152602001600081525090565b6000604051905090565b600080fd5b600080fd5b6000819050919050565b610dca81610db7565b8114610dd557600080fd5b50565b600081359050610de781610dc1565b92915050565b600060208284031215610e0357610e02610dad565b5b6000610e1184828501610dd8565b91505092915050565b610e2381610db7565b82525050565b6000606082019050610e3e6000830186610e1a565b610e4b6020830185610e1a565b610e586040830184610e1a565b949350505050565b600081519050919050565b600082825260208201905092915050565b6000819050602082019050919050565b600081519050919050565b600082825260208201905092915050565b60005b83811015610ec6578082015181840152602081019050610eab565b60008484015250505050565b6000601f19601f8301169050919050565b6000610eee82610e8c565b610ef88185610e97565b9350610f08818560208601610ea8565b610f1181610ed2565b840191505092915050565b600073ffffffffffffffffffffffffffffffffffffffff82169050919050565b6000610f4782610f1c565b9050919050565b610f5781610f3c565b82525050565b610f6681610db7565b82525050565b60006080830160008301518482036000860152610f898282610ee3565b9150506020830151610f9e6020860182610f4e565b506040830151610fb16040860182610f5d565b506060830151610fc46060860182610f5d565b508091505092915050565b6000610fdb8383610f6c565b905092915050565b6000602082019050919050565b6000610ffb82610e60565b6110058185610e6b565b93508360208202850161101785610e7c565b8060005b8581101561105357848403895281516110348582610fcf565b945061103f83610fe3565b925060208a0199505060018101905061101b565b50829750879550505050505092915050565b6000602082019050818103600083015261107f8184610ff0565b905092915050565b61109081610f3c565b811461109b57600080fd5b50565b6000813590506110ad81611087565b92915050565b600080fd5b600080fd5b7f4e487b7100000000000000000000000000000000000000000000000000000000600052604160045260246000fd5b6110f582610ed2565b810181811067ffffffffffffffff82111715611114576111136110bd565b5b80604052505050565b6000611127610da3565b905061113382826110ec565b919050565b600067ffffffffffffffff821115611153576111526110bd565b5b61115c82610ed2565b9050602081019050919050565b82818337600083830152505050565b600061118b61118684611138565b61111d565b9050828152602081018484840111156111a7576111a66110b8565b5b6111b2848285611169565b509392505050565b600082601f8301126111cf576111ce6110b3565b5b81356111df848260208601611178565b91505092915050565b6000806000806080858703121561120257611201610dad565b5b60006112108782880161109e565b945050602085013567ffffffffffffffff81111561123157611230610db2565b5b61123d878288016111ba565b935050604061124e87828801610dd8565b925050606061125f87828801610dd8565b91505092959194509250565b60008115159050919050565b6112808161126b565b82525050565b600060208201905061129b6000830184611277565b92915050565b600060808301600083015184820360008601526112be8282610ee3565b91505060208301516112d36020860182610f4e565b5060408301516112e66040860182610f5d565b5060608301516112f96060860182610f5d565b508091505092915050565b6000602082019050818103600083015261131e81846112a1565b905092915050565b600060208201905061133b6000830184610e1a565b92915050565b600082825260208201905092915050565b7f53656e6465722073686f756c6420626520746865206f776e6572206f6620636f60008201527f6e74726163740000000000000000000000000000000000000000000000000000602082015250565b60006113ae602683611341565b91506113b982611352565b604082019050919050565b600060208201905081810360008301526113dd816113a1565b9050919050565b7f4e6f207465616d6d6174657320696e2074686520646174616261736500000000600082015250565b600061141a601c83611341565b9150611425826113e4565b602082019050919050565b600060208201905081810360008301526114498161140d565b9050919050565b7f4e487b7100000000000000000000000000000000000000000000000000000000600052603260045260246000fd5b7f4e487b7100000000000000000000000000000000000000000000000000000000600052601160045260246000fd5b60006114b982610db7565b91507fffffffffffffffffffffffffffffffffffffffffffffffffffffffffffffffff82036114eb576114ea61147f565b5b600182019050919050565b7f4e487b7100000000000000000000000000000000000000000000000000000000600052602260045260246000fd5b6000600282049050600182168061153d57607f821691505b6020821081036115505761154f6114f6565b5b50919050565b7f43616e6e6f7420616464206f6e6573656c660000000000000000000000000000600082015250565b600061158c601283611341565b915061159782611556565b602082019050919050565b600060208201905081810360008301526115bb8161157f565b9050919050565b60008190508160005260206000209050919050565b60006020601f8301049050919050565b600082821b905092915050565b6000600883026116247fffffffffffffffffffffffffffffffffffffffffffffffffffffffffffffffff826115e7565b61162e86836115e7565b95508019841693508086168417925050509392505050565b6000819050919050565b600061166b61166661166184610db7565b611646565b610db7565b9050919050565b6000819050919050565b61168583611650565b61169961169182611672565b8484546115f4565b825550505050565b600090565b6116ae6116a1565b6116b981848461167c565b505050565b5b818110156116dd576116d26000826116a6565b6001810190506116bf565b5050565b601f821115611722576116f3816115c2565b6116fc846115d7565b8101602085101561170b578190505b61171f611717856115d7565b8301826116be565b50505b505050565b600082821c905092915050565b600061174560001984600802611727565b1980831691505092915050565b600061175e8383611734565b9150826002028217905092915050565b61177782610e8c565b67ffffffffffffffff8111156117905761178f6110bd565b5b61179a8254611525565b6117a58282856116e1565b600060209050601f8311600181146117d857600084156117c6578287015190505b6117d08582611752565b865550611838565b601f1984166117e6866115c2565b60005b8281101561180e578489015182556001820191506020850194506020810190506117e9565b8683101561182b5784890151611827601f891682611734565b8355505b6001600288020188555050505b505050505050565b61184981610f3c565b82525050565b600061185a82610e8c565b6118648185611341565b9350611874818560208601610ea8565b61187d81610ed2565b840191505092915050565b600060408201905061189d6000830185611840565b81810360208301526118af818461184f565b90509392505050565b7f4e487b7100000000000000000000000000000000000000000000000000000000600052601260045260246000fd5b60006118f282610db7565b91506118fd83610db7565b92508261190d5761190c6118b8565b5b828204905092915050565b6000815461192581611525565b61192f8186611341565b9450600182166000811461194a576001811461196057611993565b60ff198316865281151560200286019350611993565b611969856115c2565b60005b8381101561198b5781548189015260018201915060208101905061196c565b808801955050505b50505092915050565b600060408201905081810360008301526119b68185611918565b90506119c56020830184611840565b9392505050565b6000819050919050565b60006119e1826119cc565b91506119ec836119cc565b925082820190508281121560008312168382126000841215161715611a1457611a1361147f565b5b92915050565b6000611a25826119cc565b9150611a30836119cc565b9250828202611a3e816119cc565b91507f80000000000000000000000000000000000000000000000000000000000000008414600084121615611a7657611a7561147f565b5b8282058414831517611a8b57611a8a61147f565b5b5092915050565b6000611a9d826119cc565b9150611aa8836119cc565b925082611ab857611ab76118b8565b5b600160000383147f800000000000000000000000000000000000000000000000000000000000000083141615611af157611af061147f565b5b828205905092915050565b6000611b07826119cc565b9150611b12836119cc565b9250828203905081811260008412168282136000851215161715611b3957611b3861147f565b5b9291505056fea2646970667358221220bbba889d965fed40773be1c3995cc0df8373c8d55a614d347ee28c66254a98c764736f6c63430008120033",
					"opcodes": "PUSH1 0x80 PUSH1 0x40 MSTORE CALLVALUE DUP1 ISZERO PUSH3 0x11 JUMPI PUSH1 0x0 DUP1 REVERT JUMPDEST POP PUSH1 0x40 MLOAD DUP1 PUSH1 0x40 ADD PUSH1 0x40 MSTORE DUP1 PUSH1 0x3 DUP2 MSTORE PUSH1 0x20 ADD PUSH32 0x6D61780000000000000000000000000000000000000000000000000000000000 DUP2 MSTORE POP PUSH1 0x0 SWAP1 DUP2 PUSH3 0x58 SWAP2 SWAP1 PUSH3 0x31A JUMP JUMPDEST POP CALLER PUSH1 0x1 PUSH1 0x0 PUSH2 0x100 EXP DUP2 SLOAD DUP2 PUSH20 0xFFFFFFFFFFFFFFFFFFFFFFFFFFFFFFFFFFFFFFFF MUL NOT AND SWAP1 DUP4 PUSH20 0xFFFFFFFFFFFFFFFFFFFFFFFFFFFFFFFFFFFFFFFF AND MUL OR SWAP1 SSTORE POP PUSH3 0x401 JUMP JUMPDEST PUSH1 0x0 DUP2 MLOAD SWAP1 POP SWAP2 SWAP1 POP JUMP JUMPDEST PUSH32 0x4E487B7100000000000000000000000000000000000000000000000000000000 PUSH1 0x0 MSTORE PUSH1 0x41 PUSH1 0x4 MSTORE PUSH1 0x24 PUSH1 0x0 REVERT JUMPDEST PUSH32 0x4E487B7100000000000000000000000000000000000000000000000000000000 PUSH1 0x0 MSTORE PUSH1 0x22 PUSH1 0x4 MSTORE PUSH1 0x24 PUSH1 0x0 REVERT JUMPDEST PUSH1 0x0 PUSH1 0x2 DUP3 DIV SWAP1 POP PUSH1 0x1 DUP3 AND DUP1 PUSH3 0x122 JUMPI PUSH1 0x7F DUP3 AND SWAP2 POP JUMPDEST PUSH1 0x20 DUP3 LT DUP2 SUB PUSH3 0x138 JUMPI PUSH3 0x137 PUSH3 0xDA JUMP JUMPDEST JUMPDEST POP SWAP2 SWAP1 POP JUMP JUMPDEST PUSH1 0x0 DUP2 SWAP1 POP DUP2 PUSH1 0x0 MSTORE PUSH1 0x20 PUSH1 0x0 KECCAK256 SWAP1 POP SWAP2 SWAP1 POP JUMP JUMPDEST PUSH1 0x0 PUSH1 0x20 PUSH1 0x1F DUP4 ADD DIV SWAP1 POP SWAP2 SWAP1 POP JUMP JUMPDEST PUSH1 0x0 DUP3 DUP3 SHL SWAP1 POP SWAP3 SWAP2 POP POP JUMP JUMPDEST PUSH1 0x0 PUSH1 0x8 DUP4 MUL PUSH3 0x1A2 PUSH32 0xFFFFFFFFFFFFFFFFFFFFFFFFFFFFFFFFFFFFFFFFFFFFFFFFFFFFFFFFFFFFFFFF DUP3 PUSH3 0x163 JUMP JUMPDEST PUSH3 0x1AE DUP7 DUP4 PUSH3 0x163 JUMP JUMPDEST SWAP6 POP DUP1 NOT DUP5 AND SWAP4 POP DUP1 DUP7 AND DUP5 OR SWAP3 POP POP POP SWAP4 SWAP3 POP POP POP JUMP JUMPDEST PUSH1 0x0 DUP2 SWAP1 POP SWAP2 SWAP1 POP JUMP JUMPDEST PUSH1 0x0 DUP2 SWAP1 POP SWAP2 SWAP1 POP JUMP JUMPDEST PUSH1 0x0 PUSH3 0x1FB PUSH3 0x1F5 PUSH3 0x1EF DUP5 PUSH3 0x1C6 JUMP JUMPDEST PUSH3 0x1D0 JUMP JUMPDEST PUSH3 0x1C6 JUMP JUMPDEST SWAP1 POP SWAP2 SWAP1 POP JUMP JUMPDEST PUSH1 0x0 DUP2 SWAP1 POP SWAP2 SWAP1 POP JUMP JUMPDEST PUSH3 0x217 DUP4 PUSH3 0x1DA JUMP JUMPDEST PUSH3 0x22F PUSH3 0x226 DUP3 PUSH3 0x202 JUMP JUMPDEST DUP5 DUP5 SLOAD PUSH3 0x170 JUMP JUMPDEST DUP3 SSTORE POP POP POP POP JUMP JUMPDEST PUSH1 0x0 SWAP1 JUMP JUMPDEST PUSH3 0x246 PUSH3 0x237 JUMP JUMPDEST PUSH3 0x253 DUP2 DUP5 DUP5 PUSH3 0x20C JUMP JUMPDEST POP POP POP JUMP JUMPDEST JUMPDEST DUP2 DUP2 LT ISZERO PUSH3 0x27B JUMPI PUSH3 0x26F PUSH1 0x0 DUP3 PUSH3 0x23C JUMP JUMPDEST PUSH1 0x1 DUP2 ADD SWAP1 POP PUSH3 0x259 JUMP JUMPDEST POP POP JUMP JUMPDEST PUSH1 0x1F DUP3 GT ISZERO PUSH3 0x2CA JUMPI PUSH3 0x294 DUP2 PUSH3 0x13E JUMP JUMPDEST PUSH3 0x29F DUP5 PUSH3 0x153 JUMP JUMPDEST DUP2 ADD PUSH1 0x20 DUP6 LT ISZERO PUSH3 0x2AF JUMPI DUP2 SWAP1 POP JUMPDEST PUSH3 0x2C7 PUSH3 0x2BE DUP6 PUSH3 0x153 JUMP JUMPDEST DUP4 ADD DUP3 PUSH3 0x258 JUMP JUMPDEST POP POP JUMPDEST POP POP POP JUMP JUMPDEST PUSH1 0x0 DUP3 DUP3 SHR SWAP1 POP SWAP3 SWAP2 POP POP JUMP JUMPDEST PUSH1 0x0 PUSH3 0x2EF PUSH1 0x0 NOT DUP5 PUSH1 0x8 MUL PUSH3 0x2CF JUMP JUMPDEST NOT DUP1 DUP4 AND SWAP2 POP POP SWAP3 SWAP2 POP POP JUMP JUMPDEST PUSH1 0x0 PUSH3 0x30A DUP4 DUP4 PUSH3 0x2DC JUMP JUMPDEST SWAP2 POP DUP3 PUSH1 0x2 MUL DUP3 OR SWAP1 POP SWAP3 SWAP2 POP POP JUMP JUMPDEST PUSH3 0x325 DUP3 PUSH3 0xA0 JUMP JUMPDEST PUSH8 0xFFFFFFFFFFFFFFFF DUP2 GT ISZERO PUSH3 0x341 JUMPI PUSH3 0x340 PUSH3 0xAB JUMP JUMPDEST JUMPDEST PUSH3 0x34D DUP3 SLOAD PUSH3 0x109 JUMP JUMPDEST PUSH3 0x35A DUP3 DUP3 DUP6 PUSH3 0x27F JUMP JUMPDEST PUSH1 0x0 PUSH1 0x20 SWAP1 POP PUSH1 0x1F DUP4 GT PUSH1 0x1 DUP2 EQ PUSH3 0x392 JUMPI PUSH1 0x0 DUP5 ISZERO PUSH3 0x37D JUMPI DUP3 DUP8 ADD MLOAD SWAP1 POP JUMPDEST PUSH3 0x389 DUP6 DUP3 PUSH3 0x2FC JUMP JUMPDEST DUP7 SSTORE POP PUSH3 0x3F9 JUMP JUMPDEST PUSH1 0x1F NOT DUP5 AND PUSH3 0x3A2 DUP7 PUSH3 0x13E JUMP JUMPDEST PUSH1 0x0 JUMPDEST DUP3 DUP2 LT ISZERO PUSH3 0x3CC JUMPI DUP5 DUP10 ADD MLOAD DUP3 SSTORE PUSH1 0x1 DUP3 ADD SWAP2 POP PUSH1 0x20 DUP6 ADD SWAP5 POP PUSH1 0x20 DUP2 ADD SWAP1 POP PUSH3 0x3A5 JUMP JUMPDEST DUP7 DUP4 LT ISZERO PUSH3 0x3EC JUMPI DUP5 DUP10 ADD MLOAD PUSH3 0x3E8 PUSH1 0x1F DUP10 AND DUP3 PUSH3 0x2DC JUMP JUMPDEST DUP4 SSTORE POP JUMPDEST PUSH1 0x1 PUSH1 0x2 DUP9 MUL ADD DUP9 SSTORE POP POP POP JUMPDEST POP POP POP POP POP POP JUMP JUMPDEST PUSH2 0x1B75 DUP1 PUSH3 0x411 PUSH1 0x0 CODECOPY PUSH1 0x0 RETURN INVALID PUSH1 0x80 PUSH1 0x40 MSTORE PUSH1 0x4 CALLDATASIZE LT PUSH2 0x86 JUMPI PUSH1 0x0 CALLDATALOAD PUSH1 0xE0 SHR DUP1 PUSH4 0xB9E1189E GT PUSH2 0x59 JUMPI DUP1 PUSH4 0xB9E1189E EQ PUSH2 0x135 JUMPI DUP1 PUSH4 0xD0E30DB0 EQ PUSH2 0x172 JUMPI DUP1 PUSH4 0xE03CF9DC EQ PUSH2 0x17C JUMPI DUP1 PUSH4 0xE792EC4F EQ PUSH2 0x1A5 JUMPI DUP1 PUSH4 0xEED2157C EQ PUSH2 0x1E2 JUMPI PUSH2 0x86 JUMP JUMPDEST DUP1 PUSH4 0x2B57298B EQ PUSH2 0x8B JUMPI DUP1 PUSH4 0x5BD2D868 EQ PUSH2 0xCA JUMPI DUP1 PUSH4 0x8BCE6EDD EQ PUSH2 0xE1 JUMPI DUP1 PUSH4 0xB0641934 EQ PUSH2 0x10C JUMPI JUMPDEST PUSH1 0x0 DUP1 REVERT JUMPDEST CALLVALUE DUP1 ISZERO PUSH2 0x97 JUMPI PUSH1 0x0 DUP1 REVERT JUMPDEST POP PUSH2 0xB2 PUSH1 0x4 DUP1 CALLDATASIZE SUB DUP2 ADD SWAP1 PUSH2 0xAD SWAP2 SWAP1 PUSH2 0xDED JUMP JUMPDEST PUSH2 0x20D JUMP JUMPDEST PUSH1 0x40 MLOAD PUSH2 0xC1 SWAP4 SWAP3 SWAP2 SWAP1 PUSH2 0xE29 JUMP JUMPDEST PUSH1 0x40 MLOAD DUP1 SWAP2 SUB SWAP1 RETURN JUMPDEST CALLVALUE DUP1 ISZERO PUSH2 0xD6 JUMPI PUSH1 0x0 DUP1 REVERT JUMPDEST POP PUSH2 0xDF PUSH2 0x22E JUMP JUMPDEST STOP JUMPDEST CALLVALUE DUP1 ISZERO PUSH2 0xED JUMPI PUSH1 0x0 DUP1 REVERT JUMPDEST POP PUSH2 0xF6 PUSH2 0x480 JUMP JUMPDEST PUSH1 0x40 MLOAD PUSH2 0x103 SWAP2 SWAP1 PUSH2 0x1065 JUMP JUMPDEST PUSH1 0x40 MLOAD DUP1 SWAP2 SUB SWAP1 RETURN JUMPDEST CALLVALUE DUP1 ISZERO PUSH2 0x118 JUMPI PUSH1 0x0 DUP1 REVERT JUMPDEST POP PUSH2 0x133 PUSH1 0x4 DUP1 CALLDATASIZE SUB DUP2 ADD SWAP1 PUSH2 0x12E SWAP2 SWAP1 PUSH2 0x11E8 JUMP JUMPDEST PUSH2 0x5DB JUMP JUMPDEST STOP JUMPDEST CALLVALUE DUP1 ISZERO PUSH2 0x141 JUMPI PUSH1 0x0 DUP1 REVERT JUMPDEST POP PUSH2 0x15C PUSH1 0x4 DUP1 CALLDATASIZE SUB DUP2 ADD SWAP1 PUSH2 0x157 SWAP2 SWAP1 PUSH2 0xDED JUMP JUMPDEST PUSH2 0x7F3 JUMP JUMPDEST PUSH1 0x40 MLOAD PUSH2 0x169 SWAP2 SWAP1 PUSH2 0x1286 JUMP JUMPDEST PUSH1 0x40 MLOAD DUP1 SWAP2 SUB SWAP1 RETURN JUMPDEST PUSH2 0x17A PUSH2 0x85E JUMP JUMPDEST STOP JUMPDEST CALLVALUE DUP1 ISZERO PUSH2 0x188 JUMPI PUSH1 0x0 DUP1 REVERT JUMPDEST POP PUSH2 0x1A3 PUSH1 0x4 DUP1 CALLDATASIZE SUB DUP2 ADD SWAP1 PUSH2 0x19E SWAP2 SWAP1 PUSH2 0xDED JUMP JUMPDEST PUSH2 0x860 JUMP JUMPDEST STOP JUMPDEST CALLVALUE DUP1 ISZERO PUSH2 0x1B1 JUMPI PUSH1 0x0 DUP1 REVERT JUMPDEST POP PUSH2 0x1CC PUSH1 0x4 DUP1 CALLDATASIZE SUB DUP2 ADD SWAP1 PUSH2 0x1C7 SWAP2 SWAP1 PUSH2 0xDED JUMP JUMPDEST PUSH2 0x9A4 JUMP JUMPDEST PUSH1 0x40 MLOAD PUSH2 0x1D9 SWAP2 SWAP1 PUSH2 0x1304 JUMP JUMPDEST PUSH1 0x40 MLOAD DUP1 SWAP2 SUB SWAP1 RETURN JUMPDEST CALLVALUE DUP1 ISZERO PUSH2 0x1EE JUMPI PUSH1 0x0 DUP1 REVERT JUMPDEST POP PUSH2 0x1F7 PUSH2 0xADC JUMP JUMPDEST PUSH1 0x40 MLOAD PUSH2 0x204 SWAP2 SWAP1 PUSH2 0x1326 JUMP JUMPDEST PUSH1 0x40 MLOAD DUP1 SWAP2 SUB SWAP1 RETURN JUMPDEST PUSH1 0x0 DUP1 PUSH1 0x0 PUSH2 0x21B DUP5 PUSH2 0xAE9 JUMP JUMPDEST DUP1 SWAP4 POP DUP2 SWAP5 POP DUP3 SWAP6 POP POP POP POP SWAP2 SWAP4 SWAP1 SWAP3 POP JUMP JUMPDEST PUSH1 0x1 PUSH1 0x0 SWAP1 SLOAD SWAP1 PUSH2 0x100 EXP SWAP1 DIV PUSH20 0xFFFFFFFFFFFFFFFFFFFFFFFFFFFFFFFFFFFFFFFF AND PUSH20 0xFFFFFFFFFFFFFFFFFFFFFFFFFFFFFFFFFFFFFFFF AND CALLER PUSH20 0xFFFFFFFFFFFFFFFFFFFFFFFFFFFFFFFFFFFFFFFF AND EQ PUSH2 0x2BE JUMPI PUSH1 0x40 MLOAD PUSH32 0x8C379A000000000000000000000000000000000000000000000000000000000 DUP2 MSTORE PUSH1 0x4 ADD PUSH2 0x2B5 SWAP1 PUSH2 0x13C4 JUMP JUMPDEST PUSH1 0x40 MLOAD DUP1 SWAP2 SUB SWAP1 REVERT JUMPDEST PUSH1 0x0 PUSH2 0x2C8 PUSH2 0xADC JUMP JUMPDEST GT PUSH2 0x308 JUMPI PUSH1 0x40 MLOAD PUSH32 0x8C379A000000000000000000000000000000000000000000000000000000000 DUP2 MSTORE PUSH1 0x4 ADD PUSH2 0x2FF SWAP1 PUSH2 0x1430 JUMP JUMPDEST PUSH1 0x40 MLOAD DUP1 SWAP2 SUB SWAP1 REVERT JUMPDEST PUSH1 0x0 JUMPDEST PUSH2 0x313 PUSH2 0xADC JUMP JUMPDEST DUP2 LT ISZERO PUSH2 0x47D JUMPI PUSH2 0x323 DUP2 PUSH2 0x7F3 JUMP JUMPDEST DUP1 ISZERO PUSH2 0x3BE JUMPI POP PUSH1 0x3 PUSH1 0x0 PUSH1 0x2 DUP4 DUP2 SLOAD DUP2 LT PUSH2 0x342 JUMPI PUSH2 0x341 PUSH2 0x1450 JUMP JUMPDEST JUMPDEST SWAP1 PUSH1 0x0 MSTORE PUSH1 0x20 PUSH1 0x0 KECCAK256 SWAP1 PUSH1 0x4 MUL ADD PUSH1 0x1 ADD PUSH1 0x0 SWAP1 SLOAD SWAP1 PUSH2 0x100 EXP SWAP1 DIV PUSH20 0xFFFFFFFFFFFFFFFFFFFFFFFFFFFFFFFFFFFFFFFF AND PUSH20 0xFFFFFFFFFFFFFFFFFFFFFFFFFFFFFFFFFFFFFFFF AND PUSH20 0xFFFFFFFFFFFFFFFFFFFFFFFFFFFFFFFFFFFFFFFF AND DUP2 MSTORE PUSH1 0x20 ADD SWAP1 DUP2 MSTORE PUSH1 0x20 ADD PUSH1 0x0 KECCAK256 PUSH1 0x0 SWAP1 SLOAD SWAP1 PUSH2 0x100 EXP SWAP1 DIV PUSH1 0xFF AND ISZERO JUMPDEST ISZERO PUSH2 0x46A JUMPI PUSH2 0x3CC DUP2 PUSH2 0xB18 JUMP JUMPDEST PUSH1 0x1 PUSH1 0x3 PUSH1 0x0 PUSH1 0x2 DUP5 DUP2 SLOAD DUP2 LT PUSH2 0x3E6 JUMPI PUSH2 0x3E5 PUSH2 0x1450 JUMP JUMPDEST JUMPDEST SWAP1 PUSH1 0x0 MSTORE PUSH1 0x20 PUSH1 0x0 KECCAK256 SWAP1 PUSH1 0x4 MUL ADD PUSH1 0x1 ADD PUSH1 0x0 SWAP1 SLOAD SWAP1 PUSH2 0x100 EXP SWAP1 DIV PUSH20 0xFFFFFFFFFFFFFFFFFFFFFFFFFFFFFFFFFFFFFFFF AND PUSH20 0xFFFFFFFFFFFFFFFFFFFFFFFFFFFFFFFFFFFFFFFF AND PUSH20 0xFFFFFFFFFFFFFFFFFFFFFFFFFFFFFFFFFFFFFFFF AND DUP2 MSTORE PUSH1 0x20 ADD SWAP1 DUP2 MSTORE PUSH1 0x20 ADD PUSH1 0x0 KECCAK256 PUSH1 0x0 PUSH2 0x100 EXP DUP2 SLOAD DUP2 PUSH1 0xFF MUL NOT AND SWAP1 DUP4 ISZERO ISZERO MUL OR SWAP1 SSTORE POP JUMPDEST DUP1 DUP1 PUSH2 0x475 SWAP1 PUSH2 0x14AE JUMP JUMPDEST SWAP2 POP POP PUSH2 0x30B JUMP JUMPDEST POP JUMP JUMPDEST PUSH1 0x60 PUSH1 0x2 DUP1 SLOAD DUP1 PUSH1 0x20 MUL PUSH1 0x20 ADD PUSH1 0x40 MLOAD SWAP1 DUP2 ADD PUSH1 0x40 MSTORE DUP1 SWAP3 SWAP2 SWAP1 DUP2 DUP2 MSTORE PUSH1 0x20 ADD PUSH1 0x0 SWAP1 JUMPDEST DUP3 DUP3 LT ISZERO PUSH2 0x5D2 JUMPI DUP4 DUP3 SWAP1 PUSH1 0x0 MSTORE PUSH1 0x20 PUSH1 0x0 KECCAK256 SWAP1 PUSH1 0x4 MUL ADD PUSH1 0x40 MLOAD DUP1 PUSH1 0x80 ADD PUSH1 0x40 MSTORE SWAP1 DUP2 PUSH1 0x0 DUP3 ADD DUP1 SLOAD PUSH2 0x4D7 SWAP1 PUSH2 0x1525 JUMP JUMPDEST DUP1 PUSH1 0x1F ADD PUSH1 0x20 DUP1 SWAP2 DIV MUL PUSH1 0x20 ADD PUSH1 0x40 MLOAD SWAP1 DUP2 ADD PUSH1 0x40 MSTORE DUP1 SWAP3 SWAP2 SWAP1 DUP2 DUP2 MSTORE PUSH1 0x20 ADD DUP3 DUP1 SLOAD PUSH2 0x503 SWAP1 PUSH2 0x1525 JUMP JUMPDEST DUP1 ISZERO PUSH2 0x550 JUMPI DUP1 PUSH1 0x1F LT PUSH2 0x525 JUMPI PUSH2 0x100 DUP1 DUP4 SLOAD DIV MUL DUP4 MSTORE SWAP2 PUSH1 0x20 ADD SWAP2 PUSH2 0x550 JUMP JUMPDEST DUP3 ADD SWAP2 SWAP1 PUSH1 0x0 MSTORE PUSH1 0x20 PUSH1 0x0 KECCAK256 SWAP1 JUMPDEST DUP2 SLOAD DUP2 MSTORE SWAP1 PUSH1 0x1 ADD SWAP1 PUSH1 0x20 ADD DUP1 DUP4 GT PUSH2 0x533 JUMPI DUP3 SWAP1 SUB PUSH1 0x1F AND DUP3 ADD SWAP2 JUMPDEST POP POP POP POP POP DUP2 MSTORE PUSH1 0x20 ADD PUSH1 0x1 DUP3 ADD PUSH1 0x0 SWAP1 SLOAD SWAP1 PUSH2 0x100 EXP SWAP1 DIV PUSH20 0xFFFFFFFFFFFFFFFFFFFFFFFFFFFFFFFFFFFFFFFF AND PUSH20 0xFFFFFFFFFFFFFFFFFFFFFFFFFFFFFFFFFFFFFFFF AND PUSH20 0xFFFFFFFFFFFFFFFFFFFFFFFFFFFFFFFFFFFFFFFF AND DUP2 MSTORE PUSH1 0x20 ADD PUSH1 0x2 DUP3 ADD SLOAD DUP2 MSTORE PUSH1 0x20 ADD PUSH1 0x3 DUP3 ADD SLOAD DUP2 MSTORE POP POP DUP2 MSTORE PUSH1 0x20 ADD SWAP1 PUSH1 0x1 ADD SWAP1 PUSH2 0x4A4 JUMP JUMPDEST POP POP POP POP SWAP1 POP SWAP1 JUMP JUMPDEST PUSH1 0x1 PUSH1 0x0 SWAP1 SLOAD SWAP1 PUSH2 0x100 EXP SWAP1 DIV PUSH20 0xFFFFFFFFFFFFFFFFFFFFFFFFFFFFFFFFFFFFFFFF AND PUSH20 0xFFFFFFFFFFFFFFFFFFFFFFFFFFFFFFFFFFFFFFFF AND CALLER PUSH20 0xFFFFFFFFFFFFFFFFFFFFFFFFFFFFFFFFFFFFFFFF AND EQ PUSH2 0x66B JUMPI PUSH1 0x40 MLOAD PUSH32 0x8C379A000000000000000000000000000000000000000000000000000000000 DUP2 MSTORE PUSH1 0x4 ADD PUSH2 0x662 SWAP1 PUSH2 0x13C4 JUMP JUMPDEST PUSH1 0x40 MLOAD DUP1 SWAP2 SUB SWAP1 REVERT JUMPDEST DUP4 PUSH20 0xFFFFFFFFFFFFFFFFFFFFFFFFFFFFFFFFFFFFFFFF AND CALLER PUSH20 0xFFFFFFFFFFFFFFFFFFFFFFFFFFFFFFFFFFFFFFFF AND SUB PUSH2 0x6D9 JUMPI PUSH1 0x40 MLOAD PUSH32 0x8C379A000000000000000000000000000000000000000000000000000000000 DUP2 MSTORE PUSH1 0x4 ADD PUSH2 0x6D0 SWAP1 PUSH2 0x15A2 JUMP JUMPDEST PUSH1 0x40 MLOAD DUP1 SWAP2 SUB SWAP1 REVERT JUMPDEST PUSH1 0x0 PUSH1 0x40 MLOAD DUP1 PUSH1 0x80 ADD PUSH1 0x40 MSTORE DUP1 DUP6 DUP2 MSTORE PUSH1 0x20 ADD DUP7 PUSH20 0xFFFFFFFFFFFFFFFFFFFFFFFFFFFFFFFFFFFFFFFF AND DUP2 MSTORE PUSH1 0x20 ADD DUP5 DUP2 MSTORE PUSH1 0x20 ADD DUP4 DUP2 MSTORE POP SWAP1 POP PUSH1 0x2 DUP2 SWAP1 DUP1 PUSH1 0x1 DUP2 SLOAD ADD DUP1 DUP3 SSTORE DUP1 SWAP2 POP POP PUSH1 0x1 SWAP1 SUB SWAP1 PUSH1 0x0 MSTORE PUSH1 0x20 PUSH1 0x0 KECCAK256 SWAP1 PUSH1 0x4 MUL ADD PUSH1 0x0 SWAP1 SWAP2 SWAP1 SWAP2 SWAP1 SWAP2 POP PUSH1 0x0 DUP3 ADD MLOAD DUP2 PUSH1 0x0 ADD SWAP1 DUP2 PUSH2 0x755 SWAP2 SWAP1 PUSH2 0x176E JUMP JUMPDEST POP PUSH1 0x20 DUP3 ADD MLOAD DUP2 PUSH1 0x1 ADD PUSH1 0x0 PUSH2 0x100 EXP DUP2 SLOAD DUP2 PUSH20 0xFFFFFFFFFFFFFFFFFFFFFFFFFFFFFFFFFFFFFFFF MUL NOT AND SWAP1 DUP4 PUSH20 0xFFFFFFFFFFFFFFFFFFFFFFFFFFFFFFFFFFFFFFFF AND MUL OR SWAP1 SSTORE POP PUSH1 0x40 DUP3 ADD MLOAD DUP2 PUSH1 0x2 ADD SSTORE PUSH1 0x60 DUP3 ADD MLOAD DUP2 PUSH1 0x3 ADD SSTORE POP POP PUSH32 0xB65D8BFCEF952B3294E73C2789ABE3FED15B1C3C8EF208D6BB8514E85093953B DUP6 DUP6 PUSH1 0x40 MLOAD PUSH2 0x7E4 SWAP3 SWAP2 SWAP1 PUSH2 0x1888 JUMP JUMPDEST PUSH1 0x40 MLOAD DUP1 SWAP2 SUB SWAP1 LOG1 POP POP POP POP POP JUMP JUMPDEST PUSH1 0x0 DUP1 PUSH2 0x7FF DUP4 PUSH2 0x9A4 JUMP JUMPDEST PUSH1 0x60 ADD MLOAD SWAP1 POP PUSH1 0x0 DUP1 PUSH2 0x811 DUP4 PUSH2 0x20D JUMP JUMPDEST SWAP3 POP SWAP3 POP POP PUSH1 0x0 TIMESTAMP SWAP1 POP PUSH1 0x0 DUP1 PUSH2 0x827 DUP4 PUSH2 0x20D JUMP JUMPDEST SWAP3 POP SWAP3 POP POP DUP1 DUP5 EQ DUP1 ISZERO PUSH2 0x83A JUMPI POP DUP2 DUP6 EQ JUMPDEST ISZERO PUSH2 0x84E JUMPI PUSH1 0x1 SWAP7 POP POP POP POP POP POP POP PUSH2 0x859 JUMP JUMPDEST PUSH1 0x0 SWAP7 POP POP POP POP POP POP POP JUMPDEST SWAP2 SWAP1 POP JUMP JUMPDEST JUMP JUMPDEST PUSH1 0x1 PUSH1 0x0 SWAP1 SLOAD SWAP1 PUSH2 0x100 EXP SWAP1 DIV PUSH20 0xFFFFFFFFFFFFFFFFFFFFFFFFFFFFFFFFFFFFFFFF AND PUSH20 0xFFFFFFFFFFFFFFFFFFFFFFFFFFFFFFFFFFFFFFFF AND CALLER PUSH20 0xFFFFFFFFFFFFFFFFFFFFFFFFFFFFFFFFFFFFFFFF AND EQ PUSH2 0x8F0 JUMPI PUSH1 0x40 MLOAD PUSH32 0x8C379A000000000000000000000000000000000000000000000000000000000 DUP2 MSTORE PUSH1 0x4 ADD PUSH2 0x8E7 SWAP1 PUSH2 0x13C4 JUMP JUMPDEST PUSH1 0x40 MLOAD DUP1 SWAP2 SUB SWAP1 REVERT JUMPDEST PUSH1 0x2 DUP2 DUP2 SLOAD DUP2 LT PUSH2 0x904 JUMPI PUSH2 0x903 PUSH2 0x1450 JUMP JUMPDEST JUMPDEST SWAP1 PUSH1 0x0 MSTORE PUSH1 0x20 PUSH1 0x0 KECCAK256 SWAP1 PUSH1 0x4 MUL ADD PUSH1 0x1 ADD PUSH1 0x0 SWAP1 SLOAD SWAP1 PUSH2 0x100 EXP SWAP1 DIV PUSH20 0xFFFFFFFFFFFFFFFFFFFFFFFFFFFFFFFFFFFFFFFF AND PUSH20 0xFFFFFFFFFFFFFFFFFFFFFFFFFFFFFFFFFFFFFFFF AND PUSH2 0x8FC PUSH1 0x2 DUP4 DUP2 SLOAD DUP2 LT PUSH2 0x963 JUMPI PUSH2 0x962 PUSH2 0x1450 JUMP JUMPDEST JUMPDEST SWAP1 PUSH1 0x0 MSTORE PUSH1 0x20 PUSH1 0x0 KECCAK256 SWAP1 PUSH1 0x4 MUL ADD PUSH1 0x2 ADD SLOAD SWAP1 DUP2 ISZERO MUL SWAP1 PUSH1 0x40 MLOAD PUSH1 0x0 PUSH1 0x40 MLOAD DUP1 DUP4 SUB DUP2 DUP6 DUP9 DUP9 CALL SWAP4 POP POP POP POP ISZERO DUP1 ISZERO PUSH2 0x9A0 JUMPI RETURNDATASIZE PUSH1 0x0 DUP1 RETURNDATACOPY RETURNDATASIZE PUSH1 0x0 REVERT JUMPDEST POP POP JUMP JUMPDEST PUSH2 0x9AC PUSH2 0xD65 JUMP JUMPDEST PUSH1 0x2 DUP3 DUP2 SLOAD DUP2 LT PUSH2 0x9C0 JUMPI PUSH2 0x9BF PUSH2 0x1450 JUMP JUMPDEST JUMPDEST SWAP1 PUSH1 0x0 MSTORE PUSH1 0x20 PUSH1 0x0 KECCAK256 SWAP1 PUSH1 0x4 MUL ADD PUSH1 0x40 MLOAD DUP1 PUSH1 0x80 ADD PUSH1 0x40 MSTORE SWAP1 DUP2 PUSH1 0x0 DUP3 ADD DUP1 SLOAD PUSH2 0x9E9 SWAP1 PUSH2 0x1525 JUMP JUMPDEST DUP1 PUSH1 0x1F ADD PUSH1 0x20 DUP1 SWAP2 DIV MUL PUSH1 0x20 ADD PUSH1 0x40 MLOAD SWAP1 DUP2 ADD PUSH1 0x40 MSTORE DUP1 SWAP3 SWAP2 SWAP1 DUP2 DUP2 MSTORE PUSH1 0x20 ADD DUP3 DUP1 SLOAD PUSH2 0xA15 SWAP1 PUSH2 0x1525 JUMP JUMPDEST DUP1 ISZERO PUSH2 0xA62 JUMPI DUP1 PUSH1 0x1F LT PUSH2 0xA37 JUMPI PUSH2 0x100 DUP1 DUP4 SLOAD DIV MUL DUP4 MSTORE SWAP2 PUSH1 0x20 ADD SWAP2 PUSH2 0xA62 JUMP JUMPDEST DUP3 ADD SWAP2 SWAP1 PUSH1 0x0 MSTORE PUSH1 0x20 PUSH1 0x0 KECCAK256 SWAP1 JUMPDEST DUP2 SLOAD DUP2 MSTORE SWAP1 PUSH1 0x1 ADD SWAP1 PUSH1 0x20 ADD DUP1 DUP4 GT PUSH2 0xA45 JUMPI DUP3 SWAP1 SUB PUSH1 0x1F AND DUP3 ADD SWAP2 JUMPDEST POP POP POP POP POP DUP2 MSTORE PUSH1 0x20 ADD PUSH1 0x1 DUP3 ADD PUSH1 0x0 SWAP1 SLOAD SWAP1 PUSH2 0x100 EXP SWAP1 DIV PUSH20 0xFFFFFFFFFFFFFFFFFFFFFFFFFFFFFFFFFFFFFFFF AND PUSH20 0xFFFFFFFFFFFFFFFFFFFFFFFFFFFFFFFFFFFFFFFF AND PUSH20 0xFFFFFFFFFFFFFFFFFFFFFFFFFFFFFFFFFFFFFFFF AND DUP2 MSTORE PUSH1 0x20 ADD PUSH1 0x2 DUP3 ADD SLOAD DUP2 MSTORE PUSH1 0x20 ADD PUSH1 0x3 DUP3 ADD SLOAD DUP2 MSTORE POP POP SWAP1 POP SWAP2 SWAP1 POP JUMP JUMPDEST PUSH1 0x0 PUSH1 0x2 DUP1 SLOAD SWAP1 POP SWAP1 POP SWAP1 JUMP JUMPDEST PUSH1 0x0 DUP1 PUSH1 0x0 PUSH2 0xB05 PUSH3 0x15180 DUP6 PUSH2 0xB00 SWAP2 SWAP1 PUSH2 0x18E7 JUMP JUMPDEST PUSH2 0xBC6 JUMP JUMPDEST DUP1 SWAP4 POP DUP2 SWAP5 POP DUP3 SWAP6 POP POP POP POP SWAP2 SWAP4 SWAP1 SWAP3 POP JUMP JUMPDEST PUSH2 0xB21 DUP2 PUSH2 0x860 JUMP JUMPDEST PUSH32 0x65A65434D5FC8D211D6B6DA7E78302EE4047A9FC73F3737F34117DBFB5FE0E15 PUSH1 0x2 DUP3 DUP2 SLOAD DUP2 LT PUSH2 0xB56 JUMPI PUSH2 0xB55 PUSH2 0x1450 JUMP JUMPDEST JUMPDEST SWAP1 PUSH1 0x0 MSTORE PUSH1 0x20 PUSH1 0x0 KECCAK256 SWAP1 PUSH1 0x4 MUL ADD PUSH1 0x0 ADD PUSH1 0x2 DUP4 DUP2 SLOAD DUP2 LT PUSH2 0xB7B JUMPI PUSH2 0xB7A PUSH2 0x1450 JUMP JUMPDEST JUMPDEST SWAP1 PUSH1 0x0 MSTORE PUSH1 0x20 PUSH1 0x0 KECCAK256 SWAP1 PUSH1 0x4 MUL ADD PUSH1 0x1 ADD PUSH1 0x0 SWAP1 SLOAD SWAP1 PUSH2 0x100 EXP SWAP1 DIV PUSH20 0xFFFFFFFFFFFFFFFFFFFFFFFFFFFFFFFFFFFFFFFF AND PUSH1 0x40 MLOAD PUSH2 0xBBB SWAP3 SWAP2 SWAP1 PUSH2 0x199C JUMP JUMPDEST PUSH1 0x40 MLOAD DUP1 SWAP2 SUB SWAP1 LOG1 POP JUMP JUMPDEST PUSH1 0x0 DUP1 PUSH1 0x0 DUP1 DUP5 SWAP1 POP PUSH1 0x0 PUSH3 0x253D8C PUSH3 0x10BD9 DUP4 PUSH2 0xBE4 SWAP2 SWAP1 PUSH2 0x19D6 JUMP JUMPDEST PUSH2 0xBEE SWAP2 SWAP1 PUSH2 0x19D6 JUMP JUMPDEST SWAP1 POP PUSH1 0x0 PUSH3 0x23AB1 DUP3 PUSH1 0x4 PUSH2 0xC03 SWAP2 SWAP1 PUSH2 0x1A1A JUMP JUMPDEST PUSH2 0xC0D SWAP2 SWAP1 PUSH2 0x1A92 JUMP JUMPDEST SWAP1 POP PUSH1 0x4 PUSH1 0x3 DUP3 PUSH3 0x23AB1 PUSH2 0xC22 SWAP2 SWAP1 PUSH2 0x1A1A JUMP JUMPDEST PUSH2 0xC2C SWAP2 SWAP1 PUSH2 0x19D6 JUMP JUMPDEST PUSH2 0xC36 SWAP2 SWAP1 PUSH2 0x1A92 JUMP JUMPDEST DUP3 PUSH2 0xC41 SWAP2 SWAP1 PUSH2 0x1AFC JUMP JUMPDEST SWAP2 POP PUSH1 0x0 PUSH3 0x164B09 PUSH1 0x1 DUP5 PUSH2 0xC56 SWAP2 SWAP1 PUSH2 0x19D6 JUMP JUMPDEST PUSH2 0xFA0 PUSH2 0xC63 SWAP2 SWAP1 PUSH2 0x1A1A JUMP JUMPDEST PUSH2 0xC6D SWAP2 SWAP1 PUSH2 0x1A92 JUMP JUMPDEST SWAP1 POP PUSH1 0x1F PUSH1 0x4 DUP3 PUSH2 0x5B5 PUSH2 0xC81 SWAP2 SWAP1 PUSH2 0x1A1A JUMP JUMPDEST PUSH2 0xC8B SWAP2 SWAP1 PUSH2 0x1A92 JUMP JUMPDEST DUP5 PUSH2 0xC96 SWAP2 SWAP1 PUSH2 0x1AFC JUMP JUMPDEST PUSH2 0xCA0 SWAP2 SWAP1 PUSH2 0x19D6 JUMP JUMPDEST SWAP3 POP PUSH1 0x0 PUSH2 0x98F DUP5 PUSH1 0x50 PUSH2 0xCB4 SWAP2 SWAP1 PUSH2 0x1A1A JUMP JUMPDEST PUSH2 0xCBE SWAP2 SWAP1 PUSH2 0x1A92 JUMP JUMPDEST SWAP1 POP PUSH1 0x0 PUSH1 0x50 DUP3 PUSH2 0x98F PUSH2 0xCD2 SWAP2 SWAP1 PUSH2 0x1A1A JUMP JUMPDEST PUSH2 0xCDC SWAP2 SWAP1 PUSH2 0x1A92 JUMP JUMPDEST DUP6 PUSH2 0xCE7 SWAP2 SWAP1 PUSH2 0x1AFC JUMP JUMPDEST SWAP1 POP PUSH1 0xB DUP3 PUSH2 0xCF6 SWAP2 SWAP1 PUSH2 0x1A92 JUMP JUMPDEST SWAP5 POP DUP5 PUSH1 0xC PUSH2 0xD05 SWAP2 SWAP1 PUSH2 0x1A1A JUMP JUMPDEST PUSH1 0x2 DUP4 PUSH2 0xD12 SWAP2 SWAP1 PUSH2 0x19D6 JUMP JUMPDEST PUSH2 0xD1C SWAP2 SWAP1 PUSH2 0x1AFC JUMP JUMPDEST SWAP2 POP DUP5 DUP4 PUSH1 0x31 DUP7 PUSH2 0xD2D SWAP2 SWAP1 PUSH2 0x1AFC JUMP JUMPDEST PUSH1 0x64 PUSH2 0xD39 SWAP2 SWAP1 PUSH2 0x1A1A JUMP JUMPDEST PUSH2 0xD43 SWAP2 SWAP1 PUSH2 0x19D6 JUMP JUMPDEST PUSH2 0xD4D SWAP2 SWAP1 PUSH2 0x19D6 JUMP JUMPDEST SWAP3 POP DUP3 SWAP9 POP DUP2 SWAP8 POP DUP1 SWAP7 POP POP POP POP POP POP POP SWAP2 SWAP4 SWAP1 SWAP3 POP JUMP JUMPDEST PUSH1 0x40 MLOAD DUP1 PUSH1 0x80 ADD PUSH1 0x40 MSTORE DUP1 PUSH1 0x60 DUP2 MSTORE PUSH1 0x20 ADD PUSH1 0x0 PUSH20 0xFFFFFFFFFFFFFFFFFFFFFFFFFFFFFFFFFFFFFFFF AND DUP2 MSTORE PUSH1 0x20 ADD PUSH1 0x0 DUP2 MSTORE PUSH1 0x20 ADD PUSH1 0x0 DUP2 MSTORE POP SWAP1 JUMP JUMPDEST PUSH1 0x0 PUSH1 0x40 MLOAD SWAP1 POP SWAP1 JUMP JUMPDEST PUSH1 0x0 DUP1 REVERT JUMPDEST PUSH1 0x0 DUP1 REVERT JUMPDEST PUSH1 0x0 DUP2 SWAP1 POP SWAP2 SWAP1 POP JUMP JUMPDEST PUSH2 0xDCA DUP2 PUSH2 0xDB7 JUMP JUMPDEST DUP2 EQ PUSH2 0xDD5 JUMPI PUSH1 0x0 DUP1 REVERT JUMPDEST POP JUMP JUMPDEST PUSH1 0x0 DUP2 CALLDATALOAD SWAP1 POP PUSH2 0xDE7 DUP2 PUSH2 0xDC1 JUMP JUMPDEST SWAP3 SWAP2 POP POP JUMP JUMPDEST PUSH1 0x0 PUSH1 0x20 DUP3 DUP5 SUB SLT ISZERO PUSH2 0xE03 JUMPI PUSH2 0xE02 PUSH2 0xDAD JUMP JUMPDEST JUMPDEST PUSH1 0x0 PUSH2 0xE11 DUP5 DUP3 DUP6 ADD PUSH2 0xDD8 JUMP JUMPDEST SWAP2 POP POP SWAP3 SWAP2 POP POP JUMP JUMPDEST PUSH2 0xE23 DUP2 PUSH2 0xDB7 JUMP JUMPDEST DUP3 MSTORE POP POP JUMP JUMPDEST PUSH1 0x0 PUSH1 0x60 DUP3 ADD SWAP1 POP PUSH2 0xE3E PUSH1 0x0 DUP4 ADD DUP7 PUSH2 0xE1A JUMP JUMPDEST PUSH2 0xE4B PUSH1 0x20 DUP4 ADD DUP6 PUSH2 0xE1A JUMP JUMPDEST PUSH2 0xE58 PUSH1 0x40 DUP4 ADD DUP5 PUSH2 0xE1A JUMP JUMPDEST SWAP5 SWAP4 POP POP POP POP JUMP JUMPDEST PUSH1 0x0 DUP2 MLOAD SWAP1 POP SWAP2 SWAP1 POP JUMP JUMPDEST PUSH1 0x0 DUP3 DUP3 MSTORE PUSH1 0x20 DUP3 ADD SWAP1 POP SWAP3 SWAP2 POP POP JUMP JUMPDEST PUSH1 0x0 DUP2 SWAP1 POP PUSH1 0x20 DUP3 ADD SWAP1 POP SWAP2 SWAP1 POP JUMP JUMPDEST PUSH1 0x0 DUP2 MLOAD SWAP1 POP SWAP2 SWAP1 POP JUMP JUMPDEST PUSH1 0x0 DUP3 DUP3 MSTORE PUSH1 0x20 DUP3 ADD SWAP1 POP SWAP3 SWAP2 POP POP JUMP JUMPDEST PUSH1 0x0 JUMPDEST DUP4 DUP2 LT ISZERO PUSH2 0xEC6 JUMPI DUP1 DUP3 ADD MLOAD DUP2 DUP5 ADD MSTORE PUSH1 0x20 DUP2 ADD SWAP1 POP PUSH2 0xEAB JUMP JUMPDEST PUSH1 0x0 DUP5 DUP5 ADD MSTORE POP POP POP POP JUMP JUMPDEST PUSH1 0x0 PUSH1 0x1F NOT PUSH1 0x1F DUP4 ADD AND SWAP1 POP SWAP2 SWAP1 POP JUMP JUMPDEST PUSH1 0x0 PUSH2 0xEEE DUP3 PUSH2 0xE8C JUMP JUMPDEST PUSH2 0xEF8 DUP2 DUP6 PUSH2 0xE97 JUMP JUMPDEST SWAP4 POP PUSH2 0xF08 DUP2 DUP6 PUSH1 0x20 DUP7 ADD PUSH2 0xEA8 JUMP JUMPDEST PUSH2 0xF11 DUP2 PUSH2 0xED2 JUMP JUMPDEST DUP5 ADD SWAP2 POP POP SWAP3 SWAP2 POP POP JUMP JUMPDEST PUSH1 0x0 PUSH20 0xFFFFFFFFFFFFFFFFFFFFFFFFFFFFFFFFFFFFFFFF DUP3 AND SWAP1 POP SWAP2 SWAP1 POP JUMP JUMPDEST PUSH1 0x0 PUSH2 0xF47 DUP3 PUSH2 0xF1C JUMP JUMPDEST SWAP1 POP SWAP2 SWAP1 POP JUMP JUMPDEST PUSH2 0xF57 DUP2 PUSH2 0xF3C JUMP JUMPDEST DUP3 MSTORE POP POP JUMP JUMPDEST PUSH2 0xF66 DUP2 PUSH2 0xDB7 JUMP JUMPDEST DUP3 MSTORE POP POP JUMP JUMPDEST PUSH1 0x0 PUSH1 0x80 DUP4 ADD PUSH1 0x0 DUP4 ADD MLOAD DUP5 DUP3 SUB PUSH1 0x0 DUP7 ADD MSTORE PUSH2 0xF89 DUP3 DUP3 PUSH2 0xEE3 JUMP JUMPDEST SWAP2 POP POP PUSH1 0x20 DUP4 ADD MLOAD PUSH2 0xF9E PUSH1 0x20 DUP7 ADD DUP3 PUSH2 0xF4E JUMP JUMPDEST POP PUSH1 0x40 DUP4 ADD MLOAD PUSH2 0xFB1 PUSH1 0x40 DUP7 ADD DUP3 PUSH2 0xF5D JUMP JUMPDEST POP PUSH1 0x60 DUP4 ADD MLOAD PUSH2 0xFC4 PUSH1 0x60 DUP7 ADD DUP3 PUSH2 0xF5D JUMP JUMPDEST POP DUP1 SWAP2 POP POP SWAP3 SWAP2 POP POP JUMP JUMPDEST PUSH1 0x0 PUSH2 0xFDB DUP4 DUP4 PUSH2 0xF6C JUMP JUMPDEST SWAP1 POP SWAP3 SWAP2 POP POP JUMP JUMPDEST PUSH1 0x0 PUSH1 0x20 DUP3 ADD SWAP1 POP SWAP2 SWAP1 POP JUMP JUMPDEST PUSH1 0x0 PUSH2 0xFFB DUP3 PUSH2 0xE60 JUMP JUMPDEST PUSH2 0x1005 DUP2 DUP6 PUSH2 0xE6B JUMP JUMPDEST SWAP4 POP DUP4 PUSH1 0x20 DUP3 MUL DUP6 ADD PUSH2 0x1017 DUP6 PUSH2 0xE7C JUMP JUMPDEST DUP1 PUSH1 0x0 JUMPDEST DUP6 DUP2 LT ISZERO PUSH2 0x1053 JUMPI DUP5 DUP5 SUB DUP10 MSTORE DUP2 MLOAD PUSH2 0x1034 DUP6 DUP3 PUSH2 0xFCF JUMP JUMPDEST SWAP5 POP PUSH2 0x103F DUP4 PUSH2 0xFE3 JUMP JUMPDEST SWAP3 POP PUSH1 0x20 DUP11 ADD SWAP10 POP POP PUSH1 0x1 DUP2 ADD SWAP1 POP PUSH2 0x101B JUMP JUMPDEST POP DUP3 SWAP8 POP DUP8 SWAP6 POP POP POP POP POP POP SWAP3 SWAP2 POP POP JUMP JUMPDEST PUSH1 0x0 PUSH1 0x20 DUP3 ADD SWAP1 POP DUP2 DUP2 SUB PUSH1 0x0 DUP4 ADD MSTORE PUSH2 0x107F DUP2 DUP5 PUSH2 0xFF0 JUMP JUMPDEST SWAP1 POP SWAP3 SWAP2 POP POP JUMP JUMPDEST PUSH2 0x1090 DUP2 PUSH2 0xF3C JUMP JUMPDEST DUP2 EQ PUSH2 0x109B JUMPI PUSH1 0x0 DUP1 REVERT JUMPDEST POP JUMP JUMPDEST PUSH1 0x0 DUP2 CALLDATALOAD SWAP1 POP PUSH2 0x10AD DUP2 PUSH2 0x1087 JUMP JUMPDEST SWAP3 SWAP2 POP POP JUMP JUMPDEST PUSH1 0x0 DUP1 REVERT JUMPDEST PUSH1 0x0 DUP1 REVERT JUMPDEST PUSH32 0x4E487B7100000000000000000000000000000000000000000000000000000000 PUSH1 0x0 MSTORE PUSH1 0x41 PUSH1 0x4 MSTORE PUSH1 0x24 PUSH1 0x0 REVERT JUMPDEST PUSH2 0x10F5 DUP3 PUSH2 0xED2 JUMP JUMPDEST DUP2 ADD DUP2 DUP2 LT PUSH8 0xFFFFFFFFFFFFFFFF DUP3 GT OR ISZERO PUSH2 0x1114 JUMPI PUSH2 0x1113 PUSH2 0x10BD JUMP JUMPDEST JUMPDEST DUP1 PUSH1 0x40 MSTORE POP POP POP JUMP JUMPDEST PUSH1 0x0 PUSH2 0x1127 PUSH2 0xDA3 JUMP JUMPDEST SWAP1 POP PUSH2 0x1133 DUP3 DUP3 PUSH2 0x10EC JUMP JUMPDEST SWAP2 SWAP1 POP JUMP JUMPDEST PUSH1 0x0 PUSH8 0xFFFFFFFFFFFFFFFF DUP3 GT ISZERO PUSH2 0x1153 JUMPI PUSH2 0x1152 PUSH2 0x10BD JUMP JUMPDEST JUMPDEST PUSH2 0x115C DUP3 PUSH2 0xED2 JUMP JUMPDEST SWAP1 POP PUSH1 0x20 DUP2 ADD SWAP1 POP SWAP2 SWAP1 POP JUMP JUMPDEST DUP3 DUP2 DUP4 CALLDATACOPY PUSH1 0x0 DUP4 DUP4 ADD MSTORE POP POP POP JUMP JUMPDEST PUSH1 0x0 PUSH2 0x118B PUSH2 0x1186 DUP5 PUSH2 0x1138 JUMP JUMPDEST PUSH2 0x111D JUMP JUMPDEST SWAP1 POP DUP3 DUP2 MSTORE PUSH1 0x20 DUP2 ADD DUP5 DUP5 DUP5 ADD GT ISZERO PUSH2 0x11A7 JUMPI PUSH2 0x11A6 PUSH2 0x10B8 JUMP JUMPDEST JUMPDEST PUSH2 0x11B2 DUP5 DUP3 DUP6 PUSH2 0x1169 JUMP JUMPDEST POP SWAP4 SWAP3 POP POP POP JUMP JUMPDEST PUSH1 0x0 DUP3 PUSH1 0x1F DUP4 ADD SLT PUSH2 0x11CF JUMPI PUSH2 0x11CE PUSH2 0x10B3 JUMP JUMPDEST JUMPDEST DUP2 CALLDATALOAD PUSH2 0x11DF DUP5 DUP3 PUSH1 0x20 DUP7 ADD PUSH2 0x1178 JUMP JUMPDEST SWAP2 POP POP SWAP3 SWAP2 POP POP JUMP JUMPDEST PUSH1 0x0 DUP1 PUSH1 0x0 DUP1 PUSH1 0x80 DUP6 DUP8 SUB SLT ISZERO PUSH2 0x1202 JUMPI PUSH2 0x1201 PUSH2 0xDAD JUMP JUMPDEST JUMPDEST PUSH1 0x0 PUSH2 0x1210 DUP8 DUP3 DUP9 ADD PUSH2 0x109E JUMP JUMPDEST SWAP5 POP POP PUSH1 0x20 DUP6 ADD CALLDATALOAD PUSH8 0xFFFFFFFFFFFFFFFF DUP2 GT ISZERO PUSH2 0x1231 JUMPI PUSH2 0x1230 PUSH2 0xDB2 JUMP JUMPDEST JUMPDEST PUSH2 0x123D DUP8 DUP3 DUP9 ADD PUSH2 0x11BA JUMP JUMPDEST SWAP4 POP POP PUSH1 0x40 PUSH2 0x124E DUP8 DUP3 DUP9 ADD PUSH2 0xDD8 JUMP JUMPDEST SWAP3 POP POP PUSH1 0x60 PUSH2 0x125F DUP8 DUP3 DUP9 ADD PUSH2 0xDD8 JUMP JUMPDEST SWAP2 POP POP SWAP3 SWAP6 SWAP2 SWAP5 POP SWAP3 POP JUMP JUMPDEST PUSH1 0x0 DUP2 ISZERO ISZERO SWAP1 POP SWAP2 SWAP1 POP JUMP JUMPDEST PUSH2 0x1280 DUP2 PUSH2 0x126B JUMP JUMPDEST DUP3 MSTORE POP POP JUMP JUMPDEST PUSH1 0x0 PUSH1 0x20 DUP3 ADD SWAP1 POP PUSH2 0x129B PUSH1 0x0 DUP4 ADD DUP5 PUSH2 0x1277 JUMP JUMPDEST SWAP3 SWAP2 POP POP JUMP JUMPDEST PUSH1 0x0 PUSH1 0x80 DUP4 ADD PUSH1 0x0 DUP4 ADD MLOAD DUP5 DUP3 SUB PUSH1 0x0 DUP7 ADD MSTORE PUSH2 0x12BE DUP3 DUP3 PUSH2 0xEE3 JUMP JUMPDEST SWAP2 POP POP PUSH1 0x20 DUP4 ADD MLOAD PUSH2 0x12D3 PUSH1 0x20 DUP7 ADD DUP3 PUSH2 0xF4E JUMP JUMPDEST POP PUSH1 0x40 DUP4 ADD MLOAD PUSH2 0x12E6 PUSH1 0x40 DUP7 ADD DUP3 PUSH2 0xF5D JUMP JUMPDEST POP PUSH1 0x60 DUP4 ADD MLOAD PUSH2 0x12F9 PUSH1 0x60 DUP7 ADD DUP3 PUSH2 0xF5D JUMP JUMPDEST POP DUP1 SWAP2 POP POP SWAP3 SWAP2 POP POP JUMP JUMPDEST PUSH1 0x0 PUSH1 0x20 DUP3 ADD SWAP1 POP DUP2 DUP2 SUB PUSH1 0x0 DUP4 ADD MSTORE PUSH2 0x131E DUP2 DUP5 PUSH2 0x12A1 JUMP JUMPDEST SWAP1 POP SWAP3 SWAP2 POP POP JUMP JUMPDEST PUSH1 0x0 PUSH1 0x20 DUP3 ADD SWAP1 POP PUSH2 0x133B PUSH1 0x0 DUP4 ADD DUP5 PUSH2 0xE1A JUMP JUMPDEST SWAP3 SWAP2 POP POP JUMP JUMPDEST PUSH1 0x0 DUP3 DUP3 MSTORE PUSH1 0x20 DUP3 ADD SWAP1 POP SWAP3 SWAP2 POP POP JUMP JUMPDEST PUSH32 0x53656E6465722073686F756C6420626520746865206F776E6572206F6620636F PUSH1 0x0 DUP3 ADD MSTORE PUSH32 0x6E74726163740000000000000000000000000000000000000000000000000000 PUSH1 0x20 DUP3 ADD MSTORE POP JUMP JUMPDEST PUSH1 0x0 PUSH2 0x13AE PUSH1 0x26 DUP4 PUSH2 0x1341 JUMP JUMPDEST SWAP2 POP PUSH2 0x13B9 DUP3 PUSH2 0x1352 JUMP JUMPDEST PUSH1 0x40 DUP3 ADD SWAP1 POP SWAP2 SWAP1 POP JUMP JUMPDEST PUSH1 0x0 PUSH1 0x20 DUP3 ADD SWAP1 POP DUP2 DUP2 SUB PUSH1 0x0 DUP4 ADD MSTORE PUSH2 0x13DD DUP2 PUSH2 0x13A1 JUMP JUMPDEST SWAP1 POP SWAP2 SWAP1 POP JUMP JUMPDEST PUSH32 0x4E6F207465616D6D6174657320696E2074686520646174616261736500000000 PUSH1 0x0 DUP3 ADD MSTORE POP JUMP JUMPDEST PUSH1 0x0 PUSH2 0x141A PUSH1 0x1C DUP4 PUSH2 0x1341 JUMP JUMPDEST SWAP2 POP PUSH2 0x1425 DUP3 PUSH2 0x13E4 JUMP JUMPDEST PUSH1 0x20 DUP3 ADD SWAP1 POP SWAP2 SWAP1 POP JUMP JUMPDEST PUSH1 0x0 PUSH1 0x20 DUP3 ADD SWAP1 POP DUP2 DUP2 SUB PUSH1 0x0 DUP4 ADD MSTORE PUSH2 0x1449 DUP2 PUSH2 0x140D JUMP JUMPDEST SWAP1 POP SWAP2 SWAP1 POP JUMP JUMPDEST PUSH32 0x4E487B7100000000000000000000000000000000000000000000000000000000 PUSH1 0x0 MSTORE PUSH1 0x32 PUSH1 0x4 MSTORE PUSH1 0x24 PUSH1 0x0 REVERT JUMPDEST PUSH32 0x4E487B7100000000000000000000000000000000000000000000000000000000 PUSH1 0x0 MSTORE PUSH1 0x11 PUSH1 0x4 MSTORE PUSH1 0x24 PUSH1 0x0 REVERT JUMPDEST PUSH1 0x0 PUSH2 0x14B9 DUP3 PUSH2 0xDB7 JUMP JUMPDEST SWAP2 POP PUSH32 0xFFFFFFFFFFFFFFFFFFFFFFFFFFFFFFFFFFFFFFFFFFFFFFFFFFFFFFFFFFFFFFFF DUP3 SUB PUSH2 0x14EB JUMPI PUSH2 0x14EA PUSH2 0x147F JUMP JUMPDEST JUMPDEST PUSH1 0x1 DUP3 ADD SWAP1 POP SWAP2 SWAP1 POP JUMP JUMPDEST PUSH32 0x4E487B7100000000000000000000000000000000000000000000000000000000 PUSH1 0x0 MSTORE PUSH1 0x22 PUSH1 0x4 MSTORE PUSH1 0x24 PUSH1 0x0 REVERT JUMPDEST PUSH1 0x0 PUSH1 0x2 DUP3 DIV SWAP1 POP PUSH1 0x1 DUP3 AND DUP1 PUSH2 0x153D JUMPI PUSH1 0x7F DUP3 AND SWAP2 POP JUMPDEST PUSH1 0x20 DUP3 LT DUP2 SUB PUSH2 0x1550 JUMPI PUSH2 0x154F PUSH2 0x14F6 JUMP JUMPDEST JUMPDEST POP SWAP2 SWAP1 POP JUMP JUMPDEST PUSH32 0x43616E6E6F7420616464206F6E6573656C660000000000000000000000000000 PUSH1 0x0 DUP3 ADD MSTORE POP JUMP JUMPDEST PUSH1 0x0 PUSH2 0x158C PUSH1 0x12 DUP4 PUSH2 0x1341 JUMP JUMPDEST SWAP2 POP PUSH2 0x1597 DUP3 PUSH2 0x1556 JUMP JUMPDEST PUSH1 0x20 DUP3 ADD SWAP1 POP SWAP2 SWAP1 POP JUMP JUMPDEST PUSH1 0x0 PUSH1 0x20 DUP3 ADD SWAP1 POP DUP2 DUP2 SUB PUSH1 0x0 DUP4 ADD MSTORE PUSH2 0x15BB DUP2 PUSH2 0x157F JUMP JUMPDEST SWAP1 POP SWAP2 SWAP1 POP JUMP JUMPDEST PUSH1 0x0 DUP2 SWAP1 POP DUP2 PUSH1 0x0 MSTORE PUSH1 0x20 PUSH1 0x0 KECCAK256 SWAP1 POP SWAP2 SWAP1 POP JUMP JUMPDEST PUSH1 0x0 PUSH1 0x20 PUSH1 0x1F DUP4 ADD DIV SWAP1 POP SWAP2 SWAP1 POP JUMP JUMPDEST PUSH1 0x0 DUP3 DUP3 SHL SWAP1 POP SWAP3 SWAP2 POP POP JUMP JUMPDEST PUSH1 0x0 PUSH1 0x8 DUP4 MUL PUSH2 0x1624 PUSH32 0xFFFFFFFFFFFFFFFFFFFFFFFFFFFFFFFFFFFFFFFFFFFFFFFFFFFFFFFFFFFFFFFF DUP3 PUSH2 0x15E7 JUMP JUMPDEST PUSH2 0x162E DUP7 DUP4 PUSH2 0x15E7 JUMP JUMPDEST SWAP6 POP DUP1 NOT DUP5 AND SWAP4 POP DUP1 DUP7 AND DUP5 OR SWAP3 POP POP POP SWAP4 SWAP3 POP POP POP JUMP JUMPDEST PUSH1 0x0 DUP2 SWAP1 POP SWAP2 SWAP1 POP JUMP JUMPDEST PUSH1 0x0 PUSH2 0x166B PUSH2 0x1666 PUSH2 0x1661 DUP5 PUSH2 0xDB7 JUMP JUMPDEST PUSH2 0x1646 JUMP JUMPDEST PUSH2 0xDB7 JUMP JUMPDEST SWAP1 POP SWAP2 SWAP1 POP JUMP JUMPDEST PUSH1 0x0 DUP2 SWAP1 POP SWAP2 SWAP1 POP JUMP JUMPDEST PUSH2 0x1685 DUP4 PUSH2 0x1650 JUMP JUMPDEST PUSH2 0x1699 PUSH2 0x1691 DUP3 PUSH2 0x1672 JUMP JUMPDEST DUP5 DUP5 SLOAD PUSH2 0x15F4 JUMP JUMPDEST DUP3 SSTORE POP POP POP POP JUMP JUMPDEST PUSH1 0x0 SWAP1 JUMP JUMPDEST PUSH2 0x16AE PUSH2 0x16A1 JUMP JUMPDEST PUSH2 0x16B9 DUP2 DUP5 DUP5 PUSH2 0x167C JUMP JUMPDEST POP POP POP JUMP JUMPDEST JUMPDEST DUP2 DUP2 LT ISZERO PUSH2 0x16DD JUMPI PUSH2 0x16D2 PUSH1 0x0 DUP3 PUSH2 0x16A6 JUMP JUMPDEST PUSH1 0x1 DUP2 ADD SWAP1 POP PUSH2 0x16BF JUMP JUMPDEST POP POP JUMP JUMPDEST PUSH1 0x1F DUP3 GT ISZERO PUSH2 0x1722 JUMPI PUSH2 0x16F3 DUP2 PUSH2 0x15C2 JUMP JUMPDEST PUSH2 0x16FC DUP5 PUSH2 0x15D7 JUMP JUMPDEST DUP2 ADD PUSH1 0x20 DUP6 LT ISZERO PUSH2 0x170B JUMPI DUP2 SWAP1 POP JUMPDEST PUSH2 0x171F PUSH2 0x1717 DUP6 PUSH2 0x15D7 JUMP JUMPDEST DUP4 ADD DUP3 PUSH2 0x16BE JUMP JUMPDEST POP POP JUMPDEST POP POP POP JUMP JUMPDEST PUSH1 0x0 DUP3 DUP3 SHR SWAP1 POP SWAP3 SWAP2 POP POP JUMP JUMPDEST PUSH1 0x0 PUSH2 0x1745 PUSH1 0x0 NOT DUP5 PUSH1 0x8 MUL PUSH2 0x1727 JUMP JUMPDEST NOT DUP1 DUP4 AND SWAP2 POP POP SWAP3 SWAP2 POP POP JUMP JUMPDEST PUSH1 0x0 PUSH2 0x175E DUP4 DUP4 PUSH2 0x1734 JUMP JUMPDEST SWAP2 POP DUP3 PUSH1 0x2 MUL DUP3 OR SWAP1 POP SWAP3 SWAP2 POP POP JUMP JUMPDEST PUSH2 0x1777 DUP3 PUSH2 0xE8C JUMP JUMPDEST PUSH8 0xFFFFFFFFFFFFFFFF DUP2 GT ISZERO PUSH2 0x1790 JUMPI PUSH2 0x178F PUSH2 0x10BD JUMP JUMPDEST JUMPDEST PUSH2 0x179A DUP3 SLOAD PUSH2 0x1525 JUMP JUMPDEST PUSH2 0x17A5 DUP3 DUP3 DUP6 PUSH2 0x16E1 JUMP JUMPDEST PUSH1 0x0 PUSH1 0x20 SWAP1 POP PUSH1 0x1F DUP4 GT PUSH1 0x1 DUP2 EQ PUSH2 0x17D8 JUMPI PUSH1 0x0 DUP5 ISZERO PUSH2 0x17C6 JUMPI DUP3 DUP8 ADD MLOAD SWAP1 POP JUMPDEST PUSH2 0x17D0 DUP6 DUP3 PUSH2 0x1752 JUMP JUMPDEST DUP7 SSTORE POP PUSH2 0x1838 JUMP JUMPDEST PUSH1 0x1F NOT DUP5 AND PUSH2 0x17E6 DUP7 PUSH2 0x15C2 JUMP JUMPDEST PUSH1 0x0 JUMPDEST DUP3 DUP2 LT ISZERO PUSH2 0x180E JUMPI DUP5 DUP10 ADD MLOAD DUP3 SSTORE PUSH1 0x1 DUP3 ADD SWAP2 POP PUSH1 0x20 DUP6 ADD SWAP5 POP PUSH1 0x20 DUP2 ADD SWAP1 POP PUSH2 0x17E9 JUMP JUMPDEST DUP7 DUP4 LT ISZERO PUSH2 0x182B JUMPI DUP5 DUP10 ADD MLOAD PUSH2 0x1827 PUSH1 0x1F DUP10 AND DUP3 PUSH2 0x1734 JUMP JUMPDEST DUP4 SSTORE POP JUMPDEST PUSH1 0x1 PUSH1 0x2 DUP9 MUL ADD DUP9 SSTORE POP POP POP JUMPDEST POP POP POP POP POP POP JUMP JUMPDEST PUSH2 0x1849 DUP2 PUSH2 0xF3C JUMP JUMPDEST DUP3 MSTORE POP POP JUMP JUMPDEST PUSH1 0x0 PUSH2 0x185A DUP3 PUSH2 0xE8C JUMP JUMPDEST PUSH2 0x1864 DUP2 DUP6 PUSH2 0x1341 JUMP JUMPDEST SWAP4 POP PUSH2 0x1874 DUP2 DUP6 PUSH1 0x20 DUP7 ADD PUSH2 0xEA8 JUMP JUMPDEST PUSH2 0x187D DUP2 PUSH2 0xED2 JUMP JUMPDEST DUP5 ADD SWAP2 POP POP SWAP3 SWAP2 POP POP JUMP JUMPDEST PUSH1 0x0 PUSH1 0x40 DUP3 ADD SWAP1 POP PUSH2 0x189D PUSH1 0x0 DUP4 ADD DUP6 PUSH2 0x1840 JUMP JUMPDEST DUP2 DUP2 SUB PUSH1 0x20 DUP4 ADD MSTORE PUSH2 0x18AF DUP2 DUP5 PUSH2 0x184F JUMP JUMPDEST SWAP1 POP SWAP4 SWAP3 POP POP POP JUMP JUMPDEST PUSH32 0x4E487B7100000000000000000000000000000000000000000000000000000000 PUSH1 0x0 MSTORE PUSH1 0x12 PUSH1 0x4 MSTORE PUSH1 0x24 PUSH1 0x0 REVERT JUMPDEST PUSH1 0x0 PUSH2 0x18F2 DUP3 PUSH2 0xDB7 JUMP JUMPDEST SWAP2 POP PUSH2 0x18FD DUP4 PUSH2 0xDB7 JUMP JUMPDEST SWAP3 POP DUP3 PUSH2 0x190D JUMPI PUSH2 0x190C PUSH2 0x18B8 JUMP JUMPDEST JUMPDEST DUP3 DUP3 DIV SWAP1 POP SWAP3 SWAP2 POP POP JUMP JUMPDEST PUSH1 0x0 DUP2 SLOAD PUSH2 0x1925 DUP2 PUSH2 0x1525 JUMP JUMPDEST PUSH2 0x192F DUP2 DUP7 PUSH2 0x1341 JUMP JUMPDEST SWAP5 POP PUSH1 0x1 DUP3 AND PUSH1 0x0 DUP2 EQ PUSH2 0x194A JUMPI PUSH1 0x1 DUP2 EQ PUSH2 0x1960 JUMPI PUSH2 0x1993 JUMP JUMPDEST PUSH1 0xFF NOT DUP4 AND DUP7 MSTORE DUP2 ISZERO ISZERO PUSH1 0x20 MUL DUP7 ADD SWAP4 POP PUSH2 0x1993 JUMP JUMPDEST PUSH2 0x1969 DUP6 PUSH2 0x15C2 JUMP JUMPDEST PUSH1 0x0 JUMPDEST DUP4 DUP2 LT ISZERO PUSH2 0x198B JUMPI DUP2 SLOAD DUP2 DUP10 ADD MSTORE PUSH1 0x1 DUP3 ADD SWAP2 POP PUSH1 0x20 DUP2 ADD SWAP1 POP PUSH2 0x196C JUMP JUMPDEST DUP1 DUP9 ADD SWAP6 POP POP POP JUMPDEST POP POP POP SWAP3 SWAP2 POP POP JUMP JUMPDEST PUSH1 0x0 PUSH1 0x40 DUP3 ADD SWAP1 POP DUP2 DUP2 SUB PUSH1 0x0 DUP4 ADD MSTORE PUSH2 0x19B6 DUP2 DUP6 PUSH2 0x1918 JUMP JUMPDEST SWAP1 POP PUSH2 0x19C5 PUSH1 0x20 DUP4 ADD DUP5 PUSH2 0x1840 JUMP JUMPDEST SWAP4 SWAP3 POP POP POP JUMP JUMPDEST PUSH1 0x0 DUP2 SWAP1 POP SWAP2 SWAP1 POP JUMP JUMPDEST PUSH1 0x0 PUSH2 0x19E1 DUP3 PUSH2 0x19CC JUMP JUMPDEST SWAP2 POP PUSH2 0x19EC DUP4 PUSH2 0x19CC JUMP JUMPDEST SWAP3 POP DUP3 DUP3 ADD SWAP1 POP DUP3 DUP2 SLT ISZERO PUSH1 0x0 DUP4 SLT AND DUP4 DUP3 SLT PUSH1 0x0 DUP5 SLT ISZERO AND OR ISZERO PUSH2 0x1A14 JUMPI PUSH2 0x1A13 PUSH2 0x147F JUMP JUMPDEST JUMPDEST SWAP3 SWAP2 POP POP JUMP JUMPDEST PUSH1 0x0 PUSH2 0x1A25 DUP3 PUSH2 0x19CC JUMP JUMPDEST SWAP2 POP PUSH2 0x1A30 DUP4 PUSH2 0x19CC JUMP JUMPDEST SWAP3 POP DUP3 DUP3 MUL PUSH2 0x1A3E DUP2 PUSH2 0x19CC JUMP JUMPDEST SWAP2 POP PUSH32 0x8000000000000000000000000000000000000000000000000000000000000000 DUP5 EQ PUSH1 0x0 DUP5 SLT AND ISZERO PUSH2 0x1A76 JUMPI PUSH2 0x1A75 PUSH2 0x147F JUMP JUMPDEST JUMPDEST DUP3 DUP3 SDIV DUP5 EQ DUP4 ISZERO OR PUSH2 0x1A8B JUMPI PUSH2 0x1A8A PUSH2 0x147F JUMP JUMPDEST JUMPDEST POP SWAP3 SWAP2 POP POP JUMP JUMPDEST PUSH1 0x0 PUSH2 0x1A9D DUP3 PUSH2 0x19CC JUMP JUMPDEST SWAP2 POP PUSH2 0x1AA8 DUP4 PUSH2 0x19CC JUMP JUMPDEST SWAP3 POP DUP3 PUSH2 0x1AB8 JUMPI PUSH2 0x1AB7 PUSH2 0x18B8 JUMP JUMPDEST JUMPDEST PUSH1 0x1 PUSH1 0x0 SUB DUP4 EQ PUSH32 0x8000000000000000000000000000000000000000000000000000000000000000 DUP4 EQ AND ISZERO PUSH2 0x1AF1 JUMPI PUSH2 0x1AF0 PUSH2 0x147F JUMP JUMPDEST JUMPDEST DUP3 DUP3 SDIV SWAP1 POP SWAP3 SWAP2 POP POP JUMP JUMPDEST PUSH1 0x0 PUSH2 0x1B07 DUP3 PUSH2 0x19CC JUMP JUMPDEST SWAP2 POP PUSH2 0x1B12 DUP4 PUSH2 0x19CC JUMP JUMPDEST SWAP3 POP DUP3 DUP3 SUB SWAP1 POP DUP2 DUP2 SLT PUSH1 0x0 DUP5 SLT AND DUP3 DUP3 SGT PUSH1 0x0 DUP6 SLT ISZERO AND OR ISZERO PUSH2 0x1B39 JUMPI PUSH2 0x1B38 PUSH2 0x147F JUMP JUMPDEST JUMPDEST SWAP3 SWAP2 POP POP JUMP INVALID LOG2 PUSH5 0x6970667358 0x22 SLT KECCAK256 0xBB 0xBA DUP9 SWAP14 SWAP7 0x5F 0xED BLOCKHASH PUSH24 0x3BE1C3995CC0DF8373C8D55A614D347EE28C66254A98C764 PUSH20 0x6F6C634300081200330000000000000000000000 "
				},
				"gasEstimates": {
					"creation": {
						"codeDepositCost": "1405800",
						"executionCost": "infinite",
						"totalCost": "infinite"
					},
					"external": {
						"addTeammate(address,string,uint256,uint256)": "infinite",
						"checkBirthday(uint256)": "infinite",
						"deposit()": "142",
						"findBirthday()": "infinite",
						"getDate(uint256)": "infinite",
						"getTeam()": "infinite",
						"getTeammate(uint256)": "infinite",
						"getTeammatesNumber()": "2533",
						"sendToTeammate(uint256)": "infinite"
					},
					"internal": {
						"birthdayPayout(uint256)": "infinite"
					}
				},
				"methodIdentifiers": {
					"addTeammate(address,string,uint256,uint256)": "b0641934",
					"checkBirthday(uint256)": "b9e1189e",
					"deposit()": "d0e30db0",
					"findBirthday()": "5bd2d868",
					"getDate(uint256)": "2b57298b",
					"getTeam()": "8bce6edd",
					"getTeammate(uint256)": "e792ec4f",
					"getTeammatesNumber()": "eed2157c",
					"sendToTeammate(uint256)": "e03cf9dc"
				}
			},
			"storageLayout": {
				"storage": [
					{
						"astId": 4,
						"contract": "Homework 7/Lecture 7/BirthdayPayouts.sol:BirthdayPayout",
						"label": "_name",
						"offset": 0,
						"slot": "0",
						"type": "t_string_storage"
					},
					{
						"astId": 6,
						"contract": "Homework 7/Lecture 7/BirthdayPayouts.sol:BirthdayPayout",
						"label": "_owner",
						"offset": 0,
						"slot": "1",
						"type": "t_address"
					},
					{
						"astId": 10,
						"contract": "Homework 7/Lecture 7/BirthdayPayouts.sol:BirthdayPayout",
						"label": "_teammates",
						"offset": 0,
						"slot": "2",
						"type": "t_array(t_struct(Teammate)23_storage)dyn_storage"
					},
					{
						"astId": 14,
						"contract": "Homework 7/Lecture 7/BirthdayPayouts.sol:BirthdayPayout",
						"label": "_receivedGifts",
						"offset": 0,
						"slot": "3",
						"type": "t_mapping(t_address,t_bool)"
					}
				],
				"types": {
					"t_address": {
						"encoding": "inplace",
						"label": "address",
						"numberOfBytes": "20"
					},
					"t_array(t_struct(Teammate)23_storage)dyn_storage": {
						"base": "t_struct(Teammate)23_storage",
						"encoding": "dynamic_array",
						"label": "struct BirthdayPayout.Teammate[]",
						"numberOfBytes": "32"
					},
					"t_bool": {
						"encoding": "inplace",
						"label": "bool",
						"numberOfBytes": "1"
					},
					"t_mapping(t_address,t_bool)": {
						"encoding": "mapping",
						"key": "t_address",
						"label": "mapping(address => bool)",
						"numberOfBytes": "32",
						"value": "t_bool"
					},
					"t_string_storage": {
						"encoding": "bytes",
						"label": "string",
						"numberOfBytes": "32"
					},
					"t_struct(Teammate)23_storage": {
						"encoding": "inplace",
						"label": "struct BirthdayPayout.Teammate",
						"members": [
							{
								"astId": 16,
								"contract": "Homework 7/Lecture 7/BirthdayPayouts.sol:BirthdayPayout",
								"label": "name",
								"offset": 0,
								"slot": "0",
								"type": "t_string_storage"
							},
							{
								"astId": 18,
								"contract": "Homework 7/Lecture 7/BirthdayPayouts.sol:BirthdayPayout",
								"label": "account",
								"offset": 0,
								"slot": "1",
								"type": "t_address"
							},
							{
								"astId": 20,
								"contract": "Homework 7/Lecture 7/BirthdayPayouts.sol:BirthdayPayout",
								"label": "salary",
								"offset": 0,
								"slot": "2",
								"type": "t_uint256"
							},
							{
								"astId": 22,
								"contract": "Homework 7/Lecture 7/BirthdayPayouts.sol:BirthdayPayout",
								"label": "birthday",
								"offset": 0,
								"slot": "3",
								"type": "t_uint256"
							}
						],
						"numberOfBytes": "128"
					},
					"t_uint256": {
						"encoding": "inplace",
						"label": "uint256",
						"numberOfBytes": "32"
					}
				}
			},
			"userdoc": {
				"kind": "user",
				"methods": {},
				"version": 1
			}
		}
	}
}